Archive member included to satisfy reference by file (symbol)

esp-idf/app_update/libapp_update.a(esp_app_desc.c.obj)
                              (esp_app_desc)
esp-idf/pthread/libpthread.a(pthread.c.obj)
                              (pthread_include_pthread_impl)
esp-idf/pthread/libpthread.a(pthread_local_storage.c.obj)
                              esp-idf/pthread/libpthread.a(pthread.c.obj) (pthread_key_create)
esp-idf/esp_system/libesp_system.a(fpga_overrides.c.obj)
                              (esp_common_include_fpga_overrides)
esp-idf/esp_system/libesp_system.a(ubsan.c.obj)
                              (__ubsan_include)
esp-idf/esp_system/libesp_system.a(cpu_start.c.obj)
                              (call_start_cpu0)
esp-idf/esp_system/libesp_system.a(cache_err_int.c.obj)
                              esp-idf/esp_system/libesp_system.a(cpu_start.c.obj) (esp_cache_err_int_init)
esp-idf/esp_system/libesp_system.a(esp_system.c.obj)
                              esp-idf/esp_system/libesp_system.a(cpu_start.c.obj) (esp_restart_noos_dig)
esp-idf/esp_system/libesp_system.a(startup.c.obj)
                              esp-idf/esp_system/libesp_system.a(cpu_start.c.obj) (g_startup_fn)
esp-idf/esp_system/libesp_system.a(brownout.c.obj)
                              esp-idf/esp_system/libesp_system.a(startup.c.obj) (esp_brownout_init)
esp-idf/esp_system/libesp_system.a(system_internal.c.obj)
                              esp-idf/esp_system/libesp_system.a(esp_system.c.obj) (esp_restart_noos)
esp-idf/esp_system/libesp_system.a(apb_backup_dma.c.obj)
                              esp-idf/esp_system/libesp_system.a(startup.c.obj) (esp_apb_backup_dma_lock_init)
esp-idf/esp_system/libesp_system.a(panic.c.obj)
                              esp-idf/esp_system/libesp_system.a(esp_system.c.obj) (panic_abort)
esp-idf/esp_system/libesp_system.a(panic_handler.c.obj)
                              esp-idf/esp_system/libesp_system.a(panic.c.obj) (panic_restart)
esp-idf/esp_system/libesp_system.a(panic_arch.c.obj)
                              esp-idf/esp_system/libesp_system.a(panic_handler.c.obj) (panic_print_registers)
esp-idf/hal/libhal.a(wdt_hal_iram.c.obj)
                              esp-idf/esp_system/libesp_system.a(system_internal.c.obj) (wdt_hal_init)
esp-idf/hal/libhal.a(cpu_hal.c.obj)
                              esp-idf/esp_system/libesp_system.a(panic.c.obj) (cpu_hal_set_breakpoint)
esp-idf/hal/libhal.a(uart_hal_iram.c.obj)
                              esp-idf/esp_system/libesp_system.a(panic.c.obj) (uart_hal_write_txfifo)
esp-idf/hal/libhal.a(brownout_hal.c.obj)
                              esp-idf/esp_system/libesp_system.a(brownout.c.obj) (brownout_hal_config)
esp-idf/vfs/libvfs.a(vfs.c.obj)
                              (vfs_include_syscalls_impl)
esp-idf/vfs/libvfs.a(vfs_uart.c.obj)
                              esp-idf/esp_system/libesp_system.a(startup.c.obj) (esp_vfs_dev_uart_register)
esp-idf/log/liblog.a(log.c.obj)
                              esp-idf/pthread/libpthread.a(pthread.c.obj) (esp_log_write)
esp-idf/log/liblog.a(log_freertos.c.obj)
                              esp-idf/log/liblog.a(log.c.obj) (esp_log_impl_lock)
esp-idf/heap/libheap.a(heap_caps.c.obj)
                              esp-idf/esp_system/libesp_system.a(esp_system.c.obj) (heap_caps_get_free_size)
esp-idf/heap/libheap.a(heap_caps_init.c.obj)
                              esp-idf/heap/libheap.a(heap_caps.c.obj) (registered_heaps)
esp-idf/heap/libheap.a(multi_heap.c.obj)
                              esp-idf/heap/libheap.a(heap_caps.c.obj) (multi_heap_get_allocated_size)
esp-idf/heap/libheap.a(heap_tlsf.c.obj)
                              esp-idf/heap/libheap.a(multi_heap.c.obj) (tlsf_check)
esp-idf/heap/libheap.a(memory_layout_utils.c.obj)
                              esp-idf/heap/libheap.a(heap_caps_init.c.obj) (soc_get_available_memory_region_max_count)
esp-idf/heap/libheap.a(memory_layout.c.obj)
                              esp-idf/heap/libheap.a(heap_caps_init.c.obj) (soc_memory_region_count)
esp-idf/esp_hw_support/libesp_hw_support.a(cpu_util.c.obj)
                              esp-idf/esp_system/libesp_system.a(system_internal.c.obj) (esp_cpu_reset)
esp-idf/esp_hw_support/libesp_hw_support.a(esp_clk.c.obj)
                              esp-idf/esp_system/libesp_system.a(startup.c.obj) (esp_clk_cpu_freq)
esp-idf/esp_hw_support/libesp_hw_support.a(intr_alloc.c.obj)
                              esp-idf/esp_system/libesp_system.a(cache_err_int.c.obj) (esp_intr_enable_source)
esp-idf/esp_hw_support/libesp_hw_support.a(regi2c_ctrl.c.obj)
                              esp-idf/hal/libhal.a(brownout_hal.c.obj) (regi2c_ctrl_write_reg_mask)
esp-idf/esp_hw_support/libesp_hw_support.a(rtc_clk.c.obj)
                              esp-idf/esp_system/libesp_system.a(system_internal.c.obj) (rtc_clk_slow_freq_get_hz)
esp-idf/esp_hw_support/libesp_hw_support.a(rtc_time.c.obj)
                              esp-idf/esp_hw_support/libesp_hw_support.a(esp_clk.c.obj) (rtc_time_get)
esp-idf/esp_hw_support/libesp_hw_support.a(memprot.c.obj)
                              esp-idf/esp_system/libesp_system.a(panic_arch.c.obj) (esp_memprot_intr_get_cpuid)
esp-idf/riscv/libriscv.a(interrupt.c.obj)
                              esp-idf/esp_hw_support/libesp_hw_support.a(intr_alloc.c.obj) (intr_handler_set)
esp-idf/riscv/libriscv.a(vectors.S.obj)
                              esp-idf/esp_system/libesp_system.a(cpu_start.c.obj) (_vector_table)
esp-idf/esp_timer/libesp_timer.a(esp_timer.c.obj)
                              esp-idf/esp_system/libesp_system.a(startup.c.obj) (esp_timer_init)
esp-idf/esp_timer/libesp_timer.a(system_time.c.obj)
                              esp-idf/esp_timer/libesp_timer.a(esp_timer.c.obj) (esp_timer_impl_init_system_time)
esp-idf/esp_timer/libesp_timer.a(esp_timer_impl_systimer.c.obj)
                              esp-idf/esp_timer/libesp_timer.a(esp_timer.c.obj) (esp_timer_impl_get_time)
esp-idf/freertos/libfreertos.a(port.c.obj)
                              esp-idf/pthread/libpthread.a(pthread.c.obj) (vPortExitCritical)
esp-idf/freertos/libfreertos.a(portasm.S.obj)
                              esp-idf/riscv/libriscv.a(vectors.S.obj) (rtos_int_enter)
esp-idf/freertos/libfreertos.a(port_common.c.obj)
                              esp-idf/freertos/libfreertos.a(port.c.obj) (esp_startup_start_app_common)
esp-idf/freertos/libfreertos.a(port_systick.c.obj)
                              esp-idf/freertos/libfreertos.a(port.c.obj) (vPortSetupTimer)
esp-idf/freertos/libfreertos.a(queue.c.obj)
                              esp-idf/vfs/libvfs.a(vfs.c.obj) (xQueueGenericCreate)
esp-idf/freertos/libfreertos.a(tasks.c.obj)
                              esp-idf/pthread/libpthread.a(pthread.c.obj) (xTaskCreatePinnedToCore)
esp-idf/freertos/libfreertos.a(FreeRTOS-openocd.c.obj)
                              (uxTopUsedPriority)
esp-idf/freertos/libfreertos.a(list.c.obj)
                              esp-idf/freertos/libfreertos.a(queue.c.obj) (vListInitialise)
esp-idf/newlib/libnewlib.a(abort.c.obj)
                              esp-idf/pthread/libpthread.a(pthread.c.obj) (abort)
esp-idf/newlib/libnewlib.a(heap.c.obj)
                              esp-idf/pthread/libpthread.a(pthread.c.obj) (malloc)
esp-idf/newlib/libnewlib.a(locks.c.obj)
                              esp-idf/vfs/libvfs.a(vfs.c.obj) (_lock_acquire)
esp-idf/newlib/libnewlib.a(pthread.c.obj)
                              (newlib_include_pthread_impl)
esp-idf/newlib/libnewlib.a(reent_init.c.obj)
                              esp-idf/esp_system/libesp_system.a(startup.c.obj) (esp_reent_init)
esp-idf/newlib/libnewlib.a(newlib_init.c.obj)
                              esp-idf/esp_system/libesp_system.a(startup.c.obj) (esp_newlib_init)
esp-idf/newlib/libnewlib.a(syscalls.c.obj)
                              esp-idf/newlib/libnewlib.a(newlib_init.c.obj) (_kill_r)
esp-idf/newlib/libnewlib.a(time.c.obj)
                              esp-idf/newlib/libnewlib.a(newlib_init.c.obj) (_gettimeofday_r)
esp-idf/newlib/libnewlib.a(esp_time_impl.c.obj)
                              esp-idf/newlib/libnewlib.a(time.c.obj) (esp_time_impl_get_time_since_boot)
esp-idf/cxx/libcxx.a(cxx_guards.cpp.obj)
                              (__cxa_guard_dummy)
esp-idf/main/libmain.a(hello_world_main.c.obj)
                              (app_main)
esp-idf/driver/libdriver.a(uart.c.obj)
                              esp-idf/vfs/libvfs.a(vfs_uart.c.obj) (uart_set_word_length)
esp-idf/driver/libdriver.a(gpio.c.obj)
                              esp-idf/driver/libdriver.a(uart.c.obj) (gpio_set_level)
esp-idf/driver/libdriver.a(periph_ctrl.c.obj)
                              esp-idf/driver/libdriver.a(uart.c.obj) (periph_module_enable)
esp-idf/bootloader_support/libbootloader_support.a(bootloader_mem.c.obj)
                              esp-idf/esp_system/libesp_system.a(cpu_start.c.obj) (bootloader_init_mem)
esp-idf/bootloader_support/libbootloader_support.a(bootloader_flash_config_esp32h2.c.obj)
                              esp-idf/esp_system/libesp_system.a(cpu_start.c.obj) (bootloader_flash_update_id)
esp-idf/bootloader_support/libbootloader_support.a(flash_qio_mode.c.obj)
                              esp-idf/bootloader_support/libbootloader_support.a(bootloader_flash_config_esp32h2.c.obj) (bootloader_read_flash_id)
esp-idf/bootloader_support/libbootloader_support.a(bootloader_flash.c.obj)
                              esp-idf/bootloader_support/libbootloader_support.a(flash_qio_mode.c.obj) (bootloader_execute_flash_command)
esp-idf/spi_flash/libspi_flash.a(cache_utils.c.obj)
                              esp-idf/esp_system/libesp_system.a(panic_handler.c.obj) (spi_flash_cache_enabled)
esp-idf/spi_flash/libspi_flash.a(flash_mmap.c.obj)
                              esp-idf/bootloader_support/libbootloader_support.a(bootloader_flash.c.obj) (spi_flash_mmap)
esp-idf/spi_flash/libspi_flash.a(flash_ops.c.obj)
                              esp-idf/esp_system/libesp_system.a(cpu_start.c.obj) (esp_mspi_pin_init)
esp-idf/spi_flash/libspi_flash.a(esp_flash_api.c.obj)
                              esp-idf/bootloader_support/libbootloader_support.a(bootloader_flash.c.obj) (spi_flash_erase_range)
esp-idf/spi_flash/libspi_flash.a(esp_flash_spi_init.c.obj)
                              esp-idf/esp_system/libesp_system.a(startup.c.obj) (esp_flash_init_default_chip)
esp-idf/spi_flash/libspi_flash.a(spi_flash_os_func_app.c.obj)
                              esp-idf/spi_flash/libspi_flash.a(esp_flash_spi_init.c.obj) (esp_flash_init_os_functions)
esp-idf/spi_flash/libspi_flash.a(spi_flash_os_func_noos.c.obj)
                              esp-idf/spi_flash/libspi_flash.a(esp_flash_api.c.obj) (esp_flash_app_disable_os_functions)
esp-idf/spi_flash/libspi_flash.a(partition.c.obj)
                              esp-idf/spi_flash/libspi_flash.a(flash_ops.c.obj) (esp_partition_main_flash_region_safe)
esp-idf/spi_flash/libspi_flash.a(spi_flash_chip_drivers.c.obj)
                              esp-idf/spi_flash/libspi_flash.a(esp_flash_api.c.obj) (esp_flash_registered_chips)
esp-idf/spi_flash/libspi_flash.a(spi_flash_chip_generic.c.obj)
                              esp-idf/spi_flash/libspi_flash.a(spi_flash_chip_drivers.c.obj) (esp_flash_chip_generic)
esp-idf/spi_flash/libspi_flash.a(spi_flash_chip_issi.c.obj)
                              esp-idf/spi_flash/libspi_flash.a(spi_flash_chip_drivers.c.obj) (esp_flash_chip_issi)
esp-idf/spi_flash/libspi_flash.a(spi_flash_chip_mxic.c.obj)
                              esp-idf/spi_flash/libspi_flash.a(spi_flash_chip_drivers.c.obj) (esp_flash_chip_mxic)
esp-idf/spi_flash/libspi_flash.a(spi_flash_chip_gd.c.obj)
                              esp-idf/spi_flash/libspi_flash.a(spi_flash_chip_drivers.c.obj) (esp_flash_chip_gd)
esp-idf/spi_flash/libspi_flash.a(spi_flash_chip_winbond.c.obj)
                              esp-idf/spi_flash/libspi_flash.a(spi_flash_chip_gd.c.obj) (spi_flash_chip_winbond_page_program)
esp-idf/spi_flash/libspi_flash.a(spi_flash_chip_boya.c.obj)
                              esp-idf/spi_flash/libspi_flash.a(spi_flash_chip_drivers.c.obj) (esp_flash_chip_boya)
esp-idf/spi_flash/libspi_flash.a(memspi_host_driver.c.obj)
                              esp-idf/spi_flash/libspi_flash.a(esp_flash_spi_init.c.obj) (memspi_host_init_pointers)
esp-idf/esp_system/libesp_system.a(esp_err.c.obj)
                              esp-idf/vfs/libvfs.a(vfs_uart.c.obj) (_esp_error_check_failed)
esp-idf/esp_system/libesp_system.a(crosscore_int.c.obj)
                              esp-idf/freertos/libfreertos.a(port_common.c.obj) (esp_crosscore_int_init)
esp-idf/esp_system/libesp_system.a(freertos_hooks.c.obj)
                              esp-idf/freertos/libfreertos.a(tasks.c.obj) (esp_vApplicationTickHook)
esp-idf/esp_system/libesp_system.a(int_wdt.c.obj)
                              esp-idf/freertos/libfreertos.a(port_common.c.obj) (esp_int_wdt_init)
esp-idf/esp_system/libesp_system.a(task_wdt.c.obj)
                              esp-idf/freertos/libfreertos.a(port_common.c.obj) (esp_task_wdt_init)
esp-idf/hal/libhal.a(gpio_hal.c.obj)
                              esp-idf/driver/libdriver.a(gpio.c.obj) (gpio_hal_intr_enable_on_core)
esp-idf/hal/libhal.a(uart_hal.c.obj)
                              esp-idf/driver/libdriver.a(uart.c.obj) (uart_hal_set_sclk)
esp-idf/hal/libhal.a(spi_flash_hal.c.obj)
                              esp-idf/spi_flash/libspi_flash.a(memspi_host_driver.c.obj) (spi_flash_hal_init)
esp-idf/hal/libhal.a(spi_flash_hal_iram.c.obj)
                              esp-idf/spi_flash/libspi_flash.a(memspi_host_driver.c.obj) (spi_flash_hal_poll_cmd_done)
esp-idf/hal/libhal.a(spi_flash_encrypt_hal_iram.c.obj)
                              esp-idf/spi_flash/libspi_flash.a(spi_flash_chip_generic.c.obj) (spi_flash_encryption_hal_enable)
esp-idf/hal/libhal.a(interrupt_controller_hal.c.obj)
                              esp-idf/esp_hw_support/libesp_hw_support.a(intr_alloc.c.obj) (interrupt_controller_hal_desc_level)
esp-idf/hal/libhal.a(spi_flash_hal_gpspi.c.obj)
                              esp-idf/spi_flash/libspi_flash.a(memspi_host_driver.c.obj) (spi_flash_hal_gpspi_poll_cmd_done)
esp-idf/hal/libhal.a(systimer_hal.c.obj)
                              esp-idf/esp_timer/libesp_timer.a(esp_timer_impl_systimer.c.obj) (systimer_hal_init)
esp-idf/soc/libsoc.a(gpio_periph.c.obj)
                              esp-idf/driver/libdriver.a(gpio.c.obj) (GPIO_HOLD_MASK)
esp-idf/soc/libsoc.a(spi_periph.c.obj)
                              esp-idf/spi_flash/libspi_flash.a(esp_flash_spi_init.c.obj) (spi_periph_signal)
esp-idf/soc/libsoc.a(uart_periph.c.obj)
                              esp-idf/driver/libdriver.a(uart.c.obj) (uart_periph_signal)
esp-idf/esp_hw_support/libesp_hw_support.a(cpu_util_esp32h2.c.obj)
                              esp-idf/bootloader_support/libbootloader_support.a(bootloader_mem.c.obj) (esp_cpu_configure_region_protection)
esp-idf/esp_hw_support/libesp_hw_support.a(chip_info.c.obj)
                              esp-idf/main/libmain.a(hello_world_main.c.obj) (esp_chip_info)
esp-idf/riscv/libriscv.a(instruction_decode.c.obj)
                              esp-idf/hal/libhal.a(interrupt_controller_hal.c.obj) (riscv_decode_offset_from_jal_instruction)
esp-idf/esp_common/libesp_common.a(esp_err_to_name.c.obj)
                              esp-idf/esp_system/libesp_system.a(esp_err.c.obj) (esp_err_to_name)
esp-idf/esp_ringbuf/libesp_ringbuf.a(ringbuf.c.obj)
                              esp-idf/driver/libdriver.a(uart.c.obj) (xRingbufferCreate)
esp-idf/efuse/libefuse.a(esp_efuse_fields.c.obj)
                              esp-idf/esp_hw_support/libesp_hw_support.a(chip_info.c.obj) (esp_efuse_get_chip_ver)
esp-idf/efuse/libefuse.a(esp_efuse_api.c.obj)
                              esp-idf/efuse/libefuse.a(esp_efuse_fields.c.obj) (esp_efuse_read_field_blob)
esp-idf/efuse/libefuse.a(esp_efuse_utility.c.obj)
                              esp-idf/efuse/libefuse.a(esp_efuse_api.c.obj) (esp_efuse_utility_process)
esp-idf/efuse/libefuse.a(esp_efuse_table.c.obj)
                              esp-idf/efuse/libefuse.a(esp_efuse_fields.c.obj) (ESP_EFUSE_PKG_VERSION)
esp-idf/efuse/libefuse.a(esp_efuse_utility.c.obj)
                              esp-idf/efuse/libefuse.a(esp_efuse_utility.c.obj) (esp_efuse_utility_clear_program_registers)
esp-idf/efuse/libefuse.a(esp_efuse_api_key_esp32xx.c.obj)
                              esp-idf/efuse/libefuse.a(esp_efuse_utility.c.obj) (esp_efuse_get_coding_scheme)
esp-idf/driver/libdriver.a(spi_common.c.obj)
                              esp-idf/spi_flash/libspi_flash.a(esp_flash_spi_init.c.obj) (spicommon_bus_using_iomux)
esp-idf/driver/libdriver.a(spi_bus_lock.c.obj)
                              esp-idf/driver/libdriver.a(spi_common.c.obj) (spi_bus_init_lock)
esp-idf/driver/libdriver.a(gdma.c.obj)
                              esp-idf/driver/libdriver.a(spi_common.c.obj) (gdma_new_channel)
esp-idf/esp_pm/libesp_pm.a(pm_impl.c.obj)
                              esp-idf/esp_system/libesp_system.a(freertos_hooks.c.obj) (esp_pm_impl_waiti)
esp-idf/esp_pm/libesp_pm.a(pm_locks.c.obj)
                              esp-idf/esp_pm/libesp_pm.a(pm_impl.c.obj) (esp_pm_lock_create)
esp-idf/app_update/libapp_update.a(esp_ota_ops.c.obj)
                              esp-idf/spi_flash/libspi_flash.a(partition.c.obj) (esp_ota_get_running_partition)
esp-idf/bootloader_support/libbootloader_support.a(bootloader_common.c.obj)
                              esp-idf/spi_flash/libspi_flash.a(partition.c.obj) (bootloader_common_get_sha256_of_partition)
esp-idf/bootloader_support/libbootloader_support.a(bootloader_common_loader.c.obj)
                              esp-idf/app_update/libapp_update.a(esp_ota_ops.c.obj) (bootloader_common_ota_select_crc)
esp-idf/bootloader_support/libbootloader_support.a(bootloader_utility.c.obj)
                              esp-idf/bootloader_support/libbootloader_support.a(bootloader_common.c.obj) (bootloader_sha256_flash_contents)
esp-idf/bootloader_support/libbootloader_support.a(esp_image_format.c.obj)
                              esp-idf/app_update/libapp_update.a(esp_ota_ops.c.obj) (esp_image_verify)
esp-idf/bootloader_support/libbootloader_support.a(flash_partitions.c.obj)
                              esp-idf/bootloader_support/libbootloader_support.a(bootloader_common.c.obj) (esp_partition_table_verify)
esp-idf/bootloader_support/libbootloader_support.a(bootloader_sha.c.obj)
                              esp-idf/bootloader_support/libbootloader_support.a(bootloader_utility.c.obj) (bootloader_sha256_start)
esp-idf/bootloader_support/libbootloader_support.a(bootloader_random_esp32h2.c.obj)
                              esp-idf/bootloader_support/libbootloader_support.a(bootloader_utility.c.obj) (bootloader_random_disable)
esp-idf/hal/libhal.a(gdma_hal.c.obj)
                              esp-idf/driver/libdriver.a(gdma.c.obj) (gdma_hal_init)
esp-idf/soc/libsoc.a(gdma_periph.c.obj)
                              esp-idf/driver/libdriver.a(gdma.c.obj) (gdma_periph_signals)
esp-idf/esp_hw_support/libesp_hw_support.a(rtc_init.c.obj)
                              esp-idf/bootloader_support/libbootloader_support.a(bootloader_common.c.obj) (rtc_vddsdio_get_config)
esp-idf/esp_hw_support/libesp_hw_support.a(rtc_sleep.c.obj)
                              esp-idf/esp_hw_support/libesp_hw_support.a(rtc_init.c.obj) (rtc_sleep_pu)
esp-idf/newlib/libnewlib.a(stdatomic.c.obj)
                              esp-idf/driver/libdriver.a(spi_common.c.obj) (__atomic_compare_exchange_1)
esp-idf/mbedtls/mbedtls/library/libmbedcrypto.a(esp_sha256.c.obj)
                              esp-idf/bootloader_support/libbootloader_support.a(bootloader_sha.c.obj) (mbedtls_sha256_init)
esp-idf/mbedtls/mbedtls/library/libmbedcrypto.a(sha.c.obj)
                              esp-idf/mbedtls/mbedtls/library/libmbedcrypto.a(esp_sha256.c.obj) (esp_sha_write_digest_state)
esp-idf/mbedtls/mbedtls/library/libmbedcrypto.a(esp_sha_gdma_impl.c.obj)
                              esp-idf/mbedtls/mbedtls/library/libmbedcrypto.a(sha.c.obj) (esp_sha_dma_start)
esp-idf/mbedtls/mbedtls/library/libmbedcrypto.a(esp_crypto_shared_gdma.c.obj)
                              esp-idf/mbedtls/mbedtls/library/libmbedcrypto.a(esp_sha_gdma_impl.c.obj) (esp_crypto_shared_gdma_start)
esp-idf/hal/libhal.a(sha_hal.c.obj)
                              esp-idf/mbedtls/mbedtls/library/libmbedcrypto.a(sha.c.obj) (sha_hal_wait_idle)
esp-idf/esp_hw_support/libesp_hw_support.a(esp_crypto_lock.c.obj)
                              esp-idf/mbedtls/mbedtls/library/libmbedcrypto.a(sha.c.obj) (esp_crypto_sha_aes_lock_acquire)
/home/xy/.espressif/tools/riscv32-esp-elf/esp-2021r1-8.4.0/riscv32-esp-elf/bin/../lib/gcc/riscv32-esp-elf/8.4.0/rv32im/ilp32\libgcc.a(_ffssi2.o)
                              esp-idf/esp_hw_support/libesp_hw_support.a(intr_alloc.c.obj) (__ffssi2)
/home/xy/.espressif/tools/riscv32-esp-elf/esp-2021r1-8.4.0/riscv32-esp-elf/bin/../lib/gcc/riscv32-esp-elf/8.4.0/rv32im/ilp32\libgcc.a(_clz.o)
                              /home/xy/.espressif/tools/riscv32-esp-elf/esp-2021r1-8.4.0/riscv32-esp-elf/bin/../lib/gcc/riscv32-esp-elf/8.4.0/rv32im/ilp32\libgcc.a(_ffssi2.o) (__clz_tab)
/home/xy/.espressif/tools/riscv32-esp-elf/esp-2021r1-8.4.0/riscv32-esp-elf/bin/../lib/gcc/riscv32-esp-elf/8.4.0/rv32im/ilp32\libgcc.a(_clzsi2.o)
                              esp-idf/heap/libheap.a(multi_heap.c.obj) (__clzsi2)
/home/xy/.espressif/tools/riscv32-esp-elf/esp-2021r1-8.4.0/riscv32-esp-elf/bin/../lib/gcc/riscv32-esp-elf/8.4.0/rv32im/ilp32\libgcc.a(_popcountsi2.o)
                              esp-idf/efuse/libefuse.a(esp_efuse_utility.c.obj) (__popcountsi2)
/home/xy/.espressif/tools/riscv32-esp-elf/esp-2021r1-8.4.0/riscv32-esp-elf/bin/../lib/gcc/riscv32-esp-elf/8.4.0/rv32im/ilp32\libgcc.a(_bswapdi2.o)
                              esp-idf/spi_flash/libspi_flash.a(spi_flash_chip_generic.c.obj) (__bswapdi2)
/home/xy/.espressif/tools/riscv32-esp-elf/esp-2021r1-8.4.0/riscv32-esp-elf/bin/../lib/gcc/riscv32-esp-elf/8.4.0/rv32im/ilp32\libgcc.a(_divdi3.o)
                              esp-idf/newlib/libnewlib.a(time.c.obj) (__divdi3)
/home/xy/.espressif/tools/riscv32-esp-elf/esp-2021r1-8.4.0/riscv32-esp-elf/bin/../lib/gcc/riscv32-esp-elf/8.4.0/rv32im/ilp32\libgcc.a(_moddi3.o)
                              esp-idf/newlib/libnewlib.a(time.c.obj) (__moddi3)
/home/xy/.espressif/tools/riscv32-esp-elf/esp-2021r1-8.4.0/riscv32-esp-elf/bin/../lib/gcc/riscv32-esp-elf/8.4.0/rv32im/ilp32\libgcc.a(_udivdi3.o)
                              esp-idf/esp_system/libesp_system.a(system_internal.c.obj) (__udivdi3)
/home/xy/.espressif/tools/riscv32-esp-elf/esp-2021r1-8.4.0/riscv32-esp-elf/bin/../lib/gcc/riscv32-esp-elf/8.4.0/rv32im/ilp32\libgcc.a(_umoddi3.o)
                              esp-idf/newlib/libnewlib.a(time.c.obj) (__umoddi3)
/home/xy/.espressif/tools/riscv32-esp-elf/esp-2021r1-8.4.0/riscv32-esp-elf/bin/../lib/gcc/riscv32-esp-elf/8.4.0/../../../../riscv32-esp-elf/lib/rv32im/ilp32\libc.a(lib_a-assert.o)
                              (__assert_func)
/home/xy/.espressif/tools/riscv32-esp-elf/esp-2021r1-8.4.0/riscv32-esp-elf/bin/../lib/gcc/riscv32-esp-elf/8.4.0/../../../../riscv32-esp-elf/lib/rv32im/ilp32\libc.a(lib_a-bzero.o)
                              esp-idf/newlib/libnewlib.a(heap.c.obj) (bzero)
/home/xy/.espressif/tools/riscv32-esp-elf/esp-2021r1-8.4.0/riscv32-esp-elf/bin/../lib/gcc/riscv32-esp-elf/8.4.0/../../../../riscv32-esp-elf/lib/rv32im/ilp32\libc.a(lib_a-environ.o)
                              esp-idf/newlib/libnewlib.a(newlib_init.c.obj) (environ)
/home/xy/.espressif/tools/riscv32-esp-elf/esp-2021r1-8.4.0/riscv32-esp-elf/bin/../lib/gcc/riscv32-esp-elf/8.4.0/../../../../riscv32-esp-elf/lib/rv32im/ilp32\libc.a(lib_a-errno.o)
                              esp-idf/vfs/libvfs.a(vfs.c.obj) (__errno)
/home/xy/.espressif/tools/riscv32-esp-elf/esp-2021r1-8.4.0/riscv32-esp-elf/bin/../lib/gcc/riscv32-esp-elf/8.4.0/../../../../riscv32-esp-elf/lib/rv32im/ilp32\libc.a(lib_a-fflush.o)
                              esp-idf/main/libmain.a(hello_world_main.c.obj) (fflush)
/home/xy/.espressif/tools/riscv32-esp-elf/esp-2021r1-8.4.0/riscv32-esp-elf/bin/../lib/gcc/riscv32-esp-elf/8.4.0/../../../../riscv32-esp-elf/lib/rv32im/ilp32\libc.a(lib_a-findfp.o)
                              esp-idf/newlib/libnewlib.a(reent_init.c.obj) (_cleanup_r)
/home/xy/.espressif/tools/riscv32-esp-elf/esp-2021r1-8.4.0/riscv32-esp-elf/bin/../lib/gcc/riscv32-esp-elf/8.4.0/../../../../riscv32-esp-elf/lib/rv32im/ilp32\libc.a(lib_a-fiprintf.o)
                              /home/xy/.espressif/tools/riscv32-esp-elf/esp-2021r1-8.4.0/riscv32-esp-elf/bin/../lib/gcc/riscv32-esp-elf/8.4.0/../../../../riscv32-esp-elf/lib/rv32im/ilp32\libc.a(lib_a-assert.o) (fiprintf)
/home/xy/.espressif/tools/riscv32-esp-elf/esp-2021r1-8.4.0/riscv32-esp-elf/bin/../lib/gcc/riscv32-esp-elf/8.4.0/../../../../riscv32-esp-elf/lib/rv32im/ilp32\libc.a(lib_a-fopen.o)
                              esp-idf/esp_system/libesp_system.a(startup.c.obj) (fopen)
/home/xy/.espressif/tools/riscv32-esp-elf/esp-2021r1-8.4.0/riscv32-esp-elf/bin/../lib/gcc/riscv32-esp-elf/8.4.0/../../../../riscv32-esp-elf/lib/rv32im/ilp32\libc.a(lib_a-fprintf.o)
                              esp-idf/esp_timer/libesp_timer.a(esp_timer.c.obj) (fprintf)
/home/xy/.espressif/tools/riscv32-esp-elf/esp-2021r1-8.4.0/riscv32-esp-elf/bin/../lib/gcc/riscv32-esp-elf/8.4.0/../../../../riscv32-esp-elf/lib/rv32im/ilp32\libc.a(lib_a-fputs.o)
                              esp-idf/esp_timer/libesp_timer.a(esp_timer.c.obj) (fputs)
/home/xy/.espressif/tools/riscv32-esp-elf/esp-2021r1-8.4.0/riscv32-esp-elf/bin/../lib/gcc/riscv32-esp-elf/8.4.0/../../../../riscv32-esp-elf/lib/rv32im/ilp32\libc.a(lib_a-fseek.o)
                              /home/xy/.espressif/tools/riscv32-esp-elf/esp-2021r1-8.4.0/riscv32-esp-elf/bin/../lib/gcc/riscv32-esp-elf/8.4.0/../../../../riscv32-esp-elf/lib/rv32im/ilp32\libc.a(lib_a-fopen.o) (_fseek_r)
/home/xy/.espressif/tools/riscv32-esp-elf/esp-2021r1-8.4.0/riscv32-esp-elf/bin/../lib/gcc/riscv32-esp-elf/8.4.0/../../../../riscv32-esp-elf/lib/rv32im/ilp32\libc.a(lib_a-fseeko.o)
                              /home/xy/.espressif/tools/riscv32-esp-elf/esp-2021r1-8.4.0/riscv32-esp-elf/bin/../lib/gcc/riscv32-esp-elf/8.4.0/../../../../riscv32-esp-elf/lib/rv32im/ilp32\libc.a(lib_a-fseek.o) (_fseeko_r)
/home/xy/.espressif/tools/riscv32-esp-elf/esp-2021r1-8.4.0/riscv32-esp-elf/bin/../lib/gcc/riscv32-esp-elf/8.4.0/../../../../riscv32-esp-elf/lib/rv32im/ilp32\libc.a(lib_a-ftello.o)
                              /home/xy/.espressif/tools/riscv32-esp-elf/esp-2021r1-8.4.0/riscv32-esp-elf/bin/../lib/gcc/riscv32-esp-elf/8.4.0/../../../../riscv32-esp-elf/lib/rv32im/ilp32\libc.a(lib_a-fseeko.o) (_ftello_r)
/home/xy/.espressif/tools/riscv32-esp-elf/esp-2021r1-8.4.0/riscv32-esp-elf/bin/../lib/gcc/riscv32-esp-elf/8.4.0/../../../../riscv32-esp-elf/lib/rv32im/ilp32\libc.a(lib_a-fvwrite.o)
                              /home/xy/.espressif/tools/riscv32-esp-elf/esp-2021r1-8.4.0/riscv32-esp-elf/bin/../lib/gcc/riscv32-esp-elf/8.4.0/../../../../riscv32-esp-elf/lib/rv32im/ilp32\libc.a(lib_a-fputs.o) (__sfvwrite_r)
/home/xy/.espressif/tools/riscv32-esp-elf/esp-2021r1-8.4.0/riscv32-esp-elf/bin/../lib/gcc/riscv32-esp-elf/8.4.0/../../../../riscv32-esp-elf/lib/rv32im/ilp32\libc.a(lib_a-fwalk.o)
                              /home/xy/.espressif/tools/riscv32-esp-elf/esp-2021r1-8.4.0/riscv32-esp-elf/bin/../lib/gcc/riscv32-esp-elf/8.4.0/../../../../riscv32-esp-elf/lib/rv32im/ilp32\libc.a(lib_a-findfp.o) (_fwalk)
/home/xy/.espressif/tools/riscv32-esp-elf/esp-2021r1-8.4.0/riscv32-esp-elf/bin/../lib/gcc/riscv32-esp-elf/8.4.0/../../../../riscv32-esp-elf/lib/rv32im/ilp32\libc.a(lib_a-fwrite.o)
                              esp-idf/esp_timer/libesp_timer.a(esp_timer.c.obj) (fwrite)
/home/xy/.espressif/tools/riscv32-esp-elf/esp-2021r1-8.4.0/riscv32-esp-elf/bin/../lib/gcc/riscv32-esp-elf/8.4.0/../../../../riscv32-esp-elf/lib/rv32im/ilp32\libc.a(lib_a-impure.o)
                              esp-idf/esp_system/libesp_system.a(startup.c.obj) (_global_impure_ptr)
/home/xy/.espressif/tools/riscv32-esp-elf/esp-2021r1-8.4.0/riscv32-esp-elf/bin/../lib/gcc/riscv32-esp-elf/8.4.0/../../../../riscv32-esp-elf/lib/rv32im/ilp32\libc.a(lib_a-itoa.o)
                              esp-idf/newlib/libnewlib.a(abort.c.obj) (itoa)
/home/xy/.espressif/tools/riscv32-esp-elf/esp-2021r1-8.4.0/riscv32-esp-elf/bin/../lib/gcc/riscv32-esp-elf/8.4.0/../../../../riscv32-esp-elf/lib/rv32im/ilp32\libc.a(lib_a-lcltime_r.o)
                              esp-idf/log/liblog.a(log_freertos.c.obj) (localtime_r)
/home/xy/.espressif/tools/riscv32-esp-elf/esp-2021r1-8.4.0/riscv32-esp-elf/bin/../lib/gcc/riscv32-esp-elf/8.4.0/../../../../riscv32-esp-elf/lib/rv32im/ilp32\libc.a(lib_a-makebuf.o)
                              /home/xy/.espressif/tools/riscv32-esp-elf/esp-2021r1-8.4.0/riscv32-esp-elf/bin/../lib/gcc/riscv32-esp-elf/8.4.0/../../../../riscv32-esp-elf/lib/rv32im/ilp32\libc.a(lib_a-fseeko.o) (__smakebuf_r)
/home/xy/.espressif/tools/riscv32-esp-elf/esp-2021r1-8.4.0/riscv32-esp-elf/bin/../lib/gcc/riscv32-esp-elf/8.4.0/../../../../riscv32-esp-elf/lib/rv32im/ilp32\libc.a(lib_a-memchr.o)
                              /home/xy/.espressif/tools/riscv32-esp-elf/esp-2021r1-8.4.0/riscv32-esp-elf/bin/../lib/gcc/riscv32-esp-elf/8.4.0/../../../../riscv32-esp-elf/lib/rv32im/ilp32\libc.a(lib_a-fvwrite.o) (memchr)
/home/xy/.espressif/tools/riscv32-esp-elf/esp-2021r1-8.4.0/riscv32-esp-elf/bin/../lib/gcc/riscv32-esp-elf/8.4.0/../../../../riscv32-esp-elf/lib/rv32im/ilp32\libc.a(lib_a-memcmp.o)
                              esp-idf/vfs/libvfs.a(vfs.c.obj) (memcmp)
/home/xy/.espressif/tools/riscv32-esp-elf/esp-2021r1-8.4.0/riscv32-esp-elf/bin/../lib/gcc/riscv32-esp-elf/8.4.0/../../../../riscv32-esp-elf/lib/rv32im/ilp32\libc.a(lib_a-memcpy.o)
                              esp-idf/vfs/libvfs.a(vfs.c.obj) (memcpy)
/home/xy/.espressif/tools/riscv32-esp-elf/esp-2021r1-8.4.0/riscv32-esp-elf/bin/../lib/gcc/riscv32-esp-elf/8.4.0/../../../../riscv32-esp-elf/lib/rv32im/ilp32\libc.a(lib_a-memmove-stub.o)
                              /home/xy/.espressif/tools/riscv32-esp-elf/esp-2021r1-8.4.0/riscv32-esp-elf/bin/../lib/gcc/riscv32-esp-elf/8.4.0/../../../../riscv32-esp-elf/lib/rv32im/ilp32\libc.a(lib_a-fvwrite.o) (memmove)
/home/xy/.espressif/tools/riscv32-esp-elf/esp-2021r1-8.4.0/riscv32-esp-elf/bin/../lib/gcc/riscv32-esp-elf/8.4.0/../../../../riscv32-esp-elf/lib/rv32im/ilp32\libc.a(lib_a-memset.o)
                              esp-idf/pthread/libpthread.a(pthread.c.obj) (memset)
/home/xy/.espressif/tools/riscv32-esp-elf/esp-2021r1-8.4.0/riscv32-esp-elf/bin/../lib/gcc/riscv32-esp-elf/8.4.0/../../../../riscv32-esp-elf/lib/rv32im/ilp32\libc.a(lib_a-month_lengths.o)
                              /home/xy/.espressif/tools/riscv32-esp-elf/esp-2021r1-8.4.0/riscv32-esp-elf/bin/../lib/gcc/riscv32-esp-elf/8.4.0/../../../../riscv32-esp-elf/lib/rv32im/ilp32\libc.a(lib_a-lcltime_r.o) (__month_lengths)
/home/xy/.espressif/tools/riscv32-esp-elf/esp-2021r1-8.4.0/riscv32-esp-elf/bin/../lib/gcc/riscv32-esp-elf/8.4.0/../../../../riscv32-esp-elf/lib/rv32im/ilp32\libc.a(lib_a-printf.o)
                              esp-idf/heap/libheap.a(heap_caps.c.obj) (printf)
/home/xy/.espressif/tools/riscv32-esp-elf/esp-2021r1-8.4.0/riscv32-esp-elf/bin/../lib/gcc/riscv32-esp-elf/8.4.0/../../../../riscv32-esp-elf/lib/rv32im/ilp32\libc.a(lib_a-puts.o)
                              esp-idf/heap/libheap.a(heap_caps.c.obj) (puts)
/home/xy/.espressif/tools/riscv32-esp-elf/esp-2021r1-8.4.0/riscv32-esp-elf/bin/../lib/gcc/riscv32-esp-elf/8.4.0/../../../../riscv32-esp-elf/lib/rv32im/ilp32\libc.a(lib_a-qsort.o)
                              esp-idf/heap/libheap.a(memory_layout_utils.c.obj) (qsort)
/home/xy/.espressif/tools/riscv32-esp-elf/esp-2021r1-8.4.0/riscv32-esp-elf/bin/../lib/gcc/riscv32-esp-elf/8.4.0/../../../../riscv32-esp-elf/lib/rv32im/ilp32\libc.a(lib_a-reent.o)
                              esp-idf/freertos/libfreertos.a(tasks.c.obj) (_reclaim_reent)
/home/xy/.espressif/tools/riscv32-esp-elf/esp-2021r1-8.4.0/riscv32-esp-elf/bin/../lib/gcc/riscv32-esp-elf/8.4.0/../../../../riscv32-esp-elf/lib/rv32im/ilp32\libc.a(lib_a-refill.o)
                              /home/xy/.espressif/tools/riscv32-esp-elf/esp-2021r1-8.4.0/riscv32-esp-elf/bin/../lib/gcc/riscv32-esp-elf/8.4.0/../../../../riscv32-esp-elf/lib/rv32im/ilp32\libc.a(lib_a-fseeko.o) (__srefill_r)
/home/xy/.espressif/tools/riscv32-esp-elf/esp-2021r1-8.4.0/riscv32-esp-elf/bin/../lib/gcc/riscv32-esp-elf/8.4.0/../../../../riscv32-esp-elf/lib/rv32im/ilp32\libc.a(lib_a-snprintf.o)
                              esp-idf/log/liblog.a(log_freertos.c.obj) (snprintf)
/home/xy/.espressif/tools/riscv32-esp-elf/esp-2021r1-8.4.0/riscv32-esp-elf/bin/../lib/gcc/riscv32-esp-elf/8.4.0/../../../../riscv32-esp-elf/lib/rv32im/ilp32\libc.a(lib_a-stdio.o)
                              /home/xy/.espressif/tools/riscv32-esp-elf/esp-2021r1-8.4.0/riscv32-esp-elf/bin/../lib/gcc/riscv32-esp-elf/8.4.0/../../../../riscv32-esp-elf/lib/rv32im/ilp32\libc.a(lib_a-findfp.o) (__sread)
/home/xy/.espressif/tools/riscv32-esp-elf/esp-2021r1-8.4.0/riscv32-esp-elf/bin/../lib/gcc/riscv32-esp-elf/8.4.0/../../../../riscv32-esp-elf/lib/rv32im/ilp32\libc.a(lib_a-strcat.o)
                              esp-idf/freertos/libfreertos.a(port.c.obj) (strcat)
/home/xy/.espressif/tools/riscv32-esp-elf/esp-2021r1-8.4.0/riscv32-esp-elf/bin/../lib/gcc/riscv32-esp-elf/8.4.0/../../../../riscv32-esp-elf/lib/rv32im/ilp32\libc.a(lib_a-strcmp.o)
                              esp-idf/vfs/libvfs.a(vfs_uart.c.obj) (strcmp)
/home/xy/.espressif/tools/riscv32-esp-elf/esp-2021r1-8.4.0/riscv32-esp-elf/bin/../lib/gcc/riscv32-esp-elf/8.4.0/../../../../riscv32-esp-elf/lib/rv32im/ilp32\libc.a(lib_a-strcpy.o)
                              esp-idf/vfs/libvfs.a(vfs.c.obj) (strcpy)
/home/xy/.espressif/tools/riscv32-esp-elf/esp-2021r1-8.4.0/riscv32-esp-elf/bin/../lib/gcc/riscv32-esp-elf/8.4.0/../../../../riscv32-esp-elf/lib/rv32im/ilp32\libc.a(lib_a-strcspn.o)
                              esp-idf/bootloader_support/libbootloader_support.a(bootloader_common.c.obj) (strcspn)
/home/xy/.espressif/tools/riscv32-esp-elf/esp-2021r1-8.4.0/riscv32-esp-elf/bin/../lib/gcc/riscv32-esp-elf/8.4.0/../../../../riscv32-esp-elf/lib/rv32im/ilp32\libc.a(lib_a-strerror_r.o)
                              esp-idf/esp_common/libesp_common.a(esp_err_to_name.c.obj) (strerror_r)
/home/xy/.espressif/tools/riscv32-esp-elf/esp-2021r1-8.4.0/riscv32-esp-elf/bin/../lib/gcc/riscv32-esp-elf/8.4.0/../../../../riscv32-esp-elf/lib/rv32im/ilp32\libc.a(lib_a-strlcat.o)
                              esp-idf/esp_system/libesp_system.a(ubsan.c.obj) (strlcat)
/home/xy/.espressif/tools/riscv32-esp-elf/esp-2021r1-8.4.0/riscv32-esp-elf/bin/../lib/gcc/riscv32-esp-elf/8.4.0/../../../../riscv32-esp-elf/lib/rv32im/ilp32\libc.a(lib_a-strlcpy.o)
                              esp-idf/spi_flash/libspi_flash.a(partition.c.obj) (strlcpy)
/home/xy/.espressif/tools/riscv32-esp-elf/esp-2021r1-8.4.0/riscv32-esp-elf/bin/../lib/gcc/riscv32-esp-elf/8.4.0/../../../../riscv32-esp-elf/lib/rv32im/ilp32\libc.a(lib_a-strlen.o)
                              esp-idf/vfs/libvfs.a(vfs.c.obj) (strlen)
/home/xy/.espressif/tools/riscv32-esp-elf/esp-2021r1-8.4.0/riscv32-esp-elf/bin/../lib/gcc/riscv32-esp-elf/8.4.0/../../../../riscv32-esp-elf/lib/rv32im/ilp32\libc.a(lib_a-strncmp.o)
                              esp-idf/vfs/libvfs.a(vfs.c.obj) (strncmp)
/home/xy/.espressif/tools/riscv32-esp-elf/esp-2021r1-8.4.0/riscv32-esp-elf/bin/../lib/gcc/riscv32-esp-elf/8.4.0/../../../../riscv32-esp-elf/lib/rv32im/ilp32\libc.a(lib_a-strncpy.o)
                              esp-idf/spi_flash/libspi_flash.a(partition.c.obj) (strncpy)
/home/xy/.espressif/tools/riscv32-esp-elf/esp-2021r1-8.4.0/riscv32-esp-elf/bin/../lib/gcc/riscv32-esp-elf/8.4.0/../../../../riscv32-esp-elf/lib/rv32im/ilp32\libc.a(lib_a-strstr.o)
                              esp-idf/bootloader_support/libbootloader_support.a(bootloader_common.c.obj) (strstr)
/home/xy/.espressif/tools/riscv32-esp-elf/esp-2021r1-8.4.0/riscv32-esp-elf/bin/../lib/gcc/riscv32-esp-elf/8.4.0/../../../../riscv32-esp-elf/lib/rv32im/ilp32\libc.a(lib_a-svfprintf.o)
                              /home/xy/.espressif/tools/riscv32-esp-elf/esp-2021r1-8.4.0/riscv32-esp-elf/bin/../lib/gcc/riscv32-esp-elf/8.4.0/../../../../riscv32-esp-elf/lib/rv32im/ilp32\libc.a(lib_a-snprintf.o) (_svfprintf_r)
/home/xy/.espressif/tools/riscv32-esp-elf/esp-2021r1-8.4.0/riscv32-esp-elf/bin/../lib/gcc/riscv32-esp-elf/8.4.0/../../../../riscv32-esp-elf/lib/rv32im/ilp32\libc.a(lib_a-sysgettod.o)
                              esp-idf/log/liblog.a(log_freertos.c.obj) (gettimeofday)
/home/xy/.espressif/tools/riscv32-esp-elf/esp-2021r1-8.4.0/riscv32-esp-elf/bin/../lib/gcc/riscv32-esp-elf/8.4.0/../../../../riscv32-esp-elf/lib/rv32im/ilp32\libc.a(lib_a-tzcalc_limits.o)
                              /home/xy/.espressif/tools/riscv32-esp-elf/esp-2021r1-8.4.0/riscv32-esp-elf/bin/../lib/gcc/riscv32-esp-elf/8.4.0/../../../../riscv32-esp-elf/lib/rv32im/ilp32\libc.a(lib_a-lcltime_r.o) (__tzcalc_limits)
/home/xy/.espressif/tools/riscv32-esp-elf/esp-2021r1-8.4.0/riscv32-esp-elf/bin/../lib/gcc/riscv32-esp-elf/8.4.0/../../../../riscv32-esp-elf/lib/rv32im/ilp32\libc.a(lib_a-tzlock.o)
                              /home/xy/.espressif/tools/riscv32-esp-elf/esp-2021r1-8.4.0/riscv32-esp-elf/bin/../lib/gcc/riscv32-esp-elf/8.4.0/../../../../riscv32-esp-elf/lib/rv32im/ilp32\libc.a(lib_a-lcltime_r.o) (__tz_lock)
/home/xy/.espressif/tools/riscv32-esp-elf/esp-2021r1-8.4.0/riscv32-esp-elf/bin/../lib/gcc/riscv32-esp-elf/8.4.0/../../../../riscv32-esp-elf/lib/rv32im/ilp32\libc.a(lib_a-tzset.o)
                              /home/xy/.espressif/tools/riscv32-esp-elf/esp-2021r1-8.4.0/riscv32-esp-elf/bin/../lib/gcc/riscv32-esp-elf/8.4.0/../../../../riscv32-esp-elf/lib/rv32im/ilp32\libc.a(lib_a-lcltime_r.o) (_tzset_unlocked)
/home/xy/.espressif/tools/riscv32-esp-elf/esp-2021r1-8.4.0/riscv32-esp-elf/bin/../lib/gcc/riscv32-esp-elf/8.4.0/../../../../riscv32-esp-elf/lib/rv32im/ilp32\libc.a(lib_a-tzset_r.o)
                              /home/xy/.espressif/tools/riscv32-esp-elf/esp-2021r1-8.4.0/riscv32-esp-elf/bin/../lib/gcc/riscv32-esp-elf/8.4.0/../../../../riscv32-esp-elf/lib/rv32im/ilp32\libc.a(lib_a-tzset.o) (_tzset_unlocked_r)
/home/xy/.espressif/tools/riscv32-esp-elf/esp-2021r1-8.4.0/riscv32-esp-elf/bin/../lib/gcc/riscv32-esp-elf/8.4.0/../../../../riscv32-esp-elf/lib/rv32im/ilp32\libc.a(lib_a-tzvars.o)
                              /home/xy/.espressif/tools/riscv32-esp-elf/esp-2021r1-8.4.0/riscv32-esp-elf/bin/../lib/gcc/riscv32-esp-elf/8.4.0/../../../../riscv32-esp-elf/lib/rv32im/ilp32\libc.a(lib_a-tzset_r.o) (_timezone)
/home/xy/.espressif/tools/riscv32-esp-elf/esp-2021r1-8.4.0/riscv32-esp-elf/bin/../lib/gcc/riscv32-esp-elf/8.4.0/../../../../riscv32-esp-elf/lib/rv32im/ilp32\libc.a(lib_a-utoa.o)
                              /home/xy/.espressif/tools/riscv32-esp-elf/esp-2021r1-8.4.0/riscv32-esp-elf/bin/../lib/gcc/riscv32-esp-elf/8.4.0/../../../../riscv32-esp-elf/lib/rv32im/ilp32\libc.a(lib_a-itoa.o) (__utoa)
/home/xy/.espressif/tools/riscv32-esp-elf/esp-2021r1-8.4.0/riscv32-esp-elf/bin/../lib/gcc/riscv32-esp-elf/8.4.0/../../../../riscv32-esp-elf/lib/rv32im/ilp32\libc.a(lib_a-vfiprintf.o)
                              /home/xy/.espressif/tools/riscv32-esp-elf/esp-2021r1-8.4.0/riscv32-esp-elf/bin/../lib/gcc/riscv32-esp-elf/8.4.0/../../../../riscv32-esp-elf/lib/rv32im/ilp32\libc.a(lib_a-fiprintf.o) (_vfiprintf_r)
/home/xy/.espressif/tools/riscv32-esp-elf/esp-2021r1-8.4.0/riscv32-esp-elf/bin/../lib/gcc/riscv32-esp-elf/8.4.0/../../../../riscv32-esp-elf/lib/rv32im/ilp32\libc.a(lib_a-vfprintf.o)
                              /home/xy/.espressif/tools/riscv32-esp-elf/esp-2021r1-8.4.0/riscv32-esp-elf/bin/../lib/gcc/riscv32-esp-elf/8.4.0/../../../../riscv32-esp-elf/lib/rv32im/ilp32\libc.a(lib_a-fprintf.o) (_vfprintf_r)
/home/xy/.espressif/tools/riscv32-esp-elf/esp-2021r1-8.4.0/riscv32-esp-elf/bin/../lib/gcc/riscv32-esp-elf/8.4.0/../../../../riscv32-esp-elf/lib/rv32im/ilp32\libc.a(lib_a-vprintf.o)
                              esp-idf/log/liblog.a(log.c.obj) (vprintf)
/home/xy/.espressif/tools/riscv32-esp-elf/esp-2021r1-8.4.0/riscv32-esp-elf/bin/../lib/gcc/riscv32-esp-elf/8.4.0/../../../../riscv32-esp-elf/lib/rv32im/ilp32\libc.a(lib_a-wsetup.o)
                              /home/xy/.espressif/tools/riscv32-esp-elf/esp-2021r1-8.4.0/riscv32-esp-elf/bin/../lib/gcc/riscv32-esp-elf/8.4.0/../../../../riscv32-esp-elf/lib/rv32im/ilp32\libc.a(lib_a-fvwrite.o) (__swsetup_r)
/home/xy/.espressif/tools/riscv32-esp-elf/esp-2021r1-8.4.0/riscv32-esp-elf/bin/../lib/gcc/riscv32-esp-elf/8.4.0/../../../../riscv32-esp-elf/lib/rv32im/ilp32\libc.a(lib_a-dtoa.o)
                              /home/xy/.espressif/tools/riscv32-esp-elf/esp-2021r1-8.4.0/riscv32-esp-elf/bin/../lib/gcc/riscv32-esp-elf/8.4.0/../../../../riscv32-esp-elf/lib/rv32im/ilp32\libc.a(lib_a-svfprintf.o) (_dtoa_r)
/home/xy/.espressif/tools/riscv32-esp-elf/esp-2021r1-8.4.0/riscv32-esp-elf/bin/../lib/gcc/riscv32-esp-elf/8.4.0/../../../../riscv32-esp-elf/lib/rv32im/ilp32\libc.a(lib_a-fclose.o)
                              /home/xy/.espressif/tools/riscv32-esp-elf/esp-2021r1-8.4.0/riscv32-esp-elf/bin/../lib/gcc/riscv32-esp-elf/8.4.0/../../../../riscv32-esp-elf/lib/rv32im/ilp32\libc.a(lib_a-findfp.o) (_fclose_r)
/home/xy/.espressif/tools/riscv32-esp-elf/esp-2021r1-8.4.0/riscv32-esp-elf/bin/../lib/gcc/riscv32-esp-elf/8.4.0/../../../../riscv32-esp-elf/lib/rv32im/ilp32\libc.a(lib_a-flags.o)
                              /home/xy/.espressif/tools/riscv32-esp-elf/esp-2021r1-8.4.0/riscv32-esp-elf/bin/../lib/gcc/riscv32-esp-elf/8.4.0/../../../../riscv32-esp-elf/lib/rv32im/ilp32\libc.a(lib_a-fopen.o) (__sflags)
/home/xy/.espressif/tools/riscv32-esp-elf/esp-2021r1-8.4.0/riscv32-esp-elf/bin/../lib/gcc/riscv32-esp-elf/8.4.0/../../../../riscv32-esp-elf/lib/rv32im/ilp32\libc.a(lib_a-getenv_r.o)
                              /home/xy/.espressif/tools/riscv32-esp-elf/esp-2021r1-8.4.0/riscv32-esp-elf/bin/../lib/gcc/riscv32-esp-elf/8.4.0/../../../../riscv32-esp-elf/lib/rv32im/ilp32\libc.a(lib_a-tzset_r.o) (_getenv_r)
/home/xy/.espressif/tools/riscv32-esp-elf/esp-2021r1-8.4.0/riscv32-esp-elf/bin/../lib/gcc/riscv32-esp-elf/8.4.0/../../../../riscv32-esp-elf/lib/rv32im/ilp32\libc.a(lib_a-gettzinfo.o)
                              /home/xy/.espressif/tools/riscv32-esp-elf/esp-2021r1-8.4.0/riscv32-esp-elf/bin/../lib/gcc/riscv32-esp-elf/8.4.0/../../../../riscv32-esp-elf/lib/rv32im/ilp32\libc.a(lib_a-lcltime_r.o) (__gettzinfo)
/home/xy/.espressif/tools/riscv32-esp-elf/esp-2021r1-8.4.0/riscv32-esp-elf/bin/../lib/gcc/riscv32-esp-elf/8.4.0/../../../../riscv32-esp-elf/lib/rv32im/ilp32\libc.a(lib_a-gmtime_r.o)
                              /home/xy/.espressif/tools/riscv32-esp-elf/esp-2021r1-8.4.0/riscv32-esp-elf/bin/../lib/gcc/riscv32-esp-elf/8.4.0/../../../../riscv32-esp-elf/lib/rv32im/ilp32\libc.a(lib_a-lcltime_r.o) (gmtime_r)
/home/xy/.espressif/tools/riscv32-esp-elf/esp-2021r1-8.4.0/riscv32-esp-elf/bin/../lib/gcc/riscv32-esp-elf/8.4.0/../../../../riscv32-esp-elf/lib/rv32im/ilp32\libc.a(lib_a-localeconv.o)
                              /home/xy/.espressif/tools/riscv32-esp-elf/esp-2021r1-8.4.0/riscv32-esp-elf/bin/../lib/gcc/riscv32-esp-elf/8.4.0/../../../../riscv32-esp-elf/lib/rv32im/ilp32\libc.a(lib_a-svfprintf.o) (_localeconv_r)
/home/xy/.espressif/tools/riscv32-esp-elf/esp-2021r1-8.4.0/riscv32-esp-elf/bin/../lib/gcc/riscv32-esp-elf/8.4.0/../../../../riscv32-esp-elf/lib/rv32im/ilp32\libc.a(lib_a-mprec.o)
                              /home/xy/.espressif/tools/riscv32-esp-elf/esp-2021r1-8.4.0/riscv32-esp-elf/bin/../lib/gcc/riscv32-esp-elf/8.4.0/../../../../riscv32-esp-elf/lib/rv32im/ilp32\libc.a(lib_a-dtoa.o) (_Balloc)
/home/xy/.espressif/tools/riscv32-esp-elf/esp-2021r1-8.4.0/riscv32-esp-elf/bin/../lib/gcc/riscv32-esp-elf/8.4.0/../../../../riscv32-esp-elf/lib/rv32im/ilp32\libc.a(lib_a-s_frexp.o)
                              /home/xy/.espressif/tools/riscv32-esp-elf/esp-2021r1-8.4.0/riscv32-esp-elf/bin/../lib/gcc/riscv32-esp-elf/8.4.0/../../../../riscv32-esp-elf/lib/rv32im/ilp32\libc.a(lib_a-svfprintf.o) (frexp)
/home/xy/.espressif/tools/riscv32-esp-elf/esp-2021r1-8.4.0/riscv32-esp-elf/bin/../lib/gcc/riscv32-esp-elf/8.4.0/../../../../riscv32-esp-elf/lib/rv32im/ilp32\libc.a(lib_a-siscanf.o)
                              /home/xy/.espressif/tools/riscv32-esp-elf/esp-2021r1-8.4.0/riscv32-esp-elf/bin/../lib/gcc/riscv32-esp-elf/8.4.0/../../../../riscv32-esp-elf/lib/rv32im/ilp32\libc.a(lib_a-tzset_r.o) (siscanf)
/home/xy/.espressif/tools/riscv32-esp-elf/esp-2021r1-8.4.0/riscv32-esp-elf/bin/../lib/gcc/riscv32-esp-elf/8.4.0/../../../../riscv32-esp-elf/lib/rv32im/ilp32\libc.a(lib_a-strerror.o)
                              /home/xy/.espressif/tools/riscv32-esp-elf/esp-2021r1-8.4.0/riscv32-esp-elf/bin/../lib/gcc/riscv32-esp-elf/8.4.0/../../../../riscv32-esp-elf/lib/rv32im/ilp32\libc.a(lib_a-strerror_r.o) (_strerror_r)
/home/xy/.espressif/tools/riscv32-esp-elf/esp-2021r1-8.4.0/riscv32-esp-elf/bin/../lib/gcc/riscv32-esp-elf/8.4.0/../../../../riscv32-esp-elf/lib/rv32im/ilp32\libc.a(lib_a-strtoul.o)
                              /home/xy/.espressif/tools/riscv32-esp-elf/esp-2021r1-8.4.0/riscv32-esp-elf/bin/../lib/gcc/riscv32-esp-elf/8.4.0/../../../../riscv32-esp-elf/lib/rv32im/ilp32\libc.a(lib_a-tzset_r.o) (strtoul)
/home/xy/.espressif/tools/riscv32-esp-elf/esp-2021r1-8.4.0/riscv32-esp-elf/bin/../lib/gcc/riscv32-esp-elf/8.4.0/../../../../riscv32-esp-elf/lib/rv32im/ilp32\libc.a(lib_a-svfiprintf.o)
                              /home/xy/.espressif/tools/riscv32-esp-elf/esp-2021r1-8.4.0/riscv32-esp-elf/bin/../lib/gcc/riscv32-esp-elf/8.4.0/../../../../riscv32-esp-elf/lib/rv32im/ilp32\libc.a(lib_a-svfprintf.o) (__ssprint_r)
/home/xy/.espressif/tools/riscv32-esp-elf/esp-2021r1-8.4.0/riscv32-esp-elf/bin/../lib/gcc/riscv32-esp-elf/8.4.0/../../../../riscv32-esp-elf/lib/rv32im/ilp32\libc.a(lib_a-svfiscanf.o)
                              /home/xy/.espressif/tools/riscv32-esp-elf/esp-2021r1-8.4.0/riscv32-esp-elf/bin/../lib/gcc/riscv32-esp-elf/8.4.0/../../../../riscv32-esp-elf/lib/rv32im/ilp32\libc.a(lib_a-siscanf.o) (__ssvfiscanf_r)
/home/xy/.espressif/tools/riscv32-esp-elf/esp-2021r1-8.4.0/riscv32-esp-elf/bin/../lib/gcc/riscv32-esp-elf/8.4.0/../../../../riscv32-esp-elf/lib/rv32im/ilp32\libc.a(lib_a-u_strerr.o)
                              /home/xy/.espressif/tools/riscv32-esp-elf/esp-2021r1-8.4.0/riscv32-esp-elf/bin/../lib/gcc/riscv32-esp-elf/8.4.0/../../../../riscv32-esp-elf/lib/rv32im/ilp32\libc.a(lib_a-strerror.o) (_user_strerror)
/home/xy/.espressif/tools/riscv32-esp-elf/esp-2021r1-8.4.0/riscv32-esp-elf/bin/../lib/gcc/riscv32-esp-elf/8.4.0/../../../../riscv32-esp-elf/lib/rv32im/ilp32\libc.a(lib_a-ungetc.o)
                              /home/xy/.espressif/tools/riscv32-esp-elf/esp-2021r1-8.4.0/riscv32-esp-elf/bin/../lib/gcc/riscv32-esp-elf/8.4.0/../../../../riscv32-esp-elf/lib/rv32im/ilp32\libc.a(lib_a-svfiscanf.o) (__submore)
/home/xy/.espressif/tools/riscv32-esp-elf/esp-2021r1-8.4.0/riscv32-esp-elf/bin/../lib/gcc/riscv32-esp-elf/8.4.0/../../../../riscv32-esp-elf/lib/rv32im/ilp32\libc.a(lib_a-ctype_.o)
                              /home/xy/.espressif/tools/riscv32-esp-elf/esp-2021r1-8.4.0/riscv32-esp-elf/bin/../lib/gcc/riscv32-esp-elf/8.4.0/../../../../riscv32-esp-elf/lib/rv32im/ilp32\libc.a(lib_a-strtoul.o) (_ctype_)
/home/xy/.espressif/tools/riscv32-esp-elf/esp-2021r1-8.4.0/riscv32-esp-elf/bin/../lib/gcc/riscv32-esp-elf/8.4.0/../../../../riscv32-esp-elf/lib/rv32im/ilp32\libc.a(lib_a-envlock.o)
                              /home/xy/.espressif/tools/riscv32-esp-elf/esp-2021r1-8.4.0/riscv32-esp-elf/bin/../lib/gcc/riscv32-esp-elf/8.4.0/../../../../riscv32-esp-elf/lib/rv32im/ilp32\libc.a(lib_a-getenv_r.o) (__env_lock)
/home/xy/.espressif/tools/riscv32-esp-elf/esp-2021r1-8.4.0/riscv32-esp-elf/bin/../lib/gcc/riscv32-esp-elf/8.4.0/../../../../riscv32-esp-elf/lib/rv32im/ilp32\libc.a(lib_a-iswspace.o)
                              /home/xy/.espressif/tools/riscv32-esp-elf/esp-2021r1-8.4.0/riscv32-esp-elf/bin/../lib/gcc/riscv32-esp-elf/8.4.0/../../../../riscv32-esp-elf/lib/rv32im/ilp32\libc.a(lib_a-svfiscanf.o) (iswspace)
/home/xy/.espressif/tools/riscv32-esp-elf/esp-2021r1-8.4.0/riscv32-esp-elf/bin/../lib/gcc/riscv32-esp-elf/8.4.0/../../../../riscv32-esp-elf/lib/rv32im/ilp32\libc.a(lib_a-iswspace_l.o)
                              /home/xy/.espressif/tools/riscv32-esp-elf/esp-2021r1-8.4.0/riscv32-esp-elf/bin/../lib/gcc/riscv32-esp-elf/8.4.0/../../../../riscv32-esp-elf/lib/rv32im/ilp32\libc.a(lib_a-iswspace.o) (iswspace_l)
/home/xy/.espressif/tools/riscv32-esp-elf/esp-2021r1-8.4.0/riscv32-esp-elf/bin/../lib/gcc/riscv32-esp-elf/8.4.0/../../../../riscv32-esp-elf/lib/rv32im/ilp32\libc.a(lib_a-locale.o)
                              /home/xy/.espressif/tools/riscv32-esp-elf/esp-2021r1-8.4.0/riscv32-esp-elf/bin/../lib/gcc/riscv32-esp-elf/8.4.0/../../../../riscv32-esp-elf/lib/rv32im/ilp32\libc.a(lib_a-svfiscanf.o) (__locale_mb_cur_max)
/home/xy/.espressif/tools/riscv32-esp-elf/esp-2021r1-8.4.0/riscv32-esp-elf/bin/../lib/gcc/riscv32-esp-elf/8.4.0/../../../../riscv32-esp-elf/lib/rv32im/ilp32\libc.a(lib_a-mbrtowc.o)
                              /home/xy/.espressif/tools/riscv32-esp-elf/esp-2021r1-8.4.0/riscv32-esp-elf/bin/../lib/gcc/riscv32-esp-elf/8.4.0/../../../../riscv32-esp-elf/lib/rv32im/ilp32\libc.a(lib_a-svfiscanf.o) (_mbrtowc_r)
/home/xy/.espressif/tools/riscv32-esp-elf/esp-2021r1-8.4.0/riscv32-esp-elf/bin/../lib/gcc/riscv32-esp-elf/8.4.0/../../../../riscv32-esp-elf/lib/rv32im/ilp32\libc.a(lib_a-mbtowc_r.o)
                              /home/xy/.espressif/tools/riscv32-esp-elf/esp-2021r1-8.4.0/riscv32-esp-elf/bin/../lib/gcc/riscv32-esp-elf/8.4.0/../../../../riscv32-esp-elf/lib/rv32im/ilp32\libc.a(lib_a-locale.o) (__ascii_mbtowc)
/home/xy/.espressif/tools/riscv32-esp-elf/esp-2021r1-8.4.0/riscv32-esp-elf/bin/../lib/gcc/riscv32-esp-elf/8.4.0/../../../../riscv32-esp-elf/lib/rv32im/ilp32\libc.a(lib_a-sccl.o)
                              /home/xy/.espressif/tools/riscv32-esp-elf/esp-2021r1-8.4.0/riscv32-esp-elf/bin/../lib/gcc/riscv32-esp-elf/8.4.0/../../../../riscv32-esp-elf/lib/rv32im/ilp32\libc.a(lib_a-svfiscanf.o) (__sccl)
/home/xy/.espressif/tools/riscv32-esp-elf/esp-2021r1-8.4.0/riscv32-esp-elf/bin/../lib/gcc/riscv32-esp-elf/8.4.0/../../../../riscv32-esp-elf/lib/rv32im/ilp32\libc.a(lib_a-strtol.o)
                              /home/xy/.espressif/tools/riscv32-esp-elf/esp-2021r1-8.4.0/riscv32-esp-elf/bin/../lib/gcc/riscv32-esp-elf/8.4.0/../../../../riscv32-esp-elf/lib/rv32im/ilp32\libc.a(lib_a-svfiscanf.o) (_strtol_r)
/home/xy/.espressif/tools/riscv32-esp-elf/esp-2021r1-8.4.0/riscv32-esp-elf/bin/../lib/gcc/riscv32-esp-elf/8.4.0/../../../../riscv32-esp-elf/lib/rv32im/ilp32\libc.a(lib_a-strtoll.o)
                              /home/xy/.espressif/tools/riscv32-esp-elf/esp-2021r1-8.4.0/riscv32-esp-elf/bin/../lib/gcc/riscv32-esp-elf/8.4.0/../../../../riscv32-esp-elf/lib/rv32im/ilp32\libc.a(lib_a-svfiscanf.o) (_strtoll_r)
/home/xy/.espressif/tools/riscv32-esp-elf/esp-2021r1-8.4.0/riscv32-esp-elf/bin/../lib/gcc/riscv32-esp-elf/8.4.0/../../../../riscv32-esp-elf/lib/rv32im/ilp32\libc.a(lib_a-strtoull.o)
                              /home/xy/.espressif/tools/riscv32-esp-elf/esp-2021r1-8.4.0/riscv32-esp-elf/bin/../lib/gcc/riscv32-esp-elf/8.4.0/../../../../riscv32-esp-elf/lib/rv32im/ilp32\libc.a(lib_a-svfiscanf.o) (_strtoull_r)
/home/xy/.espressif/tools/riscv32-esp-elf/esp-2021r1-8.4.0/riscv32-esp-elf/bin/../lib/gcc/riscv32-esp-elf/8.4.0/../../../../riscv32-esp-elf/lib/rv32im/ilp32\libc.a(lib_a-wctomb_r.o)
                              /home/xy/.espressif/tools/riscv32-esp-elf/esp-2021r1-8.4.0/riscv32-esp-elf/bin/../lib/gcc/riscv32-esp-elf/8.4.0/../../../../riscv32-esp-elf/lib/rv32im/ilp32\libc.a(lib_a-locale.o) (__ascii_wctomb)
/home/xy/.espressif/tools/riscv32-esp-elf/esp-2021r1-8.4.0/riscv32-esp-elf/bin/../lib/gcc/riscv32-esp-elf/8.4.0/rv32im/ilp32\libgcc.a(adddf3.o)
                              /home/xy/.espressif/tools/riscv32-esp-elf/esp-2021r1-8.4.0/riscv32-esp-elf/bin/../lib/gcc/riscv32-esp-elf/8.4.0/../../../../riscv32-esp-elf/lib/rv32im/ilp32\libc.a(lib_a-dtoa.o) (__adddf3)
/home/xy/.espressif/tools/riscv32-esp-elf/esp-2021r1-8.4.0/riscv32-esp-elf/bin/../lib/gcc/riscv32-esp-elf/8.4.0/rv32im/ilp32\libgcc.a(divdf3.o)
                              /home/xy/.espressif/tools/riscv32-esp-elf/esp-2021r1-8.4.0/riscv32-esp-elf/bin/../lib/gcc/riscv32-esp-elf/8.4.0/../../../../riscv32-esp-elf/lib/rv32im/ilp32\libc.a(lib_a-dtoa.o) (__divdf3)
/home/xy/.espressif/tools/riscv32-esp-elf/esp-2021r1-8.4.0/riscv32-esp-elf/bin/../lib/gcc/riscv32-esp-elf/8.4.0/rv32im/ilp32\libgcc.a(eqdf2.o)
                              /home/xy/.espressif/tools/riscv32-esp-elf/esp-2021r1-8.4.0/riscv32-esp-elf/bin/../lib/gcc/riscv32-esp-elf/8.4.0/../../../../riscv32-esp-elf/lib/rv32im/ilp32\libc.a(lib_a-svfprintf.o) (__eqdf2)
/home/xy/.espressif/tools/riscv32-esp-elf/esp-2021r1-8.4.0/riscv32-esp-elf/bin/../lib/gcc/riscv32-esp-elf/8.4.0/rv32im/ilp32\libgcc.a(gedf2.o)
                              /home/xy/.espressif/tools/riscv32-esp-elf/esp-2021r1-8.4.0/riscv32-esp-elf/bin/../lib/gcc/riscv32-esp-elf/8.4.0/../../../../riscv32-esp-elf/lib/rv32im/ilp32\libc.a(lib_a-dtoa.o) (__gedf2)
/home/xy/.espressif/tools/riscv32-esp-elf/esp-2021r1-8.4.0/riscv32-esp-elf/bin/../lib/gcc/riscv32-esp-elf/8.4.0/rv32im/ilp32\libgcc.a(ledf2.o)
                              /home/xy/.espressif/tools/riscv32-esp-elf/esp-2021r1-8.4.0/riscv32-esp-elf/bin/../lib/gcc/riscv32-esp-elf/8.4.0/../../../../riscv32-esp-elf/lib/rv32im/ilp32\libc.a(lib_a-svfprintf.o) (__ledf2)
/home/xy/.espressif/tools/riscv32-esp-elf/esp-2021r1-8.4.0/riscv32-esp-elf/bin/../lib/gcc/riscv32-esp-elf/8.4.0/rv32im/ilp32\libgcc.a(muldf3.o)
                              /home/xy/.espressif/tools/riscv32-esp-elf/esp-2021r1-8.4.0/riscv32-esp-elf/bin/../lib/gcc/riscv32-esp-elf/8.4.0/../../../../riscv32-esp-elf/lib/rv32im/ilp32\libc.a(lib_a-svfprintf.o) (__muldf3)
/home/xy/.espressif/tools/riscv32-esp-elf/esp-2021r1-8.4.0/riscv32-esp-elf/bin/../lib/gcc/riscv32-esp-elf/8.4.0/rv32im/ilp32\libgcc.a(subdf3.o)
                              /home/xy/.espressif/tools/riscv32-esp-elf/esp-2021r1-8.4.0/riscv32-esp-elf/bin/../lib/gcc/riscv32-esp-elf/8.4.0/../../../../riscv32-esp-elf/lib/rv32im/ilp32\libc.a(lib_a-svfprintf.o) (__subdf3)
/home/xy/.espressif/tools/riscv32-esp-elf/esp-2021r1-8.4.0/riscv32-esp-elf/bin/../lib/gcc/riscv32-esp-elf/8.4.0/rv32im/ilp32\libgcc.a(unorddf2.o)
                              /home/xy/.espressif/tools/riscv32-esp-elf/esp-2021r1-8.4.0/riscv32-esp-elf/bin/../lib/gcc/riscv32-esp-elf/8.4.0/../../../../riscv32-esp-elf/lib/rv32im/ilp32\libc.a(lib_a-svfprintf.o) (__unorddf2)
/home/xy/.espressif/tools/riscv32-esp-elf/esp-2021r1-8.4.0/riscv32-esp-elf/bin/../lib/gcc/riscv32-esp-elf/8.4.0/rv32im/ilp32\libgcc.a(fixdfsi.o)
                              /home/xy/.espressif/tools/riscv32-esp-elf/esp-2021r1-8.4.0/riscv32-esp-elf/bin/../lib/gcc/riscv32-esp-elf/8.4.0/../../../../riscv32-esp-elf/lib/rv32im/ilp32\libc.a(lib_a-svfprintf.o) (__fixdfsi)
/home/xy/.espressif/tools/riscv32-esp-elf/esp-2021r1-8.4.0/riscv32-esp-elf/bin/../lib/gcc/riscv32-esp-elf/8.4.0/rv32im/ilp32\libgcc.a(floatsidf.o)
                              /home/xy/.espressif/tools/riscv32-esp-elf/esp-2021r1-8.4.0/riscv32-esp-elf/bin/../lib/gcc/riscv32-esp-elf/8.4.0/../../../../riscv32-esp-elf/lib/rv32im/ilp32\libc.a(lib_a-svfprintf.o) (__floatsidf)
/home/xy/.espressif/tools/riscv32-esp-elf/esp-2021r1-8.4.0/riscv32-esp-elf/bin/../lib/gcc/riscv32-esp-elf/8.4.0/rv32im/ilp32\libgcc.a(floatunsidf.o)
                              /home/xy/.espressif/tools/riscv32-esp-elf/esp-2021r1-8.4.0/riscv32-esp-elf/bin/../lib/gcc/riscv32-esp-elf/8.4.0/../../../../riscv32-esp-elf/lib/rv32im/ilp32\libc.a(lib_a-dtoa.o) (__floatunsidf)
/home/xy/.espressif/tools/riscv32-esp-elf/esp-2021r1-8.4.0/riscv32-esp-elf/bin/../lib/gcc/riscv32-esp-elf/8.4.0/rv32im/ilp32\libgcc.a(trunctfdf2.o)
                              /home/xy/.espressif/tools/riscv32-esp-elf/esp-2021r1-8.4.0/riscv32-esp-elf/bin/../lib/gcc/riscv32-esp-elf/8.4.0/../../../../riscv32-esp-elf/lib/rv32im/ilp32\libc.a(lib_a-svfprintf.o) (__trunctfdf2)

Allocating common symbols
Common symbol       size              file

panic_reasons       0x4               esp-idf/esp_system/libesp_system.a(panic_handler.c.obj)
registered_heaps    0x4               esp-idf/heap/libheap.a(heap_caps_init.c.obj)

Discarded input sections

 .text          0x0000000000000000        0x0 CMakeFiles/hello-world.elf.dir/project_elf_src_esp32h2.c.obj
 .data          0x0000000000000000        0x0 CMakeFiles/hello-world.elf.dir/project_elf_src_esp32h2.c.obj
 .bss           0x0000000000000000        0x0 CMakeFiles/hello-world.elf.dir/project_elf_src_esp32h2.c.obj
 .comment       0x0000000000000000       0x26 CMakeFiles/hello-world.elf.dir/project_elf_src_esp32h2.c.obj
 .riscv.attributes
                0x0000000000000000       0x24 CMakeFiles/hello-world.elf.dir/project_elf_src_esp32h2.c.obj
 .text          0x0000000000000000        0x0 esp-idf/app_update/libapp_update.a(esp_app_desc.c.obj)
 .data          0x0000000000000000        0x0 esp-idf/app_update/libapp_update.a(esp_app_desc.c.obj)
 .bss           0x0000000000000000        0x0 esp-idf/app_update/libapp_update.a(esp_app_desc.c.obj)
 .text          0x0000000000000000        0x0 esp-idf/pthread/libpthread.a(pthread.c.obj)
 .data          0x0000000000000000        0x0 esp-idf/pthread/libpthread.a(pthread.c.obj)
 .bss           0x0000000000000000        0x0 esp-idf/pthread/libpthread.a(pthread.c.obj)
 .text.pthread_list_find_item
                0x0000000000000000       0x34 esp-idf/pthread/libpthread.a(pthread.c.obj)
 .text.pthread_get_handle_by_desc
                0x0000000000000000        0xc esp-idf/pthread/libpthread.a(pthread.c.obj)
 .text.pthread_get_desc_by_handle
                0x0000000000000000        0xa esp-idf/pthread/libpthread.a(pthread.c.obj)
Memory Configuration

Name             Origin             Length             Attributes
iram0_0_seg      0x0000000040380000 0x0000000000050000 xr
iram0_2_seg      0x0000000042000020 0x00000000007fffe0 xr
dram0_0_seg      0x000000003fc80000 0x0000000000050000 rw
drom0_0_seg      0x000000003c000020 0x00000000007fffe0 r
rtc_iram_seg     0x0000000050000000 0x0000000000002000 xrw
*default*        0x0000000000000000 0xffffffffffffffff

Linker script and memory map

LOAD CMakeFiles/hello-world.elf.dir/project_elf_src_esp32h2.c.obj
LOAD esp-idf/esp_ringbuf/libesp_ringbuf.a
LOAD esp-idf/efuse/libefuse.a
LOAD esp-idf/esp_ipc/libesp_ipc.a
LOAD esp-idf/driver/libdriver.a
LOAD esp-idf/esp_pm/libesp_pm.a
LOAD esp-idf/mbedtls/libmbedtls.a
LOAD esp-idf/app_update/libapp_update.a
LOAD esp-idf/bootloader_support/libbootloader_support.a
LOAD esp-idf/spi_flash/libspi_flash.a
LOAD esp-idf/nvs_flash/libnvs_flash.a
LOAD esp-idf/pthread/libpthread.a
LOAD esp-idf/esp_gdbstub/libesp_gdbstub.a
LOAD esp-idf/espcoredump/libespcoredump.a
LOAD esp-idf/esp_phy/libesp_phy.a
LOAD esp-idf/esp_system/libesp_system.a
LOAD esp-idf/esp_rom/libesp_rom.a
LOAD esp-idf/hal/libhal.a
LOAD esp-idf/vfs/libvfs.a
LOAD esp-idf/esp_eth/libesp_eth.a
LOAD esp-idf/tcpip_adapter/libtcpip_adapter.a
LOAD esp-idf/esp_netif/libesp_netif.a
LOAD esp-idf/esp_event/libesp_event.a
LOAD esp-idf/wpa_supplicant/libwpa_supplicant.a
LOAD esp-idf/lwip/liblwip.a
LOAD esp-idf/log/liblog.a
LOAD esp-idf/heap/libheap.a
LOAD esp-idf/soc/libsoc.a
LOAD esp-idf/esp_hw_support/libesp_hw_support.a
LOAD esp-idf/riscv/libriscv.a
LOAD esp-idf/esp_common/libesp_common.a
LOAD esp-idf/esp_timer/libesp_timer.a
LOAD esp-idf/freertos/libfreertos.a
LOAD esp-idf/newlib/libnewlib.a
LOAD esp-idf/cxx/libcxx.a
LOAD esp-idf/app_trace/libapp_trace.a
LOAD esp-idf/asio/libasio.a
LOAD esp-idf/cbor/libcbor.a
LOAD esp-idf/unity/libunity.a
LOAD esp-idf/cmock/libcmock.a
LOAD esp-idf/coap/libcoap.a
LOAD esp-idf/console/libconsole.a
LOAD esp-idf/nghttp/libnghttp.a
LOAD esp-idf/esp-tls/libesp-tls.a
LOAD esp-idf/esp_adc_cal/libesp_adc_cal.a
LOAD esp-idf/esp_hid/libesp_hid.a
LOAD esp-idf/tcp_transport/libtcp_transport.a
LOAD esp-idf/esp_http_client/libesp_http_client.a
LOAD esp-idf/esp_http_server/libesp_http_server.a
LOAD esp-idf/esp_https_ota/libesp_https_ota.a
LOAD esp-idf/esp_lcd/libesp_lcd.a
LOAD esp-idf/protobuf-c/libprotobuf-c.a
LOAD esp-idf/protocomm/libprotocomm.a
LOAD esp-idf/esp_local_ctrl/libesp_local_ctrl.a
LOAD esp-idf/sdmmc/libsdmmc.a
LOAD esp-idf/esp_serial_slave_link/libesp_serial_slave_link.a
LOAD esp-idf/esp_websocket_client/libesp_websocket_client.a
LOAD esp-idf/expat/libexpat.a
LOAD esp-idf/wear_levelling/libwear_levelling.a
LOAD esp-idf/fatfs/libfatfs.a
LOAD esp-idf/freemodbus/libfreemodbus.a
LOAD esp-idf/jsmn/libjsmn.a
LOAD esp-idf/json/libjson.a
LOAD esp-idf/libsodium/liblibsodium.a
LOAD esp-idf/mqtt/libmqtt.a
LOAD esp-idf/openssl/libopenssl.a
LOAD esp-idf/spiffs/libspiffs.a
LOAD esp-idf/wifi_provisioning/libwifi_provisioning.a
LOAD esp-idf/main/libmain.a
LOAD esp-idf/asio/libasio.a
LOAD esp-idf/cbor/libcbor.a
LOAD esp-idf/cmock/libcmock.a
LOAD esp-idf/unity/libunity.a
LOAD esp-idf/coap/libcoap.a
LOAD esp-idf/esp_adc_cal/libesp_adc_cal.a
LOAD esp-idf/esp_hid/libesp_hid.a
LOAD esp-idf/esp_lcd/libesp_lcd.a
LOAD esp-idf/esp_local_ctrl/libesp_local_ctrl.a
LOAD esp-idf/esp_websocket_client/libesp_websocket_client.a
LOAD esp-idf/expat/libexpat.a
LOAD esp-idf/fatfs/libfatfs.a
LOAD esp-idf/wear_levelling/libwear_levelling.a
LOAD esp-idf/freemodbus/libfreemodbus.a
LOAD esp-idf/jsmn/libjsmn.a
LOAD esp-idf/libsodium/liblibsodium.a
LOAD esp-idf/mqtt/libmqtt.a
LOAD esp-idf/openssl/libopenssl.a
LOAD esp-idf/spiffs/libspiffs.a
LOAD esp-idf/wifi_provisioning/libwifi_provisioning.a
LOAD esp-idf/protocomm/libprotocomm.a
LOAD esp-idf/protobuf-c/libprotobuf-c.a
LOAD esp-idf/console/libconsole.a
LOAD esp-idf/json/libjson.a
LOAD esp-idf/esp_ringbuf/libesp_ringbuf.a
LOAD esp-idf/efuse/libefuse.a
LOAD esp-idf/esp_ipc/libesp_ipc.a
LOAD esp-idf/driver/libdriver.a
LOAD esp-idf/esp_pm/libesp_pm.a
LOAD esp-idf/mbedtls/libmbedtls.a
LOAD esp-idf/app_update/libapp_update.a
LOAD esp-idf/bootloader_support/libbootloader_support.a
LOAD esp-idf/spi_flash/libspi_flash.a
LOAD esp-idf/nvs_flash/libnvs_flash.a
LOAD esp-idf/pthread/libpthread.a
LOAD esp-idf/esp_gdbstub/libesp_gdbstub.a
LOAD esp-idf/espcoredump/libespcoredump.a
LOAD esp-idf/esp_phy/libesp_phy.a
LOAD esp-idf/esp_system/libesp_system.a
LOAD esp-idf/esp_rom/libesp_rom.a
LOAD esp-idf/hal/libhal.a
LOAD esp-idf/vfs/libvfs.a
LOAD esp-idf/esp_eth/libesp_eth.a
LOAD esp-idf/tcpip_adapter/libtcpip_adapter.a
LOAD esp-idf/esp_netif/libesp_netif.a
LOAD esp-idf/esp_event/libesp_event.a
LOAD esp-idf/wpa_supplicant/libwpa_supplicant.a
LOAD esp-idf/lwip/liblwip.a
LOAD esp-idf/log/liblog.a
LOAD esp-idf/heap/libheap.a
LOAD esp-idf/soc/libsoc.a
LOAD esp-idf/esp_hw_support/libesp_hw_support.a
LOAD esp-idf/riscv/libriscv.a
LOAD esp-idf/esp_common/libesp_common.a
LOAD esp-idf/esp_timer/libesp_timer.a
LOAD esp-idf/freertos/libfreertos.a
LOAD esp-idf/newlib/libnewlib.a
LOAD esp-idf/cxx/libcxx.a
LOAD esp-idf/app_trace/libapp_trace.a
LOAD esp-idf/nghttp/libnghttp.a
LOAD esp-idf/esp-tls/libesp-tls.a
LOAD esp-idf/tcp_transport/libtcp_transport.a
LOAD esp-idf/esp_http_client/libesp_http_client.a
LOAD esp-idf/esp_http_server/libesp_http_server.a
LOAD esp-idf/esp_https_ota/libesp_https_ota.a
LOAD esp-idf/sdmmc/libsdmmc.a
LOAD esp-idf/esp_serial_slave_link/libesp_serial_slave_link.a
LOAD esp-idf/mbedtls/mbedtls/library/libmbedtls.a
LOAD esp-idf/mbedtls/mbedtls/library/libmbedcrypto.a
LOAD esp-idf/mbedtls/mbedtls/library/libmbedx509.a
LOAD esp-idf/esp_ringbuf/libesp_ringbuf.a
LOAD esp-idf/efuse/libefuse.a
LOAD esp-idf/esp_ipc/libesp_ipc.a
LOAD esp-idf/driver/libdriver.a
LOAD esp-idf/esp_pm/libesp_pm.a
LOAD esp-idf/mbedtls/libmbedtls.a
LOAD esp-idf/app_update/libapp_update.a
LOAD esp-idf/bootloader_support/libbootloader_support.a
LOAD esp-idf/spi_flash/libspi_flash.a
LOAD esp-idf/nvs_flash/libnvs_flash.a
LOAD esp-idf/pthread/libpthread.a
LOAD esp-idf/esp_gdbstub/libesp_gdbstub.a
LOAD esp-idf/espcoredump/libespcoredump.a
LOAD esp-idf/esp_phy/libesp_phy.a
LOAD esp-idf/esp_system/libesp_system.a
LOAD esp-idf/esp_rom/libesp_rom.a
LOAD esp-idf/hal/libhal.a
LOAD esp-idf/vfs/libvfs.a
LOAD esp-idf/esp_eth/libesp_eth.a
LOAD esp-idf/tcpip_adapter/libtcpip_adapter.a
LOAD esp-idf/esp_netif/libesp_netif.a
LOAD esp-idf/esp_event/libesp_event.a
LOAD esp-idf/wpa_supplicant/libwpa_supplicant.a
LOAD esp-idf/lwip/liblwip.a
LOAD esp-idf/log/liblog.a
LOAD esp-idf/heap/libheap.a
LOAD esp-idf/soc/libsoc.a
LOAD esp-idf/esp_hw_support/libesp_hw_support.a
LOAD esp-idf/riscv/libriscv.a
LOAD esp-idf/esp_common/libesp_common.a
LOAD esp-idf/esp_timer/libesp_timer.a
LOAD esp-idf/freertos/libfreertos.a
LOAD esp-idf/newlib/libnewlib.a
LOAD esp-idf/cxx/libcxx.a
LOAD esp-idf/app_trace/libapp_trace.a
LOAD esp-idf/nghttp/libnghttp.a
LOAD esp-idf/esp-tls/libesp-tls.a
LOAD esp-idf/tcp_transport/libtcp_transport.a
LOAD esp-idf/esp_http_client/libesp_http_client.a
LOAD esp-idf/esp_http_server/libesp_http_server.a
LOAD esp-idf/esp_https_ota/libesp_https_ota.a
LOAD esp-idf/sdmmc/libsdmmc.a
LOAD esp-idf/esp_serial_slave_link/libesp_serial_slave_link.a
LOAD esp-idf/mbedtls/mbedtls/library/libmbedtls.a
LOAD esp-idf/mbedtls/mbedtls/library/libmbedcrypto.a
LOAD esp-idf/mbedtls/mbedtls/library/libmbedx509.a
LOAD esp-idf/esp_ringbuf/libesp_ringbuf.a
LOAD esp-idf/efuse/libefuse.a
LOAD esp-idf/esp_ipc/libesp_ipc.a
LOAD esp-idf/driver/libdriver.a
LOAD esp-idf/esp_pm/libesp_pm.a
LOAD esp-idf/mbedtls/libmbedtls.a
LOAD esp-idf/app_update/libapp_update.a
LOAD esp-idf/bootloader_support/libbootloader_support.a
LOAD esp-idf/spi_flash/libspi_flash.a
LOAD esp-idf/nvs_flash/libnvs_flash.a
LOAD esp-idf/pthread/libpthread.a
LOAD esp-idf/esp_gdbstub/libesp_gdbstub.a
LOAD esp-idf/espcoredump/libespcoredump.a
LOAD esp-idf/esp_phy/libesp_phy.a
LOAD esp-idf/esp_system/libesp_system.a
LOAD esp-idf/esp_rom/libesp_rom.a
LOAD esp-idf/hal/libhal.a
LOAD esp-idf/vfs/libvfs.a
LOAD esp-idf/esp_eth/libesp_eth.a
LOAD esp-idf/tcpip_adapter/libtcpip_adapter.a
LOAD esp-idf/esp_netif/libesp_netif.a
LOAD esp-idf/esp_event/libesp_event.a
LOAD esp-idf/wpa_supplicant/libwpa_supplicant.a
LOAD esp-idf/lwip/liblwip.a
LOAD esp-idf/log/liblog.a
LOAD esp-idf/heap/libheap.a
LOAD esp-idf/soc/libsoc.a
LOAD esp-idf/esp_hw_support/libesp_hw_support.a
LOAD esp-idf/riscv/libriscv.a
LOAD esp-idf/esp_common/libesp_common.a
LOAD esp-idf/esp_timer/libesp_timer.a
LOAD esp-idf/freertos/libfreertos.a
LOAD esp-idf/newlib/libnewlib.a
LOAD esp-idf/cxx/libcxx.a
LOAD esp-idf/app_trace/libapp_trace.a
LOAD esp-idf/nghttp/libnghttp.a
LOAD esp-idf/esp-tls/libesp-tls.a
LOAD esp-idf/tcp_transport/libtcp_transport.a
LOAD esp-idf/esp_http_client/libesp_http_client.a
LOAD esp-idf/esp_http_server/libesp_http_server.a
LOAD esp-idf/esp_https_ota/libesp_https_ota.a
LOAD esp-idf/sdmmc/libsdmmc.a
LOAD esp-idf/esp_serial_slave_link/libesp_serial_slave_link.a
LOAD esp-idf/mbedtls/mbedtls/library/libmbedtls.a
LOAD esp-idf/mbedtls/mbedtls/library/libmbedcrypto.a
LOAD esp-idf/mbedtls/mbedtls/library/libmbedx509.a
LOAD esp-idf/esp_ringbuf/libesp_ringbuf.a
LOAD esp-idf/efuse/libefuse.a
LOAD esp-idf/esp_ipc/libesp_ipc.a
LOAD esp-idf/driver/libdriver.a
LOAD esp-idf/esp_pm/libesp_pm.a
LOAD esp-idf/mbedtls/libmbedtls.a
LOAD esp-idf/app_update/libapp_update.a
LOAD esp-idf/bootloader_support/libbootloader_support.a
LOAD esp-idf/spi_flash/libspi_flash.a
LOAD esp-idf/nvs_flash/libnvs_flash.a
LOAD esp-idf/pthread/libpthread.a
LOAD esp-idf/esp_gdbstub/libesp_gdbstub.a
LOAD esp-idf/espcoredump/libespcoredump.a
LOAD esp-idf/esp_phy/libesp_phy.a
LOAD esp-idf/esp_system/libesp_system.a
LOAD esp-idf/esp_rom/libesp_rom.a
LOAD esp-idf/hal/libhal.a
LOAD esp-idf/vfs/libvfs.a
LOAD esp-idf/esp_eth/libesp_eth.a
LOAD esp-idf/tcpip_adapter/libtcpip_adapter.a
LOAD esp-idf/esp_netif/libesp_netif.a
LOAD esp-idf/esp_event/libesp_event.a
LOAD esp-idf/wpa_supplicant/libwpa_supplicant.a
LOAD esp-idf/lwip/liblwip.a
LOAD esp-idf/log/liblog.a
LOAD esp-idf/heap/libheap.a
LOAD esp-idf/soc/libsoc.a
LOAD esp-idf/esp_hw_support/libesp_hw_support.a
LOAD esp-idf/riscv/libriscv.a
LOAD esp-idf/esp_common/libesp_common.a
LOAD esp-idf/esp_timer/libesp_timer.a
LOAD esp-idf/freertos/libfreertos.a
LOAD esp-idf/newlib/libnewlib.a
LOAD esp-idf/cxx/libcxx.a
LOAD esp-idf/app_trace/libapp_trace.a
LOAD esp-idf/nghttp/libnghttp.a
LOAD esp-idf/esp-tls/libesp-tls.a
LOAD esp-idf/tcp_transport/libtcp_transport.a
LOAD esp-idf/esp_http_client/libesp_http_client.a
LOAD esp-idf/esp_http_server/libesp_http_server.a
LOAD esp-idf/esp_https_ota/libesp_https_ota.a
LOAD esp-idf/sdmmc/libsdmmc.a
LOAD esp-idf/esp_serial_slave_link/libesp_serial_slave_link.a
LOAD esp-idf/mbedtls/mbedtls/library/libmbedtls.a
LOAD esp-idf/mbedtls/mbedtls/library/libmbedcrypto.a
LOAD esp-idf/mbedtls/mbedtls/library/libmbedx509.a
LOAD esp-idf/esp_ringbuf/libesp_ringbuf.a
LOAD esp-idf/efuse/libefuse.a
LOAD esp-idf/esp_ipc/libesp_ipc.a
LOAD esp-idf/driver/libdriver.a
LOAD esp-idf/esp_pm/libesp_pm.a
LOAD esp-idf/mbedtls/libmbedtls.a
LOAD esp-idf/app_update/libapp_update.a
LOAD esp-idf/bootloader_support/libbootloader_support.a
LOAD esp-idf/spi_flash/libspi_flash.a
LOAD esp-idf/nvs_flash/libnvs_flash.a
LOAD esp-idf/pthread/libpthread.a
LOAD esp-idf/esp_gdbstub/libesp_gdbstub.a
LOAD esp-idf/espcoredump/libespcoredump.a
LOAD esp-idf/esp_phy/libesp_phy.a
LOAD esp-idf/esp_system/libesp_system.a
LOAD esp-idf/esp_rom/libesp_rom.a
LOAD esp-idf/hal/libhal.a
LOAD esp-idf/vfs/libvfs.a
LOAD esp-idf/esp_eth/libesp_eth.a
LOAD esp-idf/tcpip_adapter/libtcpip_adapter.a
LOAD esp-idf/esp_netif/libesp_netif.a
LOAD esp-idf/esp_event/libesp_event.a
LOAD esp-idf/wpa_supplicant/libwpa_supplicant.a
LOAD esp-idf/lwip/liblwip.a
LOAD esp-idf/log/liblog.a
LOAD esp-idf/heap/libheap.a
LOAD esp-idf/soc/libsoc.a
LOAD esp-idf/esp_hw_support/libesp_hw_support.a
LOAD esp-idf/riscv/libriscv.a
LOAD esp-idf/esp_common/libesp_common.a
LOAD esp-idf/esp_timer/libesp_timer.a
LOAD esp-idf/freertos/libfreertos.a
LOAD esp-idf/newlib/libnewlib.a
LOAD esp-idf/cxx/libcxx.a
LOAD esp-idf/app_trace/libapp_trace.a
LOAD esp-idf/nghttp/libnghttp.a
LOAD esp-idf/esp-tls/libesp-tls.a
LOAD esp-idf/tcp_transport/libtcp_transport.a
LOAD esp-idf/esp_http_client/libesp_http_client.a
LOAD esp-idf/esp_http_server/libesp_http_server.a
LOAD esp-idf/esp_https_ota/libesp_https_ota.a
LOAD esp-idf/sdmmc/libsdmmc.a
LOAD esp-idf/esp_serial_slave_link/libesp_serial_slave_link.a
LOAD esp-idf/mbedtls/mbedtls/library/libmbedtls.a
LOAD esp-idf/mbedtls/mbedtls/library/libmbedcrypto.a
LOAD esp-idf/mbedtls/mbedtls/library/libmbedx509.a
LOAD esp-idf/esp_ringbuf/libesp_ringbuf.a
LOAD esp-idf/efuse/libefuse.a
LOAD esp-idf/esp_ipc/libesp_ipc.a
LOAD esp-idf/driver/libdriver.a
LOAD esp-idf/esp_pm/libesp_pm.a
LOAD esp-idf/mbedtls/libmbedtls.a
LOAD esp-idf/app_update/libapp_update.a
LOAD esp-idf/bootloader_support/libbootloader_support.a
LOAD esp-idf/spi_flash/libspi_flash.a
LOAD esp-idf/nvs_flash/libnvs_flash.a
LOAD esp-idf/pthread/libpthread.a
LOAD esp-idf/esp_gdbstub/libesp_gdbstub.a
LOAD esp-idf/espcoredump/libespcoredump.a
LOAD esp-idf/esp_phy/libesp_phy.a
LOAD esp-idf/esp_system/libesp_system.a
LOAD esp-idf/esp_rom/libesp_rom.a
LOAD esp-idf/hal/libhal.a
LOAD esp-idf/vfs/libvfs.a
LOAD esp-idf/esp_eth/libesp_eth.a
LOAD esp-idf/tcpip_adapter/libtcpip_adapter.a
LOAD esp-idf/esp_netif/libesp_netif.a
LOAD esp-idf/esp_event/libesp_event.a
LOAD esp-idf/wpa_supplicant/libwpa_supplicant.a
LOAD esp-idf/lwip/liblwip.a
LOAD esp-idf/log/liblog.a
LOAD esp-idf/heap/libheap.a
LOAD esp-idf/soc/libsoc.a
LOAD esp-idf/esp_hw_support/libesp_hw_support.a
LOAD esp-idf/riscv/libriscv.a
LOAD esp-idf/esp_common/libesp_common.a
LOAD esp-idf/esp_timer/libesp_timer.a
LOAD esp-idf/freertos/libfreertos.a
LOAD esp-idf/newlib/libnewlib.a
LOAD esp-idf/cxx/libcxx.a
LOAD esp-idf/app_trace/libapp_trace.a
LOAD esp-idf/nghttp/libnghttp.a
LOAD esp-idf/esp-tls/libesp-tls.a
LOAD esp-idf/tcp_transport/libtcp_transport.a
LOAD esp-idf/esp_http_client/libesp_http_client.a
LOAD esp-idf/esp_http_server/libesp_http_server.a
LOAD esp-idf/esp_https_ota/libesp_https_ota.a
LOAD esp-idf/sdmmc/libsdmmc.a
LOAD esp-idf/esp_serial_slave_link/libesp_serial_slave_link.a
LOAD esp-idf/mbedtls/mbedtls/library/libmbedtls.a
LOAD esp-idf/mbedtls/mbedtls/library/libmbedcrypto.a
LOAD esp-idf/mbedtls/mbedtls/library/libmbedx509.a
LOAD /home/xy/esp/esp-idf/components/esp_phy/lib/esp32h2\libphy.a
LOAD /home/xy/esp/esp-idf/components/ieee802154/lib/esp32h2/lib802154.a
LOAD /home/xy/esp/esp-idf/components/esp_phy/lib/esp32h2\libbtbb.a
LOAD esp-idf/esp_phy/libesp_phy.a
LOAD /home/xy/esp/esp-idf/components/esp_phy/lib/esp32h2\libphy.a
LOAD esp-idf/esp_phy/libesp_phy.a
LOAD /home/xy/esp/esp-idf/components/esp_phy/lib/esp32h2\libphy.a
LOAD esp-idf/newlib/libnewlib.a
LOAD /home/xy/.espressif/tools/riscv32-esp-elf/esp-2021r1-8.4.0/riscv32-esp-elf/bin/../lib/gcc/riscv32-esp-elf/8.4.0/../../../../riscv32-esp-elf/lib/rv32im/ilp32\libstdc++.a
LOAD esp-idf/pthread/libpthread.a
LOAD /home/xy/.espressif/tools/riscv32-esp-elf/esp-2021r1-8.4.0/riscv32-esp-elf/bin/../lib/gcc/riscv32-esp-elf/8.4.0/rv32im/ilp32\libgcc.a
LOAD esp-idf/cxx/libcxx.a
LOAD esp-idf/app_trace/libapp_trace.a
LOAD /home/xy/.espressif/tools/riscv32-esp-elf/esp-2021r1-8.4.0/riscv32-esp-elf/bin/../lib/gcc/riscv32-esp-elf/8.4.0/rv32im/ilp32\libgcov.a
LOAD esp-idf/app_trace/libapp_trace.a
LOAD /home/xy/.espressif/tools/riscv32-esp-elf/esp-2021r1-8.4.0/riscv32-esp-elf/bin/../lib/gcc/riscv32-esp-elf/8.4.0/rv32im/ilp32\libgcov.a
LOAD /home/xy/.espressif/tools/riscv32-esp-elf/esp-2021r1-8.4.0/riscv32-esp-elf/bin/../lib/gcc/riscv32-esp-elf/8.4.0/../../../../riscv32-esp-elf/lib/rv32im/ilp32\libstdc++.a
LOAD /home/xy/.espressif/tools/riscv32-esp-elf/esp-2021r1-8.4.0/riscv32-esp-elf/bin/../lib/gcc/riscv32-esp-elf/8.4.0/../../../../riscv32-esp-elf/lib/rv32im/ilp32\libm.a
LOAD /home/xy/.espressif/tools/riscv32-esp-elf/esp-2021r1-8.4.0/riscv32-esp-elf/bin/../lib/gcc/riscv32-esp-elf/8.4.0/../../../../riscv32-esp-elf/lib/rv32im/ilp32\libc.a
LOAD /home/xy/.espressif/tools/riscv32-esp-elf/esp-2021r1-8.4.0/riscv32-esp-elf/bin/../lib/gcc/riscv32-esp-elf/8.4.0/rv32im/ilp32\libgcc.a
START GROUP
LOAD /home/xy/.espressif/tools/riscv32-esp-elf/esp-2021r1-8.4.0/riscv32-esp-elf/bin/../lib/gcc/riscv32-esp-elf/8.4.0/../../../../riscv32-esp-elf/lib/rv32im/ilp32\libc.a
END GROUP
LOAD /home/xy/.espressif/tools/riscv32-esp-elf/esp-2021r1-8.4.0/riscv32-esp-elf/bin/../lib/gcc/riscv32-esp-elf/8.4.0/rv32im/ilp32\libgcc.a
START GROUP
LOAD /home/xy/.espressif/tools/riscv32-esp-elf/esp-2021r1-8.4.0/riscv32-esp-elf/bin/../lib/gcc/riscv32-esp-elf/8.4.0/rv32im/ilp32\libgcc.a
LOAD /home/xy/.espressif/tools/riscv32-esp-elf/esp-2021r1-8.4.0/riscv32-esp-elf/bin/../lib/gcc/riscv32-esp-elf/8.4.0/../../../../riscv32-esp-elf/lib/rv32im/ilp32\libc.a
LOAD /home/xy/.espressif/tools/riscv32-esp-elf/esp-2021r1-8.4.0/riscv32-esp-elf/bin/../lib/gcc/riscv32-esp-elf/8.4.0/../../../../riscv32-esp-elf/lib/rv32im/ilp32\libnosys.a
END GROUP
                0x000000003fc8b350                _static_data_end = _bss_end
                0x0000000040000000                _heap_end = 0x40000000
                0x0000000050000000                _data_seg_org = ORIGIN (rtc_data_seg)
                0x0000000000000001                ASSERT ((_flash_rodata_dummy_start == ORIGIN (default_rodata_seg)), .flash_rodata_dummy section must be placed at the beginning of the rodata segment.)

.rtc.text       0x0000000050000000        0x0
                0x0000000050000000                . = ALIGN (0x4)
 *(.rtc.literal .rtc.text .rtc.text.*)
 *rtc_wake_stub*.*(.literal .text .literal.* .text.*)
                0x0000000050000000                _rtc_text_end = ABSOLUTE (.)

.rtc.dummy      0x0000000050000000        0x0
                0x0000000050000000                _rtc_dummy_start = ABSOLUTE (.)
                0x0000000050000000                _rtc_fast_start = ABSOLUTE (.)
                0x0000000000000000                . = SIZEOF (.rtc.text)
                0x0000000050000000                _rtc_dummy_end = ABSOLUTE (.)

.rtc.force_fast
                0x0000000050000000        0x0
                0x0000000050000000                . = ALIGN (0x4)
                0x0000000050000000                _rtc_force_fast_start = ABSOLUTE (.)
                0x0000000050000000                _coredump_rtc_fast_start = ABSOLUTE (.)
 *(.rtc.fast.coredump .rtc.fast.coredump.*)
                0x0000000050000000                _coredump_rtc_fast_end = ABSOLUTE (.)
 *(.rtc.force_fast .rtc.force_fast.*)
                0x0000000050000000                . = ALIGN (0x4)
                0x0000000050000000                _rtc_force_fast_end = ABSOLUTE (.)

.rtc.data       0x0000000050000000       0x10
                0x0000000050000000                _rtc_data_start = ABSOLUTE (.)
                0x0000000050000000                _coredump_rtc_start = ABSOLUTE (.)
 *(.rtc.coredump .rtc.coredump.*)
                0x0000000050000000                _coredump_rtc_end = ABSOLUTE (.)
 *(.rtc.data .rtc.data.*)
 .rtc.data.0    0x0000000050000000       0x10 esp-idf/esp_hw_support/libesp_hw_support.a(esp_clk.c.obj)
 *(.rtc.rodata .rtc.rodata.*)
 *rtc_wake_stub*.*(.data .rodata .data.* .rodata.* .bss .bss.*)
                0x0000000050000010                _rtc_data_end = ABSOLUTE (.)

.rtc.bss        0x0000000050000010        0x0
                0x0000000050000010                _rtc_bss_start = ABSOLUTE (.)
 *rtc_wake_stub*.*(.bss .bss.*)
 *rtc_wake_stub*.*(COMMON)
 *(.rtc.bss)
                0x0000000050000010                _rtc_bss_end = ABSOLUTE (.)

.rtc_noinit     0x0000000050000010        0x0
                0x0000000050000010                . = ALIGN (0x4)
                0x0000000050000010                _rtc_noinit_start = ABSOLUTE (.)
 *(.rtc_noinit .rtc_noinit.*)
                0x0000000050000010                . = ALIGN (0x4)
                0x0000000050000010                _rtc_noinit_end = ABSOLUTE (.)

.rtc.force_slow
                0x0000000050000010        0x0
                0x0000000050000010                . = ALIGN (0x4)
                0x0000000050000010                _rtc_force_slow_start = ABSOLUTE (.)
 *(.rtc.force_slow .rtc.force_slow.*)
                0x0000000050000010                . = ALIGN (0x4)
                0x0000000050000010                _rtc_force_slow_end = ABSOLUTE (.)
                0x0000000000000010                _rtc_slow_length = (ORIGIN (rtc_slow_seg) == ORIGIN (rtc_data_location))?(_rtc_force_slow_end - _rtc_data_start):(_rtc_force_slow_end - _rtc_force_slow_start)
                0x0000000000000000                _rtc_fast_length = (ORIGIN (rtc_slow_seg) == ORIGIN (rtc_data_location))?(_rtc_force_fast_end - _rtc_fast_start):(_rtc_noinit_end - _rtc_fast_start)
                0x0000000000000000                ASSERT ((_rtc_slow_length <= LENGTH (rtc_slow_seg)), RTC_SLOW segment data does not fit.)
                0x0000000000000000                ASSERT ((_rtc_fast_length <= LENGTH (rtc_data_seg)), RTC_FAST segment data does not fit.)

.iram0.text     0x0000000040380000     0x9108
                0x0000000040380000                _iram_start = ABSOLUTE (.)
                0x0000000000000001                ASSERT (((ABSOLUTE (.) % 0x100) == 0x0), vector address must be 256 byte aligned)
 *(.exception_vectors.text)
 .exception_vectors.text
                0x0000000040380000      0x20a esp-idf/riscv/libriscv.a(vectors.S.obj)
                0x0000000040380000                _vector_table
                0x0000000040380104                _interrupt_handler
                0x000000004038020c                . = ALIGN (0x4)
 *fill*         0x000000004038020a        0x2 
                0x000000004038020c                _invalid_pc_placeholder = ABSOLUTE (.)
                0x000000004038020c                _iram_text_start = ABSOLUTE (.)
 *(.iram1 .iram1.*)
 .iram1.1       0x000000004038020c       0xc6 esp-idf/app_update/libapp_update.a(esp_app_desc.c.obj)
                0x000000004038020c                esp_ota_get_app_elf_sha256
 .iram1.37      0x00000000403802d2      0x1b0 esp-idf/esp_system/libesp_system.a(cpu_start.c.obj)
                0x00000000403802d2                call_start_cpu0
 .iram1.0       0x0000000040380482        0x4 esp-idf/esp_system/libesp_system.a(cache_err_int.c.obj)
                0x0000000040380482                esp_cache_err_get_cpuid
 .iram1.40      0x0000000040380486       0x22 esp-idf/esp_system/libesp_system.a(esp_system.c.obj)
                0x0000000040380486                esp_restart_noos_dig
 .iram1.41      0x00000000403804a8       0x2c esp-idf/esp_system/libesp_system.a(esp_system.c.obj)
                0x00000000403804a8                esp_restart
 .iram1.27      0x00000000403804d4       0x1a esp-idf/esp_system/libesp_system.a(startup.c.obj)
 .iram1.3       0x00000000403804ee      0x104 esp-idf/esp_system/libesp_system.a(system_internal.c.obj)
                0x00000000403804ee                esp_restart_noos
 .iram1.25      0x00000000403805f2       0x1a esp-idf/esp_system/libesp_system.a(apb_backup_dma.c.obj)
 .iram1.24      0x000000004038060c       0x1a esp-idf/esp_system/libesp_system.a(apb_backup_dma.c.obj)
 .iram1.3       0x0000000040380626        0x2 esp-idf/esp_system/libesp_system.a(panic.c.obj)
                0x0000000040380626                esp_reset_reason_set_hint
 .iram1.4       0x0000000040380628        0x4 esp-idf/esp_system/libesp_system.a(panic.c.obj)
                0x0000000040380628                esp_reset_reason_get_hint
 .iram1.36      0x000000004038062c       0x16 esp-idf/esp_system/libesp_system.a(panic_handler.c.obj)
 .iram1.37      0x0000000040380642       0x1e esp-idf/esp_system/libesp_system.a(panic_handler.c.obj)
                0x0000000040380642                panicHandler
 .iram1.38      0x0000000040380660       0x1e esp-idf/esp_system/libesp_system.a(panic_handler.c.obj)
                0x0000000040380660                xt_unhandled_exception
 .iram1.32      0x000000004038067e       0x22 esp-idf/heap/libheap.a(heap_caps.c.obj)
 .iram1.25      0x00000000403806a0       0xd4 esp-idf/heap/libheap.a(heap_caps.c.obj)
 .iram1.26      0x0000000040380774       0xfe esp-idf/heap/libheap.a(heap_caps.c.obj)
                0x0000000040380774                heap_caps_malloc
 .iram1.27      0x0000000040380872       0x44 esp-idf/heap/libheap.a(heap_caps.c.obj)
                0x0000000040380872                heap_caps_malloc_default
 .iram1.33      0x00000000403808b6       0x58 esp-idf/heap/libheap.a(heap_caps.c.obj)
                0x00000000403808b6                heap_caps_free
 .iram1.34      0x000000004038090e      0x184 esp-idf/heap/libheap.a(heap_caps.c.obj)
                0x000000004038090e                heap_caps_realloc
 .iram1.28      0x0000000040380a92       0x4e esp-idf/heap/libheap.a(heap_caps.c.obj)
                0x0000000040380a92                heap_caps_realloc_default
 .iram1.5       0x0000000040380ae0        0xe esp-idf/esp_hw_support/libesp_hw_support.a(cpu_util.c.obj)
                0x0000000040380ae0                esp_cpu_reset
 .iram1.8       0x0000000040380aee        0xe esp-idf/esp_hw_support/libesp_hw_support.a(cpu_util.c.obj)
                0x0000000040380aee                esp_cpu_in_ocd_debug_mode
 .iram1.2       0x0000000040380afc       0x1e esp-idf/esp_hw_support/libesp_hw_support.a(esp_clk.c.obj)
                0x0000000040380afc                esp_clk_cpu_freq
 .iram1.26      0x0000000040380b1a       0x3a esp-idf/esp_hw_support/libesp_hw_support.a(intr_alloc.c.obj)
 .iram1.30      0x0000000040380b54       0x7e esp-idf/esp_hw_support/libesp_hw_support.a(intr_alloc.c.obj)
                0x0000000040380b54                esp_intr_noniram_disable
 .iram1.31      0x0000000040380bd2       0x5e esp-idf/esp_hw_support/libesp_hw_support.a(intr_alloc.c.obj)
                0x0000000040380bd2                esp_intr_noniram_enable
 .iram1.28      0x0000000040380c30       0x9c esp-idf/esp_hw_support/libesp_hw_support.a(intr_alloc.c.obj)
                0x0000000040380c30                esp_intr_enable
 .iram1.29      0x0000000040380ccc       0xfe esp-idf/esp_hw_support/libesp_hw_support.a(intr_alloc.c.obj)
                0x0000000040380ccc                esp_intr_disable
 .iram1.29      0x0000000040380dca       0x4a esp-idf/esp_hw_support/libesp_hw_support.a(regi2c_ctrl.c.obj)
                0x0000000040380dca                regi2c_ctrl_write_reg_mask
 .iram1.0       0x0000000040380e14        0x4 esp-idf/esp_hw_support/libesp_hw_support.a(memprot.c.obj)
                0x0000000040380e14                esp_memprot_intr_get_cpuid
 .iram1.2       0x0000000040380e18       0x1a esp-idf/esp_hw_support/libesp_hw_support.a(memprot.c.obj)
                0x0000000040380e18                esp_memprot_get_active_intr_memtype
 .iram1.1       0x0000000040380e32       0x84 esp-idf/esp_hw_support/libesp_hw_support.a(memprot.c.obj)
                0x0000000040380e32                esp_memprot_monitor_clear_intr
 .iram1.6       0x0000000040380eb6       0x8a esp-idf/esp_hw_support/libesp_hw_support.a(memprot.c.obj)
                0x0000000040380eb6                esp_memprot_get_violate_addr
 .iram1.7       0x0000000040380f40       0x74 esp-idf/esp_hw_support/libesp_hw_support.a(memprot.c.obj)
                0x0000000040380f40                esp_memprot_get_violate_world
 .iram1.8       0x0000000040380fb4       0x66 esp-idf/esp_hw_support/libesp_hw_support.a(memprot.c.obj)
                0x0000000040380fb4                esp_memprot_get_violate_wr
 .iram1.9       0x000000004038101a       0x54 esp-idf/esp_hw_support/libesp_hw_support.a(memprot.c.obj)
                0x000000004038101a                esp_memprot_get_violate_loadstore
 .iram1.10      0x000000004038106e       0x54 esp-idf/esp_hw_support/libesp_hw_support.a(memprot.c.obj)
                0x000000004038106e                esp_memprot_get_violate_byte_en
 .iram1.3       0x00000000403810c2       0x56 esp-idf/esp_hw_support/libesp_hw_support.a(memprot.c.obj)
                0x00000000403810c2                esp_memprot_is_locked_any
 .iram1.32      0x0000000040381118       0x1a esp-idf/esp_timer/libesp_timer.a(esp_timer.c.obj)
 .iram1.29      0x0000000040381132       0xcc esp-idf/esp_timer/libesp_timer.a(esp_timer.c.obj)
 .iram1.33      0x00000000403811fe       0x1a esp-idf/esp_timer/libesp_timer.a(esp_timer.c.obj)
 .iram1.34      0x0000000040381218       0x28 esp-idf/esp_timer/libesp_timer.a(esp_timer.c.obj)
 .iram1.3       0x0000000040381240       0x26 esp-idf/esp_timer/libesp_timer.a(system_time.c.obj)
                0x0000000040381240                esp_system_get_time
 .iram1.28      0x0000000040381266       0x24 esp-idf/esp_timer/libesp_timer.a(esp_timer_impl_systimer.c.obj)
 .iram1.25      0x000000004038128a       0x32 esp-idf/esp_timer/libesp_timer.a(esp_timer_impl_systimer.c.obj)
                0x000000004038128a                esp_timer_impl_get_time
                0x000000004038128a                esp_timer_get_time
 .iram1.26      0x00000000403812bc       0x7c esp-idf/esp_timer/libesp_timer.a(esp_timer_impl_systimer.c.obj)
                0x00000000403812bc                esp_timer_impl_set_alarm_id
 .iram1.26      0x0000000040381338       0x72 esp-idf/freertos/libfreertos.a(port_systick.c.obj)
                0x0000000040381338                SysTickIsrHandler
 .iram1.26      0x00000000403813aa       0x32 esp-idf/newlib/libnewlib.a(locks.c.obj)
 .iram1.42      0x00000000403813dc       0x2c esp-idf/newlib/libnewlib.a(locks.c.obj)
 .iram1.30      0x0000000040381408       0xd2 esp-idf/newlib/libnewlib.a(locks.c.obj)
 .iram1.35      0x00000000403814da       0x8a esp-idf/newlib/libnewlib.a(locks.c.obj)
 .iram1.29      0x0000000040381564       0x56 esp-idf/newlib/libnewlib.a(locks.c.obj)
                0x0000000040381564                _lock_close
                0x0000000040381564                _lock_close_recursive
 .iram1.31      0x00000000403815ba       0x10 esp-idf/newlib/libnewlib.a(locks.c.obj)
                0x00000000403815ba                _lock_acquire
 .iram1.32      0x00000000403815ca       0x10 esp-idf/newlib/libnewlib.a(locks.c.obj)
                0x00000000403815ca                _lock_acquire_recursive
 .iram1.33      0x00000000403815da       0x10 esp-idf/newlib/libnewlib.a(locks.c.obj)
                0x00000000403815da                _lock_try_acquire
 .iram1.34      0x00000000403815ea       0x10 esp-idf/newlib/libnewlib.a(locks.c.obj)
                0x00000000403815ea                _lock_try_acquire_recursive
 .iram1.36      0x00000000403815fa        0xe esp-idf/newlib/libnewlib.a(locks.c.obj)
                0x00000000403815fa                _lock_release
 .iram1.37      0x0000000040381608        0xe esp-idf/newlib/libnewlib.a(locks.c.obj)
                0x0000000040381608                _lock_release_recursive
 .iram1.38      0x0000000040381616       0x12 esp-idf/newlib/libnewlib.a(locks.c.obj)
                0x0000000040381616                __retarget_lock_init
 .iram1.39      0x0000000040381628       0x12 esp-idf/newlib/libnewlib.a(locks.c.obj)
                0x0000000040381628                __retarget_lock_init_recursive
 .iram1.40      0x000000004038163a       0x10 esp-idf/newlib/libnewlib.a(locks.c.obj)
                0x000000004038163a                __retarget_lock_close
 .iram1.41      0x000000004038164a       0x10 esp-idf/newlib/libnewlib.a(locks.c.obj)
                0x000000004038164a                __retarget_lock_close_recursive
 .iram1.43      0x000000004038165a       0x32 esp-idf/newlib/libnewlib.a(locks.c.obj)
                0x000000004038165a                __retarget_lock_acquire
 .iram1.44      0x000000004038168c       0x32 esp-idf/newlib/libnewlib.a(locks.c.obj)
                0x000000004038168c                __retarget_lock_acquire_recursive
 .iram1.45      0x00000000403816be       0x32 esp-idf/newlib/libnewlib.a(locks.c.obj)
                0x00000000403816be                __retarget_lock_try_acquire
 .iram1.46      0x00000000403816f0       0x32 esp-idf/newlib/libnewlib.a(locks.c.obj)
                0x00000000403816f0                __retarget_lock_try_acquire_recursive
 .iram1.47      0x0000000040381722       0x12 esp-idf/newlib/libnewlib.a(locks.c.obj)
                0x0000000040381722                __retarget_lock_release
 .iram1.48      0x0000000040381734       0x12 esp-idf/newlib/libnewlib.a(locks.c.obj)
                0x0000000040381734                __retarget_lock_release_recursive
 .iram1.0       0x0000000040381746       0x4c esp-idf/newlib/libnewlib.a(reent_init.c.obj)
                0x0000000040381746                esp_reent_init
 .iram1.27      0x0000000040381792       0x74 esp-idf/newlib/libnewlib.a(time.c.obj)
                0x0000000040381792                _gettimeofday_r
 .iram1.26      0x0000000040381806       0x40 esp-idf/newlib/libnewlib.a(time.c.obj)
                0x0000000040381806                _times_r
 .iram1.2       0x0000000040381846      0x154 esp-idf/bootloader_support/libbootloader_support.a(bootloader_flash.c.obj)
                0x0000000040381846                bootloader_execute_flash_command
 .iram1.32      0x000000004038199a       0x1c esp-idf/spi_flash/libspi_flash.a(cache_utils.c.obj)
 .iram1.33      0x00000000403819b6       0x16 esp-idf/spi_flash/libspi_flash.a(cache_utils.c.obj)
 .iram1.28      0x00000000403819cc       0x22 esp-idf/spi_flash/libspi_flash.a(cache_utils.c.obj)
                0x00000000403819cc                spi_flash_disable_interrupts_caches_and_other_cpu
 .iram1.29      0x00000000403819ee       0x22 esp-idf/spi_flash/libspi_flash.a(cache_utils.c.obj)
                0x00000000403819ee                spi_flash_enable_interrupts_caches_and_other_cpu
 .iram1.34      0x0000000040381a10        0xa esp-idf/spi_flash/libspi_flash.a(cache_utils.c.obj)
                0x0000000040381a10                spi_flash_cache_enabled
 .iram1.36      0x0000000040381a1a       0x10 esp-idf/spi_flash/libspi_flash.a(cache_utils.c.obj)
                0x0000000040381a1a                spi_flash_enable_cache
 .iram1.33      0x0000000040381a2a       0x20 esp-idf/spi_flash/libspi_flash.a(flash_mmap.c.obj)
 .iram1.27      0x0000000040381a4a       0x82 esp-idf/spi_flash/libspi_flash.a(flash_mmap.c.obj)
 .iram1.28      0x0000000040381acc       0x7a esp-idf/spi_flash/libspi_flash.a(flash_mmap.c.obj)
 .iram1.36      0x0000000040381b46       0xbc esp-idf/spi_flash/libspi_flash.a(flash_mmap.c.obj)
 .iram1.30      0x0000000040381c02      0x232 esp-idf/spi_flash/libspi_flash.a(flash_mmap.c.obj)
                0x0000000040381c02                spi_flash_mmap_pages
 .iram1.29      0x0000000040381e34       0xa8 esp-idf/spi_flash/libspi_flash.a(flash_mmap.c.obj)
                0x0000000040381e34                spi_flash_mmap
 .iram1.31      0x0000000040381edc       0xd6 esp-idf/spi_flash/libspi_flash.a(flash_mmap.c.obj)
                0x0000000040381edc                spi_flash_munmap
 .iram1.37      0x0000000040381fb2       0x72 esp-idf/spi_flash/libspi_flash.a(flash_mmap.c.obj)
                0x0000000040381fb2                spi_flash_check_and_flush_cache
 .iram1.37      0x0000000040382024       0x10 esp-idf/spi_flash/libspi_flash.a(flash_ops.c.obj)
 .iram1.29      0x0000000040382034        0x2 esp-idf/spi_flash/libspi_flash.a(flash_ops.c.obj)
                0x0000000040382034                esp_mspi_pin_init
 .iram1.30      0x0000000040382036        0xa esp-idf/spi_flash/libspi_flash.a(flash_ops.c.obj)
                0x0000000040382036                spi_flash_guard_set
 .iram1.32      0x0000000040382040        0xc esp-idf/spi_flash/libspi_flash.a(flash_ops.c.obj)
                0x0000000040382040                spi_flash_get_chip_size
 .iram1.26      0x000000004038204c       0x28 esp-idf/spi_flash/libspi_flash.a(esp_flash_api.c.obj)
 .iram1.27      0x0000000040382074       0x22 esp-idf/spi_flash/libspi_flash.a(esp_flash_api.c.obj)
 .iram1.28      0x0000000040382096       0x54 esp-idf/spi_flash/libspi_flash.a(esp_flash_api.c.obj)
 .iram1.32      0x00000000403820ea       0xa6 esp-idf/spi_flash/libspi_flash.a(esp_flash_api.c.obj)
 .iram1.30      0x0000000040382190       0x7e esp-idf/spi_flash/libspi_flash.a(esp_flash_api.c.obj)
 .iram1.33      0x000000004038220e       0x68 esp-idf/spi_flash/libspi_flash.a(esp_flash_api.c.obj)
                0x000000004038220e                esp_flash_get_size
 .iram1.29      0x0000000040382276      0x19e esp-idf/spi_flash/libspi_flash.a(esp_flash_api.c.obj)
                0x0000000040382276                esp_flash_init
 .iram1.30      0x0000000040382414       0x12 esp-idf/spi_flash/libspi_flash.a(spi_flash_os_func_app.c.obj)
 .iram1.31      0x0000000040382426       0x10 esp-idf/spi_flash/libspi_flash.a(spi_flash_os_func_app.c.obj)
 .iram1.34      0x0000000040382436       0x10 esp-idf/spi_flash/libspi_flash.a(spi_flash_os_func_app.c.obj)
 .iram1.40      0x0000000040382446       0x10 esp-idf/spi_flash/libspi_flash.a(spi_flash_os_func_app.c.obj)
 .iram1.39      0x0000000040382456       0x68 esp-idf/spi_flash/libspi_flash.a(spi_flash_os_func_app.c.obj)
 .iram1.38      0x00000000403824be       0x16 esp-idf/spi_flash/libspi_flash.a(spi_flash_os_func_app.c.obj)
 .iram1.37      0x00000000403824d4       0x1e esp-idf/spi_flash/libspi_flash.a(spi_flash_os_func_app.c.obj)
 .iram1.35      0x00000000403824f2       0x1c esp-idf/spi_flash/libspi_flash.a(spi_flash_os_func_app.c.obj)
 .iram1.36      0x000000004038250e       0x7a esp-idf/spi_flash/libspi_flash.a(spi_flash_os_func_app.c.obj)
 .iram1.41      0x0000000040382588       0x2a esp-idf/spi_flash/libspi_flash.a(spi_flash_os_func_app.c.obj)
 .iram1.3       0x00000000403825b2       0x16 esp-idf/spi_flash/libspi_flash.a(spi_flash_os_func_noos.c.obj)
 .iram1.2       0x00000000403825c8       0x24 esp-idf/spi_flash/libspi_flash.a(spi_flash_os_func_noos.c.obj)
 .iram1.1       0x00000000403825ec       0x1c esp-idf/spi_flash/libspi_flash.a(spi_flash_os_func_noos.c.obj)
 .iram1.26      0x0000000040382608       0x34 esp-idf/esp_system/libesp_system.a(crosscore_int.c.obj)
 .iram1.27      0x000000004038263c       0x60 esp-idf/esp_system/libesp_system.a(crosscore_int.c.obj)
 .iram1.28      0x000000004038269c        0xe esp-idf/esp_system/libesp_system.a(crosscore_int.c.obj)
                0x000000004038269c                esp_crosscore_int_send_yield
 .iram1.24      0x00000000403826aa       0x30 esp-idf/esp_system/libesp_system.a(freertos_hooks.c.obj)
                0x00000000403826aa                esp_vApplicationTickHook
 .iram1.26      0x00000000403826da       0x4a esp-idf/esp_system/libesp_system.a(int_wdt.c.obj)
 *libapp_trace.a:app_trace.*(.literal .literal.* .text .text.*)
 *libapp_trace.a:app_trace_util.*(.literal .literal.* .text .text.*)
 *libesp_event.a:default_event_loop.*(.literal.esp_event_isr_post .text.esp_event_isr_post)
 *libesp_event.a:esp_event.*(.literal.esp_event_isr_post_to .text.esp_event_isr_post_to)
 *libesp_hw_support.a:cpu_util.*(.literal .literal.* .text .text.*)
 *libesp_hw_support.a:rtc_clk.*(.literal .literal.* .text .text.*)
 .text.rtc_clk_bbpll_disable
                0x0000000040382724       0x16 esp-idf/esp_hw_support/libesp_hw_support.a(rtc_clk.c.obj)
 .text.rtc_clk_slow_freq_get
                0x000000004038273a        0xa esp-idf/esp_hw_support/libesp_hw_support.a(rtc_clk.c.obj)
                0x000000004038273a                rtc_clk_slow_freq_get
 .text.rtc_clk_slow_freq_get_hz
                0x0000000040382744       0x32 esp-idf/esp_hw_support/libesp_hw_support.a(rtc_clk.c.obj)
                0x0000000040382744                rtc_clk_slow_freq_get_hz
 .text.rtc_clk_xtal_freq_get
                0x0000000040382776       0x66 esp-idf/esp_hw_support/libesp_hw_support.a(rtc_clk.c.obj)
                0x0000000040382776                rtc_clk_xtal_freq_get
                0x0000000040382776                rtc_get_xtal
 .text.rtc_clk_apb_freq_update
                0x00000000403827dc       0x16 esp-idf/esp_hw_support/libesp_hw_support.a(rtc_clk.c.obj)
                0x00000000403827dc                rtc_clk_apb_freq_update
 .text.rtc_clk_cpu_freq_to_xtal
                0x00000000403827f2       0x54 esp-idf/esp_hw_support/libesp_hw_support.a(rtc_clk.c.obj)
                0x00000000403827f2                rtc_clk_cpu_freq_to_xtal
 .text.rtc_clk_cpu_freq_set_xtal
                0x0000000040382846       0x12 esp-idf/esp_hw_support/libesp_hw_support.a(rtc_clk.c.obj)
                0x0000000040382846                rtc_clk_cpu_freq_set_xtal
 *libesp_hw_support.a:rtc_init.*(.literal.rtc_vddsdio_set_config .text.rtc_vddsdio_set_config)
 *libesp_hw_support.a:rtc_pm.*(.literal .literal.* .text .text.*)
 *libesp_hw_support.a:rtc_sleep.*(.literal .literal.* .text .text.*)
 *libesp_hw_support.a:rtc_time.*(.literal .literal.* .text .text.*)
 .text.rtc_time_get
                0x0000000040382858       0x14 esp-idf/esp_hw_support/libesp_hw_support.a(rtc_time.c.obj)
                0x0000000040382858                rtc_time_get
 *libesp_ringbuf.a:(.literal .literal.* .text .text.*)
 .text.prvCheckItemAvail
                0x000000004038286c       0x36 esp-idf/esp_ringbuf/libesp_ringbuf.a(ringbuf.c.obj)
 .text.prvGetFreeSize
                0x00000000403828a2       0x4a esp-idf/esp_ringbuf/libesp_ringbuf.a(ringbuf.c.obj)
 .text.prvReceiveGeneric
                0x00000000403828ec      0x16a esp-idf/esp_ringbuf/libesp_ringbuf.a(ringbuf.c.obj)
 .text.xRingbufferSend
                0x0000000040382a56      0x128 esp-idf/esp_ringbuf/libesp_ringbuf.a(ringbuf.c.obj)
                0x0000000040382a56                xRingbufferSend
 .text.xRingbufferReceive
                0x0000000040382b7e       0x58 esp-idf/esp_ringbuf/libesp_ringbuf.a(ringbuf.c.obj)
                0x0000000040382b7e                xRingbufferReceive
 .text.vRingbufferReturnItem
                0x0000000040382bd6       0x80 esp-idf/esp_ringbuf/libesp_ringbuf.a(ringbuf.c.obj)
                0x0000000040382bd6                vRingbufferReturnItem
 *libesp_system.a:esp_err.*(.literal .literal.* .text .text.*)
 .text.esp_error_check_failed_print
                0x0000000040382c56       0x82 esp-idf/esp_system/libesp_system.a(esp_err.c.obj)
 .text._esp_error_check_failed
                0x0000000040382cd8       0x18 esp-idf/esp_system/libesp_system.a(esp_err.c.obj)
                0x0000000040382cd8                _esp_error_check_failed
 *libesp_system.a:esp_system.*(.literal.esp_system_abort .text.esp_system_abort)
 .text.esp_system_abort
                0x0000000040382cf0        0xc esp-idf/esp_system/libesp_system.a(esp_system.c.obj)
                0x0000000040382cf0                esp_system_abort
 *libesp_system.a:ubsan.*(.literal .literal.* .text .text.*)
 .text.__ubsan_include
                0x0000000040382cfc        0x2 esp-idf/esp_system/libesp_system.a(ubsan.c.obj)
                0x0000000040382cfc                __ubsan_include
 *libfreertos.a:(EXCLUDE_FILE(*libfreertos.a:port_common.* *libfreertos.a:port.*) .literal EXCLUDE_FILE(*libfreertos.a:port_common.* *libfreertos.a:port.*) .literal.* EXCLUDE_FILE(*libfreertos.a:port_common.* *libfreertos.a:port.*) .text EXCLUDE_FILE(*libfreertos.a:port_common.* *libfreertos.a:port.*) .text.*)
 .text          0x0000000040382cfe       0x9a esp-idf/freertos/libfreertos.a(portasm.S.obj)
                0x0000000040382cfe                rtos_int_enter
                0x0000000040382d3a                rtos_int_exit
 .text.vPortSetupTimer
                0x0000000040382d98       0xe0 esp-idf/freertos/libfreertos.a(port_systick.c.obj)
                0x0000000040382d98                vPortSetupTimer
 .text.xPortSysTickHandler
                0x0000000040382e78       0x1e esp-idf/freertos/libfreertos.a(port_systick.c.obj)
                0x0000000040382e78                xPortSysTickHandler
 .text.prvGetDisinheritPriorityAfterTimeout
                0x0000000040382e96       0x10 esp-idf/freertos/libfreertos.a(queue.c.obj)
 .text.prvIsQueueFull
                0x0000000040382ea6       0x10 esp-idf/freertos/libfreertos.a(queue.c.obj)
 .text.prvIsQueueEmpty
                0x0000000040382eb6       0x24 esp-idf/freertos/libfreertos.a(queue.c.obj)
 .text.prvCopyDataToQueue
                0x0000000040382eda       0x96 esp-idf/freertos/libfreertos.a(queue.c.obj)
 .text.prvNotifyQueueSetContainer
                0x0000000040382f70       0xca esp-idf/freertos/libfreertos.a(queue.c.obj)
 .text.prvCopyDataFromQueue
                0x000000004038303a       0x2e esp-idf/freertos/libfreertos.a(queue.c.obj)
 .text.prvUnlockQueue
                0x0000000040383068       0x92 esp-idf/freertos/libfreertos.a(queue.c.obj)
 .text.xQueueGenericReset
                0x00000000403830fa       0xa6 esp-idf/freertos/libfreertos.a(queue.c.obj)
                0x00000000403830fa                xQueueGenericReset
 .text.prvInitialiseNewQueue
                0x00000000403831a0       0x26 esp-idf/freertos/libfreertos.a(queue.c.obj)
 .text.xQueueGenericCreateStatic
                0x00000000403831c6       0xf0 esp-idf/freertos/libfreertos.a(queue.c.obj)
                0x00000000403831c6                xQueueGenericCreateStatic
 .text.xQueueGenericCreate
                0x00000000403832b6       0xc8 esp-idf/freertos/libfreertos.a(queue.c.obj)
                0x00000000403832b6                xQueueGenericCreate
 .text.xQueueGetMutexHolder
                0x000000004038337e       0x24 esp-idf/freertos/libfreertos.a(queue.c.obj)
                0x000000004038337e                xQueueGetMutexHolder
 .text.xQueueGenericSend
                0x00000000403833a2      0x202 esp-idf/freertos/libfreertos.a(queue.c.obj)
                0x00000000403833a2                xQueueGenericSend
 .text.prvInitialiseMutex
                0x00000000403835a4       0x34 esp-idf/freertos/libfreertos.a(queue.c.obj)
 .text.xQueueCreateMutex
                0x00000000403835d8       0x1e esp-idf/freertos/libfreertos.a(queue.c.obj)
                0x00000000403835d8                xQueueCreateMutex
 .text.xQueueCreateMutexStatic
                0x00000000403835f6       0x22 esp-idf/freertos/libfreertos.a(queue.c.obj)
                0x00000000403835f6                xQueueCreateMutexStatic
 .text.xQueueGiveMutexRecursive
                0x0000000040383618       0x68 esp-idf/freertos/libfreertos.a(queue.c.obj)
                0x0000000040383618                xQueueGiveMutexRecursive
 .text.xQueueGiveFromISR
                0x0000000040383680      0x110 esp-idf/freertos/libfreertos.a(queue.c.obj)
                0x0000000040383680                xQueueGiveFromISR
 .text.xQueueSemaphoreTake
                0x0000000040383790      0x1da esp-idf/freertos/libfreertos.a(queue.c.obj)
                0x0000000040383790                xQueueSemaphoreTake
 .text.xQueueTakeMutexRecursive
                0x000000004038396a       0x70 esp-idf/freertos/libfreertos.a(queue.c.obj)
                0x000000004038396a                xQueueTakeMutexRecursive
 .text.xQueueReceiveFromISR
                0x00000000403839da       0xec esp-idf/freertos/libfreertos.a(queue.c.obj)
                0x00000000403839da                xQueueReceiveFromISR
 .text.vQueueDelete
                0x0000000040383ac6       0x3c esp-idf/freertos/libfreertos.a(queue.c.obj)
                0x0000000040383ac6                vQueueDelete
 .text.prvResetNextTaskUnblockTime
                0x0000000040383b02       0x30 esp-idf/freertos/libfreertos.a(tasks.c.obj)
 .text.prvDeleteTLS
                0x0000000040383b32       0x60 esp-idf/freertos/libfreertos.a(tasks.c.obj)
 .text.prvInitialiseNewTask
                0x0000000040383b92       0xf8 esp-idf/freertos/libfreertos.a(tasks.c.obj)
 .text.prvInitialiseTaskLists
                0x0000000040383c8a       0x8a esp-idf/freertos/libfreertos.a(tasks.c.obj)
 .text.prvAddNewTaskToReadyList
                0x0000000040383d14       0xe4 esp-idf/freertos/libfreertos.a(tasks.c.obj)
 .text.prvDeleteTCB
                0x0000000040383df8       0x68 esp-idf/freertos/libfreertos.a(tasks.c.obj)
 .text.prvCheckTasksWaitingTermination
                0x0000000040383e60       0xaa esp-idf/freertos/libfreertos.a(tasks.c.obj)
 .text.prvAddCurrentTaskToDelayedList
                0x0000000040383f0a       0xc2 esp-idf/freertos/libfreertos.a(tasks.c.obj)
 .text.prvIdleTask
                0x0000000040383fcc       0x12 esp-idf/freertos/libfreertos.a(tasks.c.obj)
 .text.taskYIELD_OTHER_CORE
                0x0000000040383fde       0x5a esp-idf/freertos/libfreertos.a(tasks.c.obj)
                0x0000000040383fde                taskYIELD_OTHER_CORE
 .text.xTaskCreatePinnedToCore
                0x0000000040384038       0x8c esp-idf/freertos/libfreertos.a(tasks.c.obj)
                0x0000000040384038                xTaskCreatePinnedToCore
 .text.vTaskDelay
                0x00000000403840c4       0x54 esp-idf/freertos/libfreertos.a(tasks.c.obj)
                0x00000000403840c4                vTaskDelay
 .text.vTaskSuspendAll
                0x0000000040384118       0x20 esp-idf/freertos/libfreertos.a(tasks.c.obj)
                0x0000000040384118                vTaskSuspendAll
 .text.xTaskGetTickCount
                0x0000000040384138        0xa esp-idf/freertos/libfreertos.a(tasks.c.obj)
                0x0000000040384138                xTaskGetTickCount
 .text.xTaskGetTickCountFromISR
                0x0000000040384142       0x20 esp-idf/freertos/libfreertos.a(tasks.c.obj)
                0x0000000040384142                xTaskGetTickCountFromISR
 .text.pcTaskGetName
                0x0000000040384162       0x3e esp-idf/freertos/libfreertos.a(tasks.c.obj)
                0x0000000040384162                pcTaskGetName
 .text.xTaskGetIdleTaskHandleForCPU
                0x00000000403841a0       0x6a esp-idf/freertos/libfreertos.a(tasks.c.obj)
                0x00000000403841a0                xTaskGetIdleTaskHandleForCPU
 .text.xTaskIncrementTick
                0x000000004038420a      0x192 esp-idf/freertos/libfreertos.a(tasks.c.obj)
                0x000000004038420a                xTaskIncrementTick
 .text.xTaskResumeAll
                0x000000004038439c      0x1c4 esp-idf/freertos/libfreertos.a(tasks.c.obj)
                0x000000004038439c                xTaskResumeAll
 .text.vTaskSwitchContext
                0x0000000040384560      0x26e esp-idf/freertos/libfreertos.a(tasks.c.obj)
                0x0000000040384560                vTaskSwitchContext
 .text.vTaskPlaceOnEventList
                0x00000000403847ce       0x5e esp-idf/freertos/libfreertos.a(tasks.c.obj)
                0x00000000403847ce                vTaskPlaceOnEventList
 .text.xTaskRemoveFromEventList
                0x000000004038482c      0x144 esp-idf/freertos/libfreertos.a(tasks.c.obj)
                0x000000004038482c                xTaskRemoveFromEventList
 .text.vTaskInternalSetTimeOutState
                0x0000000040384970       0x16 esp-idf/freertos/libfreertos.a(tasks.c.obj)
                0x0000000040384970                vTaskInternalSetTimeOutState
 .text.xTaskCheckForTimeOut
                0x0000000040384986       0xbe esp-idf/freertos/libfreertos.a(tasks.c.obj)
                0x0000000040384986                xTaskCheckForTimeOut
 .text.vTaskMissedYield
                0x0000000040384a44        0xc esp-idf/freertos/libfreertos.a(tasks.c.obj)
                0x0000000040384a44                vTaskMissedYield
 .text.xTaskGetAffinity
                0x0000000040384a50       0x10 esp-idf/freertos/libfreertos.a(tasks.c.obj)
                0x0000000040384a50                xTaskGetAffinity
 .text.xTaskGetCurrentTaskHandle
                0x0000000040384a60       0x20 esp-idf/freertos/libfreertos.a(tasks.c.obj)
                0x0000000040384a60                xTaskGetCurrentTaskHandle
 .text.__getreent
                0x0000000040384a80       0x1e esp-idf/freertos/libfreertos.a(tasks.c.obj)
                0x0000000040384a80                __getreent
 .text.xTaskGetCurrentTaskHandleForCPU
                0x0000000040384a9e       0x18 esp-idf/freertos/libfreertos.a(tasks.c.obj)
                0x0000000040384a9e                xTaskGetCurrentTaskHandleForCPU
 .text.xTaskGetSchedulerState
                0x0000000040384ab6       0x20 esp-idf/freertos/libfreertos.a(tasks.c.obj)
                0x0000000040384ab6                xTaskGetSchedulerState
 .text.vTaskDelete
                0x0000000040384ad6       0xce esp-idf/freertos/libfreertos.a(tasks.c.obj)
                0x0000000040384ad6                vTaskDelete
 .text.xTaskPriorityInherit
                0x0000000040384ba4       0xca esp-idf/freertos/libfreertos.a(tasks.c.obj)
                0x0000000040384ba4                xTaskPriorityInherit
 .text.xTaskPriorityDisinherit
                0x0000000040384c6e       0xd8 esp-idf/freertos/libfreertos.a(tasks.c.obj)
                0x0000000040384c6e                xTaskPriorityDisinherit
 .text.vTaskPriorityDisinheritAfterTimeout
                0x0000000040384d46       0xee esp-idf/freertos/libfreertos.a(tasks.c.obj)
                0x0000000040384d46                vTaskPriorityDisinheritAfterTimeout
 .text.pvTaskIncrementMutexHeldCount
                0x0000000040384e34       0x34 esp-idf/freertos/libfreertos.a(tasks.c.obj)
                0x0000000040384e34                pvTaskIncrementMutexHeldCount
 .text.ulTaskNotifyTake
                0x0000000040384e68       0x84 esp-idf/freertos/libfreertos.a(tasks.c.obj)
                0x0000000040384e68                ulTaskNotifyTake
 .text.vTaskNotifyGiveFromISR
                0x0000000040384eec      0x110 esp-idf/freertos/libfreertos.a(tasks.c.obj)
                0x0000000040384eec                vTaskNotifyGiveFromISR
 .text.xTimerCreateTimerTask
                0x0000000040384ffc        0x4 esp-idf/freertos/libfreertos.a(tasks.c.obj)
                0x0000000040384ffc                xTimerCreateTimerTask
 .text.vTaskStartScheduler
                0x0000000040385000       0xb2 esp-idf/freertos/libfreertos.a(tasks.c.obj)
                0x0000000040385000                vTaskStartScheduler
 .text.vListInitialise
                0x00000000403850b2       0x14 esp-idf/freertos/libfreertos.a(list.c.obj)
                0x00000000403850b2                vListInitialise
 .text.vListInitialiseItem
                0x00000000403850c6        0x6 esp-idf/freertos/libfreertos.a(list.c.obj)
                0x00000000403850c6                vListInitialiseItem
 .text.vListInsertEnd
                0x00000000403850cc       0x16 esp-idf/freertos/libfreertos.a(list.c.obj)
                0x00000000403850cc                vListInsertEnd
 .text.vListInsert
                0x00000000403850e2       0x30 esp-idf/freertos/libfreertos.a(list.c.obj)
                0x00000000403850e2                vListInsert
 .text.uxListRemove
                0x0000000040385112       0x26 esp-idf/freertos/libfreertos.a(list.c.obj)
                0x0000000040385112                uxListRemove
 *libfreertos.a:port.*(.text .text.prvTaskExitError .text.pxPortInitialiseStack .text.vApplicationStackOverflowHook .text.vPortCPUAcquireMutex .text.vPortCPUAcquireMutexTimeout .text.vPortCPUInitializeMutex .text.vPortCPUReleaseMutex .text.vPortClearInterruptMask .text.vPortEndScheduler .text.vPortEnterCritical .text.vPortExitCritical .text.vPortSetInterruptMask .text.vPortSetStackWatchpoint .text.vPortYield .text.vPortYieldFromISR .text.vPortYieldOtherCore .text.xPortGetTickRateHz .text.xPortInIsrContext .text.xPortStartScheduler)
 .text.vPortClearInterruptMask
                0x0000000040385138       0x10 esp-idf/freertos/libfreertos.a(port.c.obj)
                0x0000000040385138                vPortClearInterruptMask
 .text.vPortExitCritical
                0x0000000040385148       0x2e esp-idf/freertos/libfreertos.a(port.c.obj)
                0x0000000040385148                vPortExitCritical
 .text.vPortSetInterruptMask
                0x0000000040385176       0x1a esp-idf/freertos/libfreertos.a(port.c.obj)
                0x0000000040385176                vPortSetInterruptMask
 .text.vPortEnterCritical
                0x0000000040385190       0x2c esp-idf/freertos/libfreertos.a(port.c.obj)
                0x0000000040385190                vPortEnterCritical
 .text.prvTaskExitError
                0x00000000403851bc       0x3c esp-idf/freertos/libfreertos.a(port.c.obj)
 .text.pxPortInitialiseStack
                0x00000000403851f8       0x90 esp-idf/freertos/libfreertos.a(port.c.obj)
                0x00000000403851f8                pxPortInitialiseStack
 .text.vPortYieldOtherCore
                0x0000000040385288        0xe esp-idf/freertos/libfreertos.a(port.c.obj)
                0x0000000040385288                vPortYieldOtherCore
 .text.vPortYieldFromISR
                0x0000000040385296       0x14 esp-idf/freertos/libfreertos.a(port.c.obj)
                0x0000000040385296                vPortYieldFromISR
 .text.vPortYield
                0x00000000403852aa       0x3c esp-idf/freertos/libfreertos.a(port.c.obj)
                0x00000000403852aa                vPortYield
 .text.xPortStartScheduler
                0x00000000403852e6       0x3a esp-idf/freertos/libfreertos.a(port.c.obj)
                0x00000000403852e6                xPortStartScheduler
 .text.xPortInIsrContext
                0x0000000040385320        0xa esp-idf/freertos/libfreertos.a(port.c.obj)
                0x0000000040385320                xPortInIsrContext
 .text.vPortCPUInitializeMutex
                0x000000004038532a        0x2 esp-idf/freertos/libfreertos.a(port.c.obj)
                0x000000004038532a                vPortCPUInitializeMutex
 .text.vPortCPUAcquireMutex
                0x000000004038532c        0x2 esp-idf/freertos/libfreertos.a(port.c.obj)
                0x000000004038532c                vPortCPUAcquireMutex
 .text.vPortCPUReleaseMutex
                0x000000004038532e        0x2 esp-idf/freertos/libfreertos.a(port.c.obj)
                0x000000004038532e                vPortCPUReleaseMutex
 .text.vApplicationStackOverflowHook
                0x0000000040385330       0x54 esp-idf/freertos/libfreertos.a(port.c.obj)
                0x0000000040385330                vApplicationStackOverflowHook
 *libfreertos.a:port_common.*(.text .text.esp_startup_start_app_common)
 .text.esp_startup_start_app_common
                0x0000000040385384       0x68 esp-idf/freertos/libfreertos.a(port_common.c.obj)
                0x0000000040385384                esp_startup_start_app_common
 *libgcc.a:_divsf3.*(.literal .literal.* .text .text.*)
 *libgcc.a:lib2funcs.*(.literal .literal.* .text .text.*)
 *libgcov.a:(.literal .literal.* .text .text.*)
 *libhal.a:cpu_hal.*(.literal .literal.* .text .text.*)
 .text.cpu_hal_set_breakpoint
                0x00000000403853ec       0x16 esp-idf/hal/libhal.a(cpu_hal.c.obj)
                0x00000000403853ec                cpu_hal_set_breakpoint
 .text.cpu_hal_set_vecbase
                0x0000000040385402        0xa esp-idf/hal/libhal.a(cpu_hal.c.obj)
                0x0000000040385402                cpu_hal_set_vecbase
 *libhal.a:i2c_hal_iram.*(.literal .literal.* .text .text.*)
 *libhal.a:ledc_hal_iram.*(.literal .literal.* .text .text.*)
 *libhal.a:soc_hal.*(.literal .literal.* .text .text.*)
 *libhal.a:spi_flash_encrypt_hal_iram.*(.literal .literal.* .text .text.*)
 .text.spi_flash_encryption_hal_enable
                0x000000004038540c       0x16 esp-idf/hal/libhal.a(spi_flash_encrypt_hal_iram.c.obj)
                0x000000004038540c                spi_flash_encryption_hal_enable
 .text.spi_flash_encryption_hal_disable
                0x0000000040385422        0xc esp-idf/hal/libhal.a(spi_flash_encrypt_hal_iram.c.obj)
                0x0000000040385422                spi_flash_encryption_hal_disable
 .text.spi_flash_encryption_hal_prepare
                0x000000004038542e       0x2c esp-idf/hal/libhal.a(spi_flash_encrypt_hal_iram.c.obj)
                0x000000004038542e                spi_flash_encryption_hal_prepare
 .text.spi_flash_encryption_hal_done
                0x000000004038545a       0x22 esp-idf/hal/libhal.a(spi_flash_encrypt_hal_iram.c.obj)
                0x000000004038545a                spi_flash_encryption_hal_done
 .text.spi_flash_encryption_hal_destroy
                0x000000004038547c        0xa esp-idf/hal/libhal.a(spi_flash_encrypt_hal_iram.c.obj)
                0x000000004038547c                spi_flash_encryption_hal_destroy
 .text.spi_flash_encryption_hal_check
                0x0000000040385486        0xa esp-idf/hal/libhal.a(spi_flash_encrypt_hal_iram.c.obj)
                0x0000000040385486                spi_flash_encryption_hal_check
 *libhal.a:spi_flash_hal_gpspi.*(.literal .literal.* .text .text.*)
 .text.spi_flash_hal_gpspi_poll_cmd_done
                0x0000000040385490        0xc esp-idf/hal/libhal.a(spi_flash_hal_gpspi.c.obj)
                0x0000000040385490                spi_flash_hal_gpspi_poll_cmd_done
 .text.spi_flash_hal_gpspi_device_config
                0x000000004038549c       0xd4 esp-idf/hal/libhal.a(spi_flash_hal_gpspi.c.obj)
                0x000000004038549c                spi_flash_hal_gpspi_device_config
 .text.spi_flash_hal_gpspi_configure_host_io_mode
                0x0000000040385570      0x1ba esp-idf/hal/libhal.a(spi_flash_hal_gpspi.c.obj)
                0x0000000040385570                spi_flash_hal_gpspi_configure_host_io_mode
 .text.spi_flash_hal_gpspi_common_command
                0x000000004038572a      0x20a esp-idf/hal/libhal.a(spi_flash_hal_gpspi.c.obj)
                0x000000004038572a                spi_flash_hal_gpspi_common_command
 .text.spi_flash_hal_gpspi_read
                0x0000000040385934      0x112 esp-idf/hal/libhal.a(spi_flash_hal_gpspi.c.obj)
                0x0000000040385934                spi_flash_hal_gpspi_read
 .text.spi_flash_hal_gpspi_supports_direct_write
                0x0000000040385a46        0x4 esp-idf/hal/libhal.a(spi_flash_hal_gpspi.c.obj)
                0x0000000040385a46                spi_flash_hal_gpspi_supports_direct_write
 .text.spi_flash_hal_gpspi_supports_direct_read
                0x0000000040385a4a        0x4 esp-idf/hal/libhal.a(spi_flash_hal_gpspi.c.obj)
                0x0000000040385a4a                spi_flash_hal_gpspi_supports_direct_read
 .text.spi_flash_hal_gpspi_check_status
                0x0000000040385a4e        0xe esp-idf/hal/libhal.a(spi_flash_hal_gpspi.c.obj)
                0x0000000040385a4e                spi_flash_hal_gpspi_check_status
 *libhal.a:spi_flash_hal_iram.*(.literal .literal.* .text .text.*)
 .text.spi_flash_hal_poll_cmd_done
                0x0000000040385a5c        0x8 esp-idf/hal/libhal.a(spi_flash_hal_iram.c.obj)
                0x0000000040385a5c                spi_flash_hal_poll_cmd_done
 .text.spi_flash_hal_configure_host_io_mode
                0x0000000040385a64      0x1ae esp-idf/hal/libhal.a(spi_flash_hal_iram.c.obj)
                0x0000000040385a64                spi_flash_hal_configure_host_io_mode
 .text.spi_flash_hal_common_command
                0x0000000040385c12      0x1ac esp-idf/hal/libhal.a(spi_flash_hal_iram.c.obj)
                0x0000000040385c12                spi_flash_hal_common_command
 .text.spi_flash_hal_read
                0x0000000040385dbe       0xd2 esp-idf/hal/libhal.a(spi_flash_hal_iram.c.obj)
                0x0000000040385dbe                spi_flash_hal_read
 .text.spi_flash_hal_erase_chip
                0x0000000040385e90       0x24 esp-idf/hal/libhal.a(spi_flash_hal_iram.c.obj)
                0x0000000040385e90                spi_flash_hal_erase_chip
 .text.spi_flash_hal_erase_sector
                0x0000000040385eb4       0x4c esp-idf/hal/libhal.a(spi_flash_hal_iram.c.obj)
                0x0000000040385eb4                spi_flash_hal_erase_sector
 .text.spi_flash_hal_erase_block
                0x0000000040385f00       0x4a esp-idf/hal/libhal.a(spi_flash_hal_iram.c.obj)
                0x0000000040385f00                spi_flash_hal_erase_block
 .text.spi_flash_hal_program_page
                0x0000000040385f4a       0xba esp-idf/hal/libhal.a(spi_flash_hal_iram.c.obj)
                0x0000000040385f4a                spi_flash_hal_program_page
 .text.spi_flash_hal_set_write_protect
                0x0000000040386004       0x2c esp-idf/hal/libhal.a(spi_flash_hal_iram.c.obj)
                0x0000000040386004                spi_flash_hal_set_write_protect
 .text.spi_flash_hal_check_status
                0x0000000040386030       0x18 esp-idf/hal/libhal.a(spi_flash_hal_iram.c.obj)
                0x0000000040386030                spi_flash_hal_check_status
 .text.spi_flash_hal_setup_read_suspend
                0x0000000040386048       0xbc esp-idf/hal/libhal.a(spi_flash_hal_iram.c.obj)
                0x0000000040386048                spi_flash_hal_setup_read_suspend
 .text.spi_flash_hal_setup_auto_suspend_mode
                0x0000000040386104       0x62 esp-idf/hal/libhal.a(spi_flash_hal_iram.c.obj)
                0x0000000040386104                spi_flash_hal_setup_auto_suspend_mode
 .text.spi_flash_hal_setup_auto_resume_mode
                0x0000000040386166       0x3a esp-idf/hal/libhal.a(spi_flash_hal_iram.c.obj)
                0x0000000040386166                spi_flash_hal_setup_auto_resume_mode
 .text.spi_flash_hal_disable_auto_suspend_mode
                0x00000000403861a0       0x64 esp-idf/hal/libhal.a(spi_flash_hal_iram.c.obj)
                0x00000000403861a0                spi_flash_hal_disable_auto_suspend_mode
 .text.spi_flash_hal_disable_auto_resume_mode
                0x0000000040386204       0x3c esp-idf/hal/libhal.a(spi_flash_hal_iram.c.obj)
                0x0000000040386204                spi_flash_hal_disable_auto_resume_mode
 .text.spi_flash_hal_device_config
                0x0000000040386240       0xa8 esp-idf/hal/libhal.a(spi_flash_hal_iram.c.obj)
                0x0000000040386240                spi_flash_hal_device_config
 .text.spi_flash_hal_resume
                0x00000000403862e8       0x10 esp-idf/hal/libhal.a(spi_flash_hal_iram.c.obj)
                0x00000000403862e8                spi_flash_hal_resume
 .text.spi_flash_hal_suspend
                0x00000000403862f8       0x10 esp-idf/hal/libhal.a(spi_flash_hal_iram.c.obj)
                0x00000000403862f8                spi_flash_hal_suspend
 *libhal.a:spi_hal_iram.*(.literal .literal.* .text .text.*)
 *libhal.a:spi_slave_hal_iram.*(.literal .literal.* .text .text.*)
 *libhal.a:systimer_hal.*(.literal .literal.* .text .text.*)
 .text.periph_ll_get_clk_en_reg
                0x0000000040386308       0x1c esp-idf/hal/libhal.a(systimer_hal.c.obj)
 .text.periph_ll_get_rst_en_reg
                0x0000000040386324       0x1c esp-idf/hal/libhal.a(systimer_hal.c.obj)
 .text.systimer_hal_init
                0x0000000040386340       0x48 esp-idf/hal/libhal.a(systimer_hal.c.obj)
                0x0000000040386340                systimer_hal_init
 .text.systimer_hal_get_counter_value
                0x0000000040386388       0x52 esp-idf/hal/libhal.a(systimer_hal.c.obj)
                0x0000000040386388                systimer_hal_get_counter_value
 .text.systimer_hal_set_alarm_target
                0x00000000403863da       0x66 esp-idf/hal/libhal.a(systimer_hal.c.obj)
                0x00000000403863da                systimer_hal_set_alarm_target
 .text.systimer_hal_set_alarm_period
                0x0000000040386440       0x76 esp-idf/hal/libhal.a(systimer_hal.c.obj)
                0x0000000040386440                systimer_hal_set_alarm_period
 .text.systimer_hal_enable_alarm_int
                0x00000000403864b6       0x10 esp-idf/hal/libhal.a(systimer_hal.c.obj)
                0x00000000403864b6                systimer_hal_enable_alarm_int
 .text.systimer_hal_counter_value_advance
                0x00000000403864c6       0x6c esp-idf/hal/libhal.a(systimer_hal.c.obj)
                0x00000000403864c6                systimer_hal_counter_value_advance
 .text.systimer_hal_enable_counter
                0x0000000040386532       0x16 esp-idf/hal/libhal.a(systimer_hal.c.obj)
                0x0000000040386532                systimer_hal_enable_counter
 .text.systimer_hal_select_alarm_mode
                0x0000000040386548       0x34 esp-idf/hal/libhal.a(systimer_hal.c.obj)
                0x0000000040386548                systimer_hal_select_alarm_mode
 .text.systimer_hal_connect_alarm_counter
                0x000000004038657c       0x1c esp-idf/hal/libhal.a(systimer_hal.c.obj)
                0x000000004038657c                systimer_hal_connect_alarm_counter
 .text.systimer_hal_counter_can_stall_by_cpu
                0x0000000040386598       0x3c esp-idf/hal/libhal.a(systimer_hal.c.obj)
                0x0000000040386598                systimer_hal_counter_can_stall_by_cpu
 *libhal.a:wdt_hal_iram.*(.literal .literal.* .text .text.*)
 .text.wdt_hal_init
                0x00000000403865d4      0x230 esp-idf/hal/libhal.a(wdt_hal_iram.c.obj)
                0x00000000403865d4                wdt_hal_init
 .text.wdt_hal_config_stage
                0x0000000040386804      0x11c esp-idf/hal/libhal.a(wdt_hal_iram.c.obj)
                0x0000000040386804                wdt_hal_config_stage
 .text.wdt_hal_write_protect_disable
                0x0000000040386920       0x22 esp-idf/hal/libhal.a(wdt_hal_iram.c.obj)
                0x0000000040386920                wdt_hal_write_protect_disable
 .text.wdt_hal_write_protect_enable
                0x0000000040386942       0x14 esp-idf/hal/libhal.a(wdt_hal_iram.c.obj)
                0x0000000040386942                wdt_hal_write_protect_enable
 .text.wdt_hal_enable
                0x0000000040386956       0x38 esp-idf/hal/libhal.a(wdt_hal_iram.c.obj)
                0x0000000040386956                wdt_hal_enable
 .text.wdt_hal_disable
                0x000000004038698e       0x2c esp-idf/hal/libhal.a(wdt_hal_iram.c.obj)
                0x000000004038698e                wdt_hal_disable
 .text.wdt_hal_handle_intr
                0x00000000403869ba       0x32 esp-idf/hal/libhal.a(wdt_hal_iram.c.obj)
                0x00000000403869ba                wdt_hal_handle_intr
 .text.wdt_hal_feed
                0x00000000403869ec       0x1e esp-idf/hal/libhal.a(wdt_hal_iram.c.obj)
                0x00000000403869ec                wdt_hal_feed
 .text.wdt_hal_set_flashboot_en
                0x0000000040386a0a       0x3a esp-idf/hal/libhal.a(wdt_hal_iram.c.obj)
                0x0000000040386a0a                wdt_hal_set_flashboot_en
 .text.wdt_hal_is_enabled
                0x0000000040386a44       0x16 esp-idf/hal/libhal.a(wdt_hal_iram.c.obj)
                0x0000000040386a44                wdt_hal_is_enabled
 *libheap.a:heap_tlsf.*(.literal .literal.* .text .text.*)
 .text.control_construct
                0x0000000040386a5a       0x3e esp-idf/heap/libheap.a(heap_tlsf.c.obj)
 .text.default_walker
                0x0000000040386a98       0x2a esp-idf/heap/libheap.a(heap_tlsf.c.obj)
 .text.tlsf_walk_pool
                0x0000000040386ac2       0x52 esp-idf/heap/libheap.a(heap_tlsf.c.obj)
                0x0000000040386ac2                tlsf_walk_pool
 .text.tlsf_block_size
                0x0000000040386b14        0xe esp-idf/heap/libheap.a(heap_tlsf.c.obj)
                0x0000000040386b14                tlsf_block_size
 .text.tlsf_size
                0x0000000040386b22        0x6 esp-idf/heap/libheap.a(heap_tlsf.c.obj)
                0x0000000040386b22                tlsf_size
 .text.tlsf_block_size_min
                0x0000000040386b28        0x4 esp-idf/heap/libheap.a(heap_tlsf.c.obj)
                0x0000000040386b28                tlsf_block_size_min
 .text.tlsf_pool_overhead
                0x0000000040386b2c        0x4 esp-idf/heap/libheap.a(heap_tlsf.c.obj)
                0x0000000040386b2c                tlsf_pool_overhead
 .text.tlsf_add_pool
                0x0000000040386b30      0x16e esp-idf/heap/libheap.a(heap_tlsf.c.obj)
                0x0000000040386b30                tlsf_add_pool
 .text.tlsf_create
                0x0000000040386c9e       0x2e esp-idf/heap/libheap.a(heap_tlsf.c.obj)
                0x0000000040386c9e                tlsf_create
 .text.tlsf_get_pool
                0x0000000040386ccc       0x16 esp-idf/heap/libheap.a(heap_tlsf.c.obj)
                0x0000000040386ccc                tlsf_get_pool
 .text.tlsf_create_with_pool
                0x0000000040386ce2       0x34 esp-idf/heap/libheap.a(heap_tlsf.c.obj)
                0x0000000040386ce2                tlsf_create_with_pool
 .text.tlsf_malloc
                0x0000000040386d16      0x3d0 esp-idf/heap/libheap.a(heap_tlsf.c.obj)
                0x0000000040386d16                tlsf_malloc
 .text.tlsf_free
                0x00000000403870e6      0x3f2 esp-idf/heap/libheap.a(heap_tlsf.c.obj)
                0x00000000403870e6                tlsf_free
 .text.tlsf_realloc
                0x00000000403874d8      0x546 esp-idf/heap/libheap.a(heap_tlsf.c.obj)
                0x00000000403874d8                tlsf_realloc
 *libheap.a:multi_heap.*(.literal .literal.* .text .text.*)
 .text.multi_heap_get_info_tlsf
                0x0000000040387a1e       0x20 esp-idf/heap/libheap.a(multi_heap.c.obj)
 .text.assert_valid_block
                0x0000000040387a3e       0x4a esp-idf/heap/libheap.a(multi_heap.c.obj)
 .text.multi_heap_get_allocated_size_impl
                0x0000000040387a88       0x10 esp-idf/heap/libheap.a(multi_heap.c.obj)
                0x0000000040387a88                multi_heap_get_allocated_size_impl
                0x0000000040387a88                multi_heap_get_allocated_size
 .text.multi_heap_register_impl
                0x0000000040387a98       0x70 esp-idf/heap/libheap.a(multi_heap.c.obj)
                0x0000000040387a98                multi_heap_register
                0x0000000040387a98                multi_heap_register_impl
 .text.multi_heap_set_lock
                0x0000000040387b08        0x4 esp-idf/heap/libheap.a(multi_heap.c.obj)
                0x0000000040387b08                multi_heap_set_lock
 .text.multi_heap_malloc_impl
                0x0000000040387b0c       0x54 esp-idf/heap/libheap.a(multi_heap.c.obj)
                0x0000000040387b0c                multi_heap_malloc_impl
                0x0000000040387b0c                multi_heap_malloc
 .text.multi_heap_free_impl
                0x0000000040387b60       0x44 esp-idf/heap/libheap.a(multi_heap.c.obj)
                0x0000000040387b60                multi_heap_free_impl
                0x0000000040387b60                multi_heap_aligned_free
                0x0000000040387b60                multi_heap_free
 .text.multi_heap_realloc_impl
                0x0000000040387ba4       0x94 esp-idf/heap/libheap.a(multi_heap.c.obj)
                0x0000000040387ba4                multi_heap_realloc_impl
                0x0000000040387ba4                multi_heap_realloc
 .text.multi_heap_minimum_free_size_impl
                0x0000000040387c38        0xa esp-idf/heap/libheap.a(multi_heap.c.obj)
                0x0000000040387c38                multi_heap_minimum_free_size_impl
                0x0000000040387c38                multi_heap_minimum_free_size
 .text.multi_heap_get_info_impl
                0x0000000040387c42       0x82 esp-idf/heap/libheap.a(multi_heap.c.obj)
                0x0000000040387c42                multi_heap_get_info
                0x0000000040387c42                multi_heap_get_info_impl
 *liblog.a:log.*(.literal.esp_log_write .text.esp_log_write)
 .text.esp_log_write
                0x0000000040387cc4       0x20 esp-idf/log/liblog.a(log.c.obj)
                0x0000000040387cc4                esp_log_write
 *liblog.a:log_freertos.*(.literal.esp_log_early_timestamp .text.esp_log_early_timestamp)
 .text.esp_log_early_timestamp
                0x0000000040387ce4       0x26 esp-idf/log/liblog.a(log_freertos.c.obj)
                0x0000000040387ce4                esp_log_early_timestamp
 *liblog.a:log_freertos.*(.literal.esp_log_impl_lock .text.esp_log_impl_lock)
 *liblog.a:log_freertos.*(.literal.esp_log_impl_lock_timeout .text.esp_log_impl_lock_timeout)
 .text.esp_log_impl_lock_timeout
                0x0000000040387d0a       0x46 esp-idf/log/liblog.a(log_freertos.c.obj)
                0x0000000040387d0a                esp_log_impl_lock_timeout
 *liblog.a:log_freertos.*(.literal.esp_log_impl_unlock .text.esp_log_impl_unlock)
 .text.esp_log_impl_unlock
                0x0000000040387d50       0x26 esp-idf/log/liblog.a(log_freertos.c.obj)
                0x0000000040387d50                esp_log_impl_unlock
 *liblog.a:log_freertos.*(.literal.esp_log_timestamp .text.esp_log_timestamp)
 .text.esp_log_timestamp
                0x0000000040387d76       0x56 esp-idf/log/liblog.a(log_freertos.c.obj)
                0x0000000040387d76                esp_log_timestamp
 *libnewlib.a:abort.*(.literal .literal.* .text .text.*)
 .text.abort    0x0000000040387dcc       0x80 esp-idf/newlib/libnewlib.a(abort.c.obj)
                0x0000000040387dcc                abort
 *libnewlib.a:heap.*(.literal .literal.* .text .text.*)
 .text.malloc   0x0000000040387e4c        0xe esp-idf/newlib/libnewlib.a(heap.c.obj)
                0x0000000040387e4c                pvalloc
                0x0000000040387e4c                valloc
                0x0000000040387e4c                malloc
 .text.realloc  0x0000000040387e5a        0xe esp-idf/newlib/libnewlib.a(heap.c.obj)
                0x0000000040387e5a                realloc
 .text.free     0x0000000040387e68        0xe esp-idf/newlib/libnewlib.a(heap.c.obj)
                0x0000000040387e68                free
                0x0000000040387e68                cfree
 .text._malloc_r
                0x0000000040387e76       0x10 esp-idf/newlib/libnewlib.a(heap.c.obj)
                0x0000000040387e76                _malloc_r
 .text._free_r  0x0000000040387e86       0x10 esp-idf/newlib/libnewlib.a(heap.c.obj)
                0x0000000040387e86                _free_r
 .text._realloc_r
                0x0000000040387e96       0x12 esp-idf/newlib/libnewlib.a(heap.c.obj)
                0x0000000040387e96                _realloc_r
 .text._calloc_r
                0x0000000040387ea8       0x3e esp-idf/newlib/libnewlib.a(heap.c.obj)
                0x0000000040387ea8                _calloc_r
 .text.calloc   0x0000000040387ee6       0x22 esp-idf/newlib/libnewlib.a(heap.c.obj)
                0x0000000040387ee6                calloc
 .text.newlib_include_heap_impl
                0x0000000040387f08        0x2 esp-idf/newlib/libnewlib.a(heap.c.obj)
                0x0000000040387f08                newlib_include_heap_impl
 *libnewlib.a:stdatomic.*(.literal .literal.* .text .text.*)
 *libriscv.a:interrupt.*(.literal .literal.* .text .text.*)
 .text.intr_handler_set
                0x0000000040387f0a       0x42 esp-idf/riscv/libriscv.a(interrupt.c.obj)
                0x0000000040387f0a                intr_handler_set
 .text.intr_handler_get
                0x0000000040387f4c       0x10 esp-idf/riscv/libriscv.a(interrupt.c.obj)
                0x0000000040387f4c                intr_handler_get
 .text._global_interrupt_handler
                0x0000000040387f5c       0x24 esp-idf/riscv/libriscv.a(interrupt.c.obj)
                0x0000000040387f5c                _global_interrupt_handler
 .text.riscv_global_interrupts_enable
                0x0000000040387f80        0x6 esp-idf/riscv/libriscv.a(interrupt.c.obj)
                0x0000000040387f80                riscv_global_interrupts_enable
 .text.riscv_global_interrupts_disable
                0x0000000040387f86        0x6 esp-idf/riscv/libriscv.a(interrupt.c.obj)
                0x0000000040387f86                riscv_global_interrupts_disable
 *libriscv.a:vectors.*(.literal .literal.* .text .text.*)
 *librtc.a:(.literal .literal.* .text .text.*)
 *libsoc.a:lldesc.*(.literal .literal.* .text .text.*)
 *libspi_flash.a:memspi_host_driver.*(.literal .literal.* .text .text.*)
 .text.memspi_host_read_status_hs
                0x0000000040387f8c       0x3c esp-idf/spi_flash/libspi_flash.a(memspi_host_driver.c.obj)
                0x0000000040387f8c                memspi_host_read_status_hs
 .text.memspi_host_erase_chip
                0x0000000040387fc8       0x26 esp-idf/spi_flash/libspi_flash.a(memspi_host_driver.c.obj)
                0x0000000040387fc8                memspi_host_erase_chip
 .text.memspi_host_set_write_protect
                0x0000000040387fee       0x2c esp-idf/spi_flash/libspi_flash.a(memspi_host_driver.c.obj)
                0x0000000040387fee                memspi_host_set_write_protect
 .text.memspi_host_write_data_slicer
                0x000000004038801a       0x22 esp-idf/spi_flash/libspi_flash.a(memspi_host_driver.c.obj)
                0x000000004038801a                memspi_host_write_data_slicer
 .text.memspi_host_read_data_slicer
                0x000000004038803c       0x12 esp-idf/spi_flash/libspi_flash.a(memspi_host_driver.c.obj)
                0x000000004038803c                memspi_host_read_data_slicer
 .text.memspi_host_read_id_hs
                0x000000004038804e       0x84 esp-idf/spi_flash/libspi_flash.a(memspi_host_driver.c.obj)
                0x000000004038804e                memspi_host_read_id_hs
 .text.memspi_host_flush_cache
                0x00000000403880d2       0x26 esp-idf/spi_flash/libspi_flash.a(memspi_host_driver.c.obj)
                0x00000000403880d2                memspi_host_flush_cache
 .text.memspi_host_erase_sector
                0x00000000403880f8       0x4c esp-idf/spi_flash/libspi_flash.a(memspi_host_driver.c.obj)
                0x00000000403880f8                memspi_host_erase_sector
 .text.memspi_host_erase_block
                0x0000000040388144       0x4c esp-idf/spi_flash/libspi_flash.a(memspi_host_driver.c.obj)
                0x0000000040388144                memspi_host_erase_block
 .text.memspi_host_program_page
                0x0000000040388190       0x54 esp-idf/spi_flash/libspi_flash.a(memspi_host_driver.c.obj)
                0x0000000040388190                memspi_host_program_page
 .text.memspi_host_init_pointers
                0x00000000403881e4       0x24 esp-idf/spi_flash/libspi_flash.a(memspi_host_driver.c.obj)
                0x00000000403881e4                memspi_host_init_pointers
 *libspi_flash.a:spi_flash_chip_boya.*(.literal .literal.* .text .text.*)
 .text.spi_flash_chip_boya_probe
                0x0000000040388208       0x2a esp-idf/spi_flash/libspi_flash.a(spi_flash_chip_boya.c.obj)
                0x0000000040388208                spi_flash_chip_boya_probe
 .text.spi_flash_chip_boya_get_caps
                0x0000000040388232        0x4 esp-idf/spi_flash/libspi_flash.a(spi_flash_chip_boya.c.obj)
                0x0000000040388232                spi_flash_chip_boya_get_caps
 *libspi_flash.a:spi_flash_chip_gd.*(.literal .literal.* .text .text.*)
 .text.spi_flash_chip_gd_get_caps
                0x0000000040388236       0x16 esp-idf/spi_flash/libspi_flash.a(spi_flash_chip_gd.c.obj)
                0x0000000040388236                spi_flash_chip_gd_get_caps
 .text.spi_flash_chip_gd_probe
                0x000000004038824c       0x34 esp-idf/spi_flash/libspi_flash.a(spi_flash_chip_gd.c.obj)
                0x000000004038824c                spi_flash_chip_gd_probe
 .text.spi_flash_chip_gd_set_io_mode
                0x0000000040388280       0x54 esp-idf/spi_flash/libspi_flash.a(spi_flash_chip_gd.c.obj)
                0x0000000040388280                spi_flash_chip_gd_set_io_mode
 .text.spi_flash_chip_gd_get_io_mode
                0x00000000403882d4       0x20 esp-idf/spi_flash/libspi_flash.a(spi_flash_chip_gd.c.obj)
                0x00000000403882d4                spi_flash_chip_gd_get_io_mode
 *libspi_flash.a:spi_flash_chip_generic.*(.literal .literal.* .text .text.*)
 .text.spi_flash_chip_generic_probe
                0x00000000403882f4        0x4 esp-idf/spi_flash/libspi_flash.a(spi_flash_chip_generic.c.obj)
                0x00000000403882f4                spi_flash_chip_generic_probe
 .text.spi_flash_chip_generic_reset
                0x00000000403882f8       0x5c esp-idf/spi_flash/libspi_flash.a(spi_flash_chip_generic.c.obj)
                0x00000000403882f8                spi_flash_chip_generic_reset
 .text.spi_flash_chip_generic_detect_size
                0x0000000040388354       0x2e esp-idf/spi_flash/libspi_flash.a(spi_flash_chip_generic.c.obj)
                0x0000000040388354                spi_flash_chip_generic_detect_size
 .text.spi_flash_chip_generic_erase_chip
                0x0000000040388382       0x60 esp-idf/spi_flash/libspi_flash.a(spi_flash_chip_generic.c.obj)
                0x0000000040388382                spi_flash_chip_generic_erase_chip
 .text.spi_flash_chip_generic_erase_sector
                0x00000000403883e2       0x68 esp-idf/spi_flash/libspi_flash.a(spi_flash_chip_generic.c.obj)
                0x00000000403883e2                spi_flash_chip_generic_erase_sector
 .text.spi_flash_chip_generic_erase_block
                0x000000004038844a       0x68 esp-idf/spi_flash/libspi_flash.a(spi_flash_chip_generic.c.obj)
                0x000000004038844a                spi_flash_chip_generic_erase_block
 .text.spi_flash_chip_generic_page_program
                0x00000000403884b2       0x6c esp-idf/spi_flash/libspi_flash.a(spi_flash_chip_generic.c.obj)
                0x00000000403884b2                spi_flash_chip_generic_page_program
 .text.spi_flash_chip_generic_write_encrypted
                0x000000004038851e       0xea esp-idf/spi_flash/libspi_flash.a(spi_flash_chip_generic.c.obj)
                0x000000004038851e                spi_flash_chip_generic_write_encrypted
 .text.spi_flash_chip_generic_set_write_protect
                0x0000000040388608       0x4e esp-idf/spi_flash/libspi_flash.a(spi_flash_chip_generic.c.obj)
                0x0000000040388608                spi_flash_chip_generic_set_write_protect
 .text.spi_flash_chip_generic_read_reg
                0x0000000040388656       0x14 esp-idf/spi_flash/libspi_flash.a(spi_flash_chip_generic.c.obj)
                0x0000000040388656                spi_flash_chip_generic_read_reg
 .text.spi_flash_chip_generic_wait_idle
                0x000000004038866a       0xb0 esp-idf/spi_flash/libspi_flash.a(spi_flash_chip_generic.c.obj)
                0x000000004038866a                spi_flash_chip_generic_wait_idle
 .text.spi_flash_chip_generic_get_caps
                0x000000004038871a       0x18 esp-idf/spi_flash/libspi_flash.a(spi_flash_chip_generic.c.obj)
                0x000000004038871a                spi_flash_chip_generic_get_caps
 .text.spi_flash_common_read_qe_sr
                0x0000000040388732       0x38 esp-idf/spi_flash/libspi_flash.a(spi_flash_chip_generic.c.obj)
 .text.spi_flash_common_write_qe_sr
                0x000000004038876a       0x2e esp-idf/spi_flash/libspi_flash.a(spi_flash_chip_generic.c.obj)
 .text.spi_flash_common_read_status_16b_rdsr_rdsr2
                0x0000000040388798       0x46 esp-idf/spi_flash/libspi_flash.a(spi_flash_chip_generic.c.obj)
                0x0000000040388798                spi_flash_common_read_status_16b_rdsr_rdsr2
 .text.spi_flash_common_write_status_16b_wrsr
                0x00000000403887de       0x14 esp-idf/spi_flash/libspi_flash.a(spi_flash_chip_generic.c.obj)
                0x00000000403887de                spi_flash_common_write_status_16b_wrsr
 .text.spi_flash_chip_generic_write
                0x00000000403887f2       0xb8 esp-idf/spi_flash/libspi_flash.a(spi_flash_chip_generic.c.obj)
                0x00000000403887f2                spi_flash_chip_generic_write
 .text.spi_flash_chip_generic_get_write_protect
                0x00000000403888aa       0x4a esp-idf/spi_flash/libspi_flash.a(spi_flash_chip_generic.c.obj)
                0x00000000403888aa                spi_flash_chip_generic_get_write_protect
 .text.spi_flash_chip_generic_yield
                0x00000000403888f4       0x46 esp-idf/spi_flash/libspi_flash.a(spi_flash_chip_generic.c.obj)
                0x00000000403888f4                spi_flash_chip_generic_yield
 .text.spi_flash_chip_generic_suspend_cmd_conf
                0x000000004038893a       0x6a esp-idf/spi_flash/libspi_flash.a(spi_flash_chip_generic.c.obj)
                0x000000004038893a                spi_flash_chip_generic_suspend_cmd_conf
 .text.spi_flash_chip_generic_read_unique_id
                0x00000000403889a4       0xa8 esp-idf/spi_flash/libspi_flash.a(spi_flash_chip_generic.c.obj)
                0x00000000403889a4                spi_flash_chip_generic_read_unique_id
 .text.spi_flash_chip_generic_config_host_io_mode
                0x0000000040388a4c       0xee esp-idf/spi_flash/libspi_flash.a(spi_flash_chip_generic.c.obj)
                0x0000000040388a4c                spi_flash_chip_generic_config_host_io_mode
 .text.spi_flash_chip_generic_read
                0x0000000040388b3a       0xda esp-idf/spi_flash/libspi_flash.a(spi_flash_chip_generic.c.obj)
                0x0000000040388b3a                spi_flash_chip_generic_read
 .text.spi_flash_common_read_status_8b_rdsr2
                0x0000000040388c14       0x16 esp-idf/spi_flash/libspi_flash.a(spi_flash_chip_generic.c.obj)
                0x0000000040388c14                spi_flash_common_read_status_8b_rdsr2
 .text.spi_flash_chip_generic_get_io_mode
                0x0000000040388c2a       0x20 esp-idf/spi_flash/libspi_flash.a(spi_flash_chip_generic.c.obj)
                0x0000000040388c2a                spi_flash_chip_generic_get_io_mode
 .text.spi_flash_common_read_status_8b_rdsr
                0x0000000040388c4a       0x14 esp-idf/spi_flash/libspi_flash.a(spi_flash_chip_generic.c.obj)
                0x0000000040388c4a                spi_flash_common_read_status_8b_rdsr
 .text.spi_flash_common_write_status_8b_wrsr
                0x0000000040388c5e       0x14 esp-idf/spi_flash/libspi_flash.a(spi_flash_chip_generic.c.obj)
                0x0000000040388c5e                spi_flash_common_write_status_8b_wrsr
 .text.spi_flash_common_write_status_8b_wrsr2
                0x0000000040388c72       0x16 esp-idf/spi_flash/libspi_flash.a(spi_flash_chip_generic.c.obj)
                0x0000000040388c72                spi_flash_common_write_status_8b_wrsr2
 .text.spi_flash_common_set_io_mode
                0x0000000040388c88       0xb6 esp-idf/spi_flash/libspi_flash.a(spi_flash_chip_generic.c.obj)
                0x0000000040388c88                spi_flash_common_set_io_mode
 .text.spi_flash_chip_generic_set_io_mode
                0x0000000040388d3e       0x22 esp-idf/spi_flash/libspi_flash.a(spi_flash_chip_generic.c.obj)
                0x0000000040388d3e                spi_flash_chip_generic_set_io_mode
 *libspi_flash.a:spi_flash_chip_issi.*(.literal .literal.* .text .text.*)
 .text.spi_flash_chip_issi_probe
                0x0000000040388d60       0x2a esp-idf/spi_flash/libspi_flash.a(spi_flash_chip_issi.c.obj)
                0x0000000040388d60                spi_flash_chip_issi_probe
 .text.spi_flash_chip_issi_get_caps
                0x0000000040388d8a        0x4 esp-idf/spi_flash/libspi_flash.a(spi_flash_chip_issi.c.obj)
                0x0000000040388d8a                spi_flash_chip_issi_get_caps
 .text.spi_flash_chip_issi_set_io_mode
                0x0000000040388d8e       0x22 esp-idf/spi_flash/libspi_flash.a(spi_flash_chip_issi.c.obj)
                0x0000000040388d8e                spi_flash_chip_issi_set_io_mode
 .text.spi_flash_chip_issi_get_io_mode
                0x0000000040388db0       0x20 esp-idf/spi_flash/libspi_flash.a(spi_flash_chip_issi.c.obj)
                0x0000000040388db0                spi_flash_chip_issi_get_io_mode
 *libspi_flash.a:spi_flash_chip_mxic.*(.literal .literal.* .text .text.*)
 .text.spi_flash_chip_mxic_probe
                0x0000000040388dd0       0x14 esp-idf/spi_flash/libspi_flash.a(spi_flash_chip_mxic.c.obj)
                0x0000000040388dd0                spi_flash_chip_mxic_probe
 .text.spi_flash_chip_mxic_get_caps
                0x0000000040388de4        0x4 esp-idf/spi_flash/libspi_flash.a(spi_flash_chip_mxic.c.obj)
                0x0000000040388de4                spi_flash_chip_mxic_get_caps
 .text.spi_flash_chip_mxic_read_unique_id
                0x0000000040388de8       0x34 esp-idf/spi_flash/libspi_flash.a(spi_flash_chip_mxic.c.obj)
                0x0000000040388de8                spi_flash_chip_mxic_read_unique_id
 *libspi_flash.a:spi_flash_chip_winbond.*(.literal .literal.* .text .text.*)
 .text.spi_flash_chip_winbond_probe
                0x0000000040388e1c       0x14 esp-idf/spi_flash/libspi_flash.a(spi_flash_chip_winbond.c.obj)
                0x0000000040388e1c                spi_flash_chip_winbond_probe
 .text.spi_flash_chip_winbond_get_caps
                0x0000000040388e30       0x16 esp-idf/spi_flash/libspi_flash.a(spi_flash_chip_winbond.c.obj)
                0x0000000040388e30                spi_flash_chip_winbond_get_caps
 .text.spi_flash_command_winbond_program_4B
                0x0000000040388e46       0x4a esp-idf/spi_flash/libspi_flash.a(spi_flash_chip_winbond.c.obj)
 .text.spi_flash_chip_winbond_page_program
                0x0000000040388e90       0x4a esp-idf/spi_flash/libspi_flash.a(spi_flash_chip_winbond.c.obj)
                0x0000000040388e90                spi_flash_chip_winbond_page_program
 .text.spi_flash_command_winbond_erase_sector_4B
                0x0000000040388eda       0x4a esp-idf/spi_flash/libspi_flash.a(spi_flash_chip_winbond.c.obj)
 .text.spi_flash_chip_winbond_erase_sector
                0x0000000040388f24       0x58 esp-idf/spi_flash/libspi_flash.a(spi_flash_chip_winbond.c.obj)
                0x0000000040388f24                spi_flash_chip_winbond_erase_sector
 .text.spi_flash_command_erase_block_4B
                0x0000000040388f7c       0x4a esp-idf/spi_flash/libspi_flash.a(spi_flash_chip_winbond.c.obj)
 .text.spi_flash_chip_winbond_erase_block
                0x0000000040388fc6       0x58 esp-idf/spi_flash/libspi_flash.a(spi_flash_chip_winbond.c.obj)
                0x0000000040388fc6                spi_flash_chip_winbond_erase_block
 .text.spi_flash_chip_winbond_read
                0x000000004038901e       0xea esp-idf/spi_flash/libspi_flash.a(spi_flash_chip_winbond.c.obj)
                0x000000004038901e                spi_flash_chip_winbond_read
 *libspi_flash.a:spi_flash_rom_patch.*(.literal .literal.* .text .text.*)

.dram0.dummy    0x000000003fc80000     0x9200
                0x000000003fc89200                . = ((ORIGIN (dram0_0_seg) + _iram_end) - _iram_start)
 *fill*         0x000000003fc80000     0x9200 

.dram0.data     0x000000003fc89200     0x1300
                0x000000003fc89200                _data_start = ABSOLUTE (.)
 *(.gnu.linkonce.d.*)
 *(.data1)
                0x000000003fc89a00                __global_pointer$ = (. + 0x800)
 *(.sdata)
 .sdata         0x000000003fc89200        0x4 /home/xy/.espressif/tools/riscv32-esp-elf/esp-2021r1-8.4.0/riscv32-esp-elf/bin/../lib/gcc/riscv32-esp-elf/8.4.0/../../../../riscv32-esp-elf/lib/rv32im/ilp32\libc.a(lib_a-locale.o)
                0x000000003fc89200                __global_locale_ptr
 *(.sdata.*)
 .sdata.first_call.3866
                0x000000003fc89204        0x1 esp-idf/app_update/libapp_update.a(esp_app_desc.c.obj)
 *fill*         0x000000003fc89205        0x3 
 .sdata.rtc_wdt_ctx
                0x000000003fc89208        0x8 esp-idf/esp_system/libesp_system.a(panic.c.obj)
 .sdata.s_panic_uart
                0x000000003fc89210        0x4 esp-idf/esp_system/libesp_system.a(panic.c.obj)
 .sdata.wdt0_context
                0x000000003fc89214        0x8 esp-idf/esp_system/libesp_system.a(panic_handler.c.obj)
 .sdata.esp_log_default_level
                0x000000003fc8921c        0x4 esp-idf/log/liblog.a(log.c.obj)
                0x000000003fc8921c                esp_log_default_level
 .sdata.s_log_print_func
                0x000000003fc89220        0x4 esp-idf/log/liblog.a(log.c.obj)
 .sdata.malloc_alwaysinternal_limit
                0x000000003fc89224        0x4 esp-idf/heap/libheap.a(heap_caps.c.obj)
 .sdata.xIsrStackTop
                0x000000003fc89228        0x4 esp-idf/freertos/libfreertos.a(port.c.obj)
                0x000000003fc89228                xIsrStackTop
 .sdata.xTaskQueueMutex
                0x000000003fc8922c        0x8 esp-idf/freertos/libfreertos.a(tasks.c.obj)
 .sdata.uart_selectlock
                0x000000003fc89234        0x8 esp-idf/driver/libdriver.a(uart.c.obj)
 .sdata.esp_flash_registered_chips
                0x000000003fc8923c        0x4 esp-idf/spi_flash/libspi_flash.a(spi_flash_chip_drivers.c.obj)
                0x000000003fc8923c                esp_flash_registered_chips
 .sdata.ESP_EFUSE_WAFER_VERSION
                0x000000003fc89240        0x8 esp-idf/efuse/libefuse.a(esp_efuse_table.c.obj)
                0x000000003fc89240                ESP_EFUSE_WAFER_VERSION
 *(.gnu.linkonce.s.*)
 *(.sdata2)
 *(.sdata2.*)
 .sdata2.g_startup_fn
                0x000000003fc89248        0x4 esp-idf/esp_system/libesp_system.a(startup.c.obj)
                0x000000003fc89248                g_startup_fn
 .sdata2.s_ctx  0x000000003fc8924c        0x8 esp-idf/vfs/libvfs.a(vfs_uart.c.obj)
 .sdata2.soc_memory_region_count
                0x000000003fc89254        0x4 esp-idf/heap/libheap.a(memory_layout.c.obj)
                0x000000003fc89254                soc_memory_region_count
 .sdata2.chip_name
                0x000000003fc89258        0x8 esp-idf/spi_flash/libspi_flash.a(spi_flash_chip_generic.c.obj)
 .sdata2.chip_name
                0x000000003fc89260        0x5 esp-idf/spi_flash/libspi_flash.a(spi_flash_chip_issi.c.obj)
 *fill*         0x000000003fc89265        0x3 
 .sdata2.chip_name
                0x000000003fc89268        0x5 esp-idf/spi_flash/libspi_flash.a(spi_flash_chip_mxic.c.obj)
 *fill*         0x000000003fc8926d        0x3 
 .sdata2.chip_name
                0x000000003fc89270        0x3 esp-idf/spi_flash/libspi_flash.a(spi_flash_chip_gd.c.obj)
 *fill*         0x000000003fc89273        0x1 
 .sdata2.TAG    0x000000003fc89274        0x8 esp-idf/spi_flash/libspi_flash.a(spi_flash_chip_winbond.c.obj)
 .sdata2.chip_name
                0x000000003fc8927c        0x8 esp-idf/spi_flash/libspi_flash.a(spi_flash_chip_winbond.c.obj)
 .sdata2.chip_name
                0x000000003fc89284        0x5 esp-idf/spi_flash/libspi_flash.a(spi_flash_chip_boya.c.obj)
 *fill*         0x000000003fc89289        0x3 
 .sdata2.TAG    0x000000003fc8928c        0x7 esp-idf/spi_flash/libspi_flash.a(memspi_host_driver.c.obj)
 *fill*         0x000000003fc89293        0x1 
 .sdata2.esp_unknown_msg
                0x000000003fc89294        0x6 esp-idf/esp_common/libesp_common.a(esp_err_to_name.c.obj)
 *fill*         0x000000003fc8929a        0x2 
 .sdata2.WAFER_VERSION
                0x000000003fc8929c        0x4 esp-idf/efuse/libefuse.a(esp_efuse_table.c.obj)
 .sdata2.g_spi_lock_main_flash_dev
                0x000000003fc892a0        0x4 esp-idf/driver/libdriver.a(spi_bus_lock.c.obj)
                0x000000003fc892a0                g_spi_lock_main_flash_dev
 *(.gnu.linkonce.s2.*)
 *(.jcr)
                0x000000003fc892a4                _esp_system_init_fn_array_start = ABSOLUTE (.)
 *(SORT_BY_NAME(.esp_system_init_fn) SORT_BY_NAME(.esp_system_init_fn.*))
 .esp_system_init_fn.init_components0
                0x000000003fc892a4        0x8 esp-idf/esp_system/libesp_system.a(startup.c.obj)
                0x000000003fc892ac                _esp_system_init_fn_array_end = ABSOLUTE (.)
 *(EXCLUDE_FILE(*libnimble.a *libbtdm_app.a *libbt.a) .data EXCLUDE_FILE(*libnimble.a *libbtdm_app.a *libbt.a) .data.*)
 .data.s_fd_table
                0x000000003fc892ac       0xc0 esp-idf/vfs/libvfs.a(vfs.c.obj)
 .data.s_context
                0x000000003fc8936c       0x48 esp-idf/vfs/libvfs.a(vfs_uart.c.obj)
 *fill*         0x000000003fc893b4        0x4 
 .data.timestamp_id.4851
                0x000000003fc893b8       0x10 esp-idf/esp_timer/libesp_timer.a(esp_timer_impl_systimer.c.obj)
 .data.s_stub_table
                0x000000003fc893c8       0x9c esp-idf/newlib/libnewlib.a(newlib_init.c.obj)
 .data.uart_context
                0x000000003fc89464       0x20 esp-idf/driver/libdriver.a(uart.c.obj)
 .data.default_registered_chips
                0x000000003fc89484       0x1c esp-idf/spi_flash/libspi_flash.a(spi_flash_chip_drivers.c.obj)
 *(.dram1 .dram1.*)
 .dram1.24      0x000000003fc894a0        0x4 esp-idf/freertos/libfreertos.a(FreeRTOS-openocd.c.obj)
                0x000000003fc894a0                uxTopUsedPriority
 .dram1.27      0x000000003fc894a4       0x18 esp-idf/spi_flash/libspi_flash.a(flash_ops.c.obj)
                0x000000003fc894a4                g_flash_guard_default_ops
 .dram1.24      0x000000003fc894bc       0x10 esp-idf/spi_flash/libspi_flash.a(esp_flash_api.c.obj)
 .dram1.25      0x000000003fc894cc        0x4 esp-idf/spi_flash/libspi_flash.a(esp_flash_api.c.obj)
                0x000000003fc894cc                rom_spiflash_api_funcs
 .dram1.25      0x000000003fc894d0       0x24 esp-idf/spi_flash/libspi_flash.a(esp_flash_spi_init.c.obj)
 .dram1.26      0x000000003fc894f4       0x20 esp-idf/spi_flash/libspi_flash.a(esp_flash_spi_init.c.obj)
 .dram1.42      0x000000003fc89514       0x10 esp-idf/spi_flash/libspi_flash.a(spi_flash_os_func_app.c.obj)
 .dram1.43      0x000000003fc89524       0x24 esp-idf/spi_flash/libspi_flash.a(spi_flash_os_func_app.c.obj)
 .dram1.5       0x000000003fc89548       0x24 esp-idf/spi_flash/libspi_flash.a(spi_flash_os_func_noos.c.obj)
                0x000000003fc89548                esp_flash_noos_functions
 .dram1.0       0x000000003fc8956c        0x6 esp-idf/spi_flash/libspi_flash.a(spi_flash_chip_generic.c.obj)
 *fill*         0x000000003fc89572        0x2 
 .dram1.1       0x000000003fc89574       0x18 esp-idf/spi_flash/libspi_flash.a(spi_flash_chip_generic.c.obj)
 .dram1.2       0x000000003fc8958c        0x4 esp-idf/spi_flash/libspi_flash.a(spi_flash_chip_generic.c.obj)
                0x000000003fc8958c                rom_flash_chip_dummy
 .dram1.3       0x000000003fc89590       0x14 esp-idf/spi_flash/libspi_flash.a(spi_flash_chip_generic.c.obj)
                0x000000003fc89590                spi_flash_chip_generic_timeout
 .dram1.19      0x000000003fc895a4       0x58 esp-idf/spi_flash/libspi_flash.a(memspi_host_driver.c.obj)
 .dram1.27      0x000000003fc895fc        0x6 esp-idf/esp_system/libesp_system.a(task_wdt.c.obj)
 *fill*         0x000000003fc89602        0x2 
 .dram1.28      0x000000003fc89604        0x6 esp-idf/esp_system/libesp_system.a(task_wdt.c.obj)
 *fill*         0x000000003fc8960a        0x2 
 .dram1.29      0x000000003fc8960c        0x8 esp-idf/esp_system/libesp_system.a(task_wdt.c.obj)
 .dram1.30      0x000000003fc89614       0x19 esp-idf/esp_system/libesp_system.a(task_wdt.c.obj)
                0x000000003fc8962d                _coredump_dram_start = ABSOLUTE (.)
 *(.dram1.coredump .dram1.coredump.*)
                0x000000003fc8962d                _coredump_dram_end = ABSOLUTE (.)
 *libapp_trace.a:app_trace.*(.rodata .rodata.*)
 *libapp_trace.a:app_trace_util.*(.rodata .rodata.*)
                0x000000003fc8962d                _bt_data_start = ABSOLUTE (.)
 *libbt.a:(.data .data.*)
                0x000000003fc89630                . = ALIGN (0x4)
 *fill*         0x000000003fc8962d        0x3 
                0x000000003fc89630                _bt_data_end = ABSOLUTE (.)
                0x000000003fc89630                _btdm_data_start = ABSOLUTE (.)
 *libbtdm_app.a:(.data .data.*)
                0x000000003fc89630                . = ALIGN (0x4)
                0x000000003fc89630                _btdm_data_end = ABSOLUTE (.)
 *libesp_hw_support.a:rtc_clk.*(.rodata .rodata.*)
 .rodata.rtc_clk_xtal_freq_get.str1.4
                0x000000003fc89630       0x47 esp-idf/esp_hw_support/libesp_hw_support.a(rtc_clk.c.obj)
 *libesp_system.a:esp_err.*(.rodata .rodata.*)
 *fill*         0x000000003fc89677        0x1 
 .rodata._esp_error_check_failed.str1.4
                0x000000003fc89678       0x10 esp-idf/esp_system/libesp_system.a(esp_err.c.obj)
 .rodata.esp_error_check_failed_print.str1.4
                0x000000003fc89688       0x5c esp-idf/esp_system/libesp_system.a(esp_err.c.obj)
 *libesp_system.a:ubsan.*(.rodata .rodata.*)
 *libgcc.a:_divsf3.*(.rodata .rodata.*)
 *libgcov.a:(.rodata .rodata.*)
 *libhal.a:cpu_hal.*(.rodata .rodata.*)
 *libhal.a:i2c_hal_iram.*(.rodata .rodata.*)
 *libhal.a:ledc_hal_iram.*(.rodata .rodata.*)
 *libhal.a:soc_hal.*(.rodata .rodata.*)
 *libhal.a:spi_flash_encrypt_hal_iram.*(.rodata .rodata.*)
 *libhal.a:spi_flash_hal_gpspi.*(.rodata .rodata.*)
 *libhal.a:spi_flash_hal_iram.*(.rodata .rodata.*)
 *libhal.a:spi_hal_iram.*(.rodata .rodata.*)
 *libhal.a:spi_slave_hal_iram.*(.rodata .rodata.*)
 *libhal.a:systimer_hal.*(.rodata .rodata.*)
 .rodata.systimer_hal_set_alarm_period.str1.4
                0x000000003fc896e4       0x55 esp-idf/hal/libhal.a(systimer_hal.c.obj)
 *libhal.a:wdt_hal_iram.*(.rodata .rodata.*)
 *libheap.a:heap_tlsf.*(.rodata .rodata.*)
 *fill*         0x000000003fc89739        0x3 
 .rodata.__func__.3670
                0x000000003fc8973c       0x16 esp-idf/heap/libheap.a(heap_tlsf.c.obj)
 *fill*         0x000000003fc89752        0x2 
 .rodata.__func__.3679
                0x000000003fc89754       0x12 esp-idf/heap/libheap.a(heap_tlsf.c.obj)
 *fill*         0x000000003fc89766        0x2 
 .rodata.__func__.3687
                0x000000003fc89768       0x12 esp-idf/heap/libheap.a(heap_tlsf.c.obj)
 *fill*         0x000000003fc8977a        0x2 
 .rodata.__func__.3710
                0x000000003fc8977c        0xc esp-idf/heap/libheap.a(heap_tlsf.c.obj)
 .rodata.__func__.3715
                0x000000003fc89788        0xd esp-idf/heap/libheap.a(heap_tlsf.c.obj)
 *fill*         0x000000003fc89795        0x3 
 .rodata.__func__.3721
                0x000000003fc89798       0x11 esp-idf/heap/libheap.a(heap_tlsf.c.obj)
 *fill*         0x000000003fc897a9        0x3 
 .rodata.__func__.3727
                0x000000003fc897ac       0x11 esp-idf/heap/libheap.a(heap_tlsf.c.obj)
 *fill*         0x000000003fc897bd        0x3 
 .rodata.__func__.3733
                0x000000003fc897c0       0x10 esp-idf/heap/libheap.a(heap_tlsf.c.obj)
 .rodata.__func__.3740
                0x000000003fc897d0       0x10 esp-idf/heap/libheap.a(heap_tlsf.c.obj)
 .rodata.__func__.3755
                0x000000003fc897e0       0x12 esp-idf/heap/libheap.a(heap_tlsf.c.obj)
 *fill*         0x000000003fc897f2        0x2 
 .rodata.__func__.3762
                0x000000003fc897f4       0x13 esp-idf/heap/libheap.a(heap_tlsf.c.obj)
 *fill*         0x000000003fc89807        0x1 
 .rodata.__func__.3925
                0x000000003fc89808        0xa esp-idf/heap/libheap.a(heap_tlsf.c.obj)
 *fill*         0x000000003fc89812        0x2 
 .rodata.__func__.3938
                0x000000003fc89814        0xd esp-idf/heap/libheap.a(heap_tlsf.c.obj)
 *fill*         0x000000003fc89821        0x3 
 .rodata.default_walker.str1.4
                0x000000003fc89824       0x26 esp-idf/heap/libheap.a(heap_tlsf.c.obj)
 *fill*         0x000000003fc8984a        0x2 
 .rodata.integrity_walker.str1.4
                0x000000003fc8984c       0x96 esp-idf/heap/libheap.a(heap_tlsf.c.obj)
 *fill*         0x000000003fc898e2        0x2 
 .rodata.tlsf_add_pool.str1.4
                0x000000003fc898e4      0x142 esp-idf/heap/libheap.a(heap_tlsf.c.obj)
 *fill*         0x000000003fc89a26        0x2 
 .rodata.tlsf_create.str1.4
                0x000000003fc89a28       0x32 esp-idf/heap/libheap.a(heap_tlsf.c.obj)
 *fill*         0x000000003fc89a5a        0x2 
 .rodata.tlsf_free.str1.4
                0x000000003fc89a5c      0x148 esp-idf/heap/libheap.a(heap_tlsf.c.obj)
 .rodata.tlsf_malloc.str1.4
                0x000000003fc89ba4      0x1a7 esp-idf/heap/libheap.a(heap_tlsf.c.obj)
 *fill*         0x000000003fc89d4b        0x1 
 .rodata.tlsf_realloc.str1.4
                0x000000003fc89d4c       0x2e esp-idf/heap/libheap.a(heap_tlsf.c.obj)
 *fill*         0x000000003fc89d7a        0x2 
 .rodata.tlsf_remove_pool.str1.4
                0x000000003fc89d7c       0xe6 esp-idf/heap/libheap.a(heap_tlsf.c.obj)
 *libheap.a:multi_heap.*(.rodata .rodata.*)
 *fill*         0x000000003fc89e62        0x2 
 .rodata.__func__.4515
                0x000000003fc89e64       0x19 esp-idf/heap/libheap.a(multi_heap.c.obj)
 *fill*         0x000000003fc89e7d        0x3 
 .rodata.__func__.4556
                0x000000003fc89e80       0x18 esp-idf/heap/libheap.a(multi_heap.c.obj)
 .rodata.assert_valid_block.str1.4
                0x000000003fc89e98       0x32 esp-idf/heap/libheap.a(multi_heap.c.obj)
 *fill*         0x000000003fc89eca        0x2 
 .rodata.multi_heap_get_first_block.str1.4
                0x000000003fc89ecc        0xd esp-idf/heap/libheap.a(multi_heap.c.obj)
 *fill*         0x000000003fc89ed9        0x3 
 .rodata.multi_heap_register_impl.str1.4
                0x000000003fc89edc       0x2d esp-idf/heap/libheap.a(multi_heap.c.obj)
 *libnewlib.a:abort.*(.rodata .rodata.*)
 *fill*         0x000000003fc89f09        0x3 
 .rodata.abort.str1.4
                0x000000003fc89f0c       0x26 esp-idf/newlib/libnewlib.a(abort.c.obj)
 *libnewlib.a:heap.*(.rodata .rodata.*)
 *libnewlib.a:stdatomic.*(.rodata .rodata.*)
                0x000000003fc89f32                _nimble_data_start = ABSOLUTE (.)
 *libnimble.a:(.data .data.*)
                0x000000003fc89f34                . = ALIGN (0x4)
 *fill*         0x000000003fc89f32        0x2 
                0x000000003fc89f34                _nimble_data_end = ABSOLUTE (.)
 *libphy.a:(.rodata .rodata.*)
 *libsoc.a:lldesc.*(.rodata .rodata.*)
 *libspi_flash.a:memspi_host_driver.*(.rodata .rodata.*)
 .rodata.__func__.5445
                0x000000003fc89f34       0x19 esp-idf/spi_flash/libspi_flash.a(memspi_host_driver.c.obj)
 *fill*         0x000000003fc89f4d        0x3 
 .rodata.__func__.5451
                0x000000003fc89f50       0x18 esp-idf/spi_flash/libspi_flash.a(memspi_host_driver.c.obj)
 .rodata.__func__.5459
                0x000000003fc89f68       0x19 esp-idf/spi_flash/libspi_flash.a(memspi_host_driver.c.obj)
 *fill*         0x000000003fc89f81        0x3 
 .rodata.esp_flash_gpspi_host
                0x000000003fc89f84       0x58 esp-idf/spi_flash/libspi_flash.a(memspi_host_driver.c.obj)
 .rodata.memspi_host_erase_sector.str1.4
                0x000000003fc89fdc       0x4a esp-idf/spi_flash/libspi_flash.a(memspi_host_driver.c.obj)
 *fill*         0x000000003fc8a026        0x2 
 .rodata.memspi_host_program_page.str1.4
                0x000000003fc8a028       0x1e esp-idf/spi_flash/libspi_flash.a(memspi_host_driver.c.obj)
 *fill*         0x000000003fc8a046        0x2 
 .rodata.memspi_host_read_id_hs.str1.4
                0x000000003fc8a048       0x24 esp-idf/spi_flash/libspi_flash.a(memspi_host_driver.c.obj)
 *libspi_flash.a:spi_flash_chip_boya.*(.rodata .rodata.*)
 .rodata.esp_flash_chip_boya
                0x000000003fc8a06c       0x78 esp-idf/spi_flash/libspi_flash.a(spi_flash_chip_boya.c.obj)
                0x000000003fc8a06c                esp_flash_chip_boya
 *libspi_flash.a:spi_flash_chip_gd.*(.rodata .rodata.*)
 .rodata.esp_flash_chip_gd
                0x000000003fc8a0e4       0x78 esp-idf/spi_flash/libspi_flash.a(spi_flash_chip_gd.c.obj)
                0x000000003fc8a0e4                esp_flash_chip_gd
 *libspi_flash.a:spi_flash_chip_generic.*(.rodata .rodata.*)
 .rodata.TAG    0x000000003fc8a15c        0xd esp-idf/spi_flash/libspi_flash.a(spi_flash_chip_generic.c.obj)
 *fill*         0x000000003fc8a169        0x3 
 .rodata.__func__.4205
                0x000000003fc8a16c       0x29 esp-idf/spi_flash/libspi_flash.a(spi_flash_chip_generic.c.obj)
 *fill*         0x000000003fc8a195        0x3 
 .rodata.esp_flash_chip_generic
                0x000000003fc8a198       0x78 esp-idf/spi_flash/libspi_flash.a(spi_flash_chip_generic.c.obj)
                0x000000003fc8a198                esp_flash_chip_generic
 .rodata.spi_flash_chip_generic_get_write_protect.str1.4
                0x000000003fc8a210       0x4a esp-idf/spi_flash/libspi_flash.a(spi_flash_chip_generic.c.obj)
 *fill*         0x000000003fc8a25a        0x2 
 .rodata.spi_flash_chip_generic_read.str1.4
                0x000000003fc8a25c       0x43 esp-idf/spi_flash/libspi_flash.a(spi_flash_chip_generic.c.obj)
 *fill*         0x000000003fc8a29f        0x1 
 .rodata.spi_flash_chip_generic_read_unique_id.str1.4
                0x000000003fc8a2a0       0x52 esp-idf/spi_flash/libspi_flash.a(spi_flash_chip_generic.c.obj)
 *fill*         0x000000003fc8a2f2        0x2 
 .rodata.spi_flash_chip_generic_suspend_cmd_conf.str1.4
                0x000000003fc8a2f4       0x5f esp-idf/spi_flash/libspi_flash.a(spi_flash_chip_generic.c.obj)
 *libspi_flash.a:spi_flash_chip_issi.*(.rodata .rodata.*)
 *fill*         0x000000003fc8a353        0x1 
 .rodata.esp_flash_chip_issi
                0x000000003fc8a354       0x78 esp-idf/spi_flash/libspi_flash.a(spi_flash_chip_issi.c.obj)
                0x000000003fc8a354                esp_flash_chip_issi
 *libspi_flash.a:spi_flash_chip_mxic.*(.rodata .rodata.*)
 .rodata.esp_flash_chip_mxic
                0x000000003fc8a3cc       0x78 esp-idf/spi_flash/libspi_flash.a(spi_flash_chip_mxic.c.obj)
                0x000000003fc8a3cc                esp_flash_chip_mxic
 .rodata.spi_flash_chip_mxic_read_unique_id.str1.4
                0x000000003fc8a444       0x41 esp-idf/spi_flash/libspi_flash.a(spi_flash_chip_mxic.c.obj)
 *libspi_flash.a:spi_flash_chip_winbond.*(.rodata .rodata.*)
 *fill*         0x000000003fc8a485        0x3 
 .rodata.esp_flash_chip_winbond
                0x000000003fc8a488       0x78 esp-idf/spi_flash/libspi_flash.a(spi_flash_chip_winbond.c.obj)
                0x000000003fc8a488                esp_flash_chip_winbond
 .rodata.spi_flash_chip_winbond_read.str1.4
                0x000000003fc8a500       0x43 esp-idf/spi_flash/libspi_flash.a(spi_flash_chip_winbond.c.obj)
 *libspi_flash.a:spi_flash_rom_patch.*(.rodata .rodata.*)
                0x000000003fc8a500                _data_end = ABSOLUTE (.)
                0x000000003fc8a544                . = ALIGN (0x4)

.noinit         0x000000003fc8a500        0x0
                0x000000003fc8a500                . = ALIGN (0x4)
                0x000000003fc8a500                _noinit_start = ABSOLUTE (.)
 *(.noinit .noinit.*)
                0x000000003fc8a500                . = ALIGN (0x4)
                0x000000003fc8a500                _noinit_end = ABSOLUTE (.)

.dram0.bss      0x000000003fc8a500      0xe50
                0x000000003fc8a500                . = ALIGN (0x8)
                0x000000003fc8a500                _bss_start = ABSOLUTE (.)
 *(.bss .bss.*)
 .bss.shutdown_handlers
                0x000000003fc8a500       0x14 esp-idf/esp_system/libesp_system.a(esp_system.c.obj)
 .bss.s_vfs     0x000000003fc8a514       0x20 esp-idf/vfs/libvfs.a(vfs.c.obj)
 .bss.s_log_cache
                0x000000003fc8a534       0xf8 esp-idf/log/liblog.a(log.c.obj)
 .bss.s_intr_handlers
                0x000000003fc8a62c      0x100 esp-idf/riscv/libriscv.a(interrupt.c.obj)
 *fill*         0x000000003fc8a72c        0x4 
 .bss.xIsrStack
                0x000000003fc8a730      0x600 esp-idf/freertos/libfreertos.a(port.c.obj)
 .bss.pxReadyTasksLists
                0x000000003fc8ad30      0x1f4 esp-idf/freertos/libfreertos.a(tasks.c.obj)
 .bss.xDelayedTaskList1
                0x000000003fc8af24       0x14 esp-idf/freertos/libfreertos.a(tasks.c.obj)
 .bss.xDelayedTaskList2
                0x000000003fc8af38       0x14 esp-idf/freertos/libfreertos.a(tasks.c.obj)
 .bss.xPendingReadyList
                0x000000003fc8af4c       0x14 esp-idf/freertos/libfreertos.a(tasks.c.obj)
 .bss.xSuspendedTaskList
                0x000000003fc8af60       0x14 esp-idf/freertos/libfreertos.a(tasks.c.obj)
 .bss.xTasksWaitingTermination
                0x000000003fc8af74       0x14 esp-idf/freertos/libfreertos.a(tasks.c.obj)
 .bss.s_common_mutex
                0x000000003fc8af88       0x54 esp-idf/newlib/libnewlib.a(locks.c.obj)
                0x000000003fc8af88                __lock___at_quick_exit_mutex
                0x000000003fc8af88                __lock___dd_hash_mutex
                0x000000003fc8af88                __lock___tz_mutex
                0x000000003fc8af88                __lock___arc4random_mutex
 .bss.s_common_recursive_mutex
                0x000000003fc8afdc       0x54 esp-idf/newlib/libnewlib.a(locks.c.obj)
                0x000000003fc8afdc                __lock___env_recursive_mutex
                0x000000003fc8afdc                __lock___sinit_recursive_mutex
                0x000000003fc8afdc                __lock___malloc_recursive_mutex
                0x000000003fc8afdc                __lock___sfp_recursive_mutex
                0x000000003fc8afdc                __lock___atexit_recursive_mutex
 .bss.s_reent   0x000000003fc8b030       0xf0 esp-idf/newlib/libnewlib.a(newlib_init.c.obj)
 .bss.ref_counts
                0x000000003fc8b120       0x1b esp-idf/driver/libdriver.a(periph_ctrl.c.obj)
 *fill*         0x000000003fc8b13b        0x1 
 .bss.s_mmap_page_refcnt
                0x000000003fc8b13c       0x80 esp-idf/spi_flash/libspi_flash.a(flash_mmap.c.obj)
 .bss.idle_cb   0x000000003fc8b1bc       0x20 esp-idf/esp_system/libesp_system.a(freertos_hooks.c.obj)
 .bss.tick_cb   0x000000003fc8b1dc       0x20 esp-idf/esp_system/libesp_system.a(freertos_hooks.c.obj)
 *(.ext_ram.bss .ext_ram.bss.*)
 *(.dynbss .dynsbss .gnu.linkonce.b .gnu.linkonce.b.* .gnu.linkonce.sb .gnu.linkonce.sb.* .gnu.linkonce.sb2 .gnu.linkonce.sb2.* .sbss .sbss.* .sbss2 .sbss2.* .scommon .share.mem)
 .sbss.s_app_elf_sha256.3865
                0x000000003fc8b1fc        0x8 esp-idf/app_update/libapp_update.a(esp_app_desc.c.obj)
 .sbss.s_pthread_cfg_key
                0x000000003fc8b204        0x4 esp-idf/pthread/libpthread.a(pthread.c.obj)
 .sbss.s_threads_mux
                0x000000003fc8b208        0x4 esp-idf/pthread/libpthread.a(pthread.c.obj)
 .sbss.s_keys   0x000000003fc8b20c        0x4 esp-idf/pthread/libpthread.a(pthread_local_storage.c.obj)
                0x000000003fc8b20c                s_keys
 .sbss.g_startup_time
                0x000000003fc8b210        0x8 esp-idf/esp_system/libesp_system.a(startup.c.obj)
                0x000000003fc8b210                g_startup_time
 .sbss.g_panic_abort
                0x000000003fc8b218        0x1 esp-idf/esp_system/libesp_system.a(panic.c.obj)
                0x000000003fc8b218                g_panic_abort
 *fill*         0x000000003fc8b219        0x3 
 .sbss.s_panic_abort_details
                0x000000003fc8b21c        0x4 esp-idf/esp_system/libesp_system.a(panic.c.obj)
 .sbss.g_exc_frames
                0x000000003fc8b220        0x4 esp-idf/esp_system/libesp_system.a(panic_handler.c.obj)
                0x000000003fc8b220                g_exc_frames
 .sbss.s_fd_table_lock
                0x000000003fc8b224        0x4 esp-idf/vfs/libvfs.a(vfs.c.obj)
 .sbss.s_vfs_count
                0x000000003fc8b228        0x4 esp-idf/vfs/libvfs.a(vfs.c.obj)
 .sbss.s_registered_select_num
                0x000000003fc8b22c        0x4 esp-idf/vfs/libvfs.a(vfs_uart.c.obj)
 .sbss.s_registered_selects
                0x000000003fc8b230        0x4 esp-idf/vfs/libvfs.a(vfs_uart.c.obj)
 .sbss.s_log_cache_entry_count
                0x000000003fc8b234        0x4 esp-idf/log/liblog.a(log.c.obj)
 .sbss.s_log_cache_max_generation
                0x000000003fc8b238        0x4 esp-idf/log/liblog.a(log.c.obj)
 .sbss.s_log_cache_misses
                0x000000003fc8b23c        0x4 esp-idf/log/liblog.a(log.c.obj)
 .sbss.s_log_tags
                0x000000003fc8b240        0x4 esp-idf/log/liblog.a(log.c.obj)
 .sbss.base.4874
                0x000000003fc8b244        0x4 esp-idf/log/liblog.a(log_freertos.c.obj)
 .sbss.s_log_mutex
                0x000000003fc8b248        0x4 esp-idf/log/liblog.a(log_freertos.c.obj)
 .sbss.alloc_failed_callback
                0x000000003fc8b24c        0x4 esp-idf/heap/libheap.a(heap_caps.c.obj)
 .sbss.s_esp_rtc_time_lock
                0x000000003fc8b250        0x4 esp-idf/esp_hw_support/libesp_hw_support.a(esp_clk.c.obj)
 .sbss.non_iram_int_disabled
                0x000000003fc8b254        0x4 esp-idf/esp_hw_support/libesp_hw_support.a(intr_alloc.c.obj)
 .sbss.non_iram_int_disabled_flag
                0x000000003fc8b258        0x1 esp-idf/esp_hw_support/libesp_hw_support.a(intr_alloc.c.obj)
 *fill*         0x000000003fc8b259        0x3 
 .sbss.non_iram_int_mask
                0x000000003fc8b25c        0x4 esp-idf/esp_hw_support/libesp_hw_support.a(intr_alloc.c.obj)
 .sbss.vector_desc_head
                0x000000003fc8b260        0x4 esp-idf/esp_hw_support/libesp_hw_support.a(intr_alloc.c.obj)
 .sbss.s_cur_pll_freq
                0x000000003fc8b264        0x4 esp-idf/esp_hw_support/libesp_hw_support.a(rtc_clk.c.obj)
 .sbss.s_timer_task
                0x000000003fc8b268        0x4 esp-idf/esp_timer/libesp_timer.a(esp_timer.c.obj)
 .sbss.s_timers
                0x000000003fc8b26c        0x4 esp-idf/esp_timer/libesp_timer.a(esp_timer.c.obj)
 .sbss.s_correction_us
                0x000000003fc8b270        0x8 esp-idf/esp_timer/libesp_timer.a(system_time.c.obj)
 .sbss.s_alarm_handler
                0x000000003fc8b278        0x4 esp-idf/esp_timer/libesp_timer.a(esp_timer_impl_systimer.c.obj)
 .sbss.s_timer_interrupt_handle
                0x000000003fc8b27c        0x4 esp-idf/esp_timer/libesp_timer.a(esp_timer_impl_systimer.c.obj)
 .sbss.systimer_hal
                0x000000003fc8b280        0x4 esp-idf/esp_timer/libesp_timer.a(esp_timer_impl_systimer.c.obj)
 .sbss.uxCriticalNesting
                0x000000003fc8b284        0x4 esp-idf/freertos/libfreertos.a(port.c.obj)
 .sbss.uxInterruptNesting
                0x000000003fc8b288        0x4 esp-idf/freertos/libfreertos.a(port.c.obj)
                0x000000003fc8b288                uxInterruptNesting
 .sbss.uxSavedInterruptState
                0x000000003fc8b28c        0x4 esp-idf/freertos/libfreertos.a(port.c.obj)
 .sbss.uxSchedulerRunning
                0x000000003fc8b290        0x4 esp-idf/freertos/libfreertos.a(port.c.obj)
                0x000000003fc8b290                uxSchedulerRunning
 .sbss.xPortSwitchFlag
                0x000000003fc8b294        0x4 esp-idf/freertos/libfreertos.a(port.c.obj)
                0x000000003fc8b294                xPortSwitchFlag
 .sbss.s_handled_systicks
                0x000000003fc8b298        0x4 esp-idf/freertos/libfreertos.a(port_systick.c.obj)
 .sbss.systimer_hal.5117
                0x000000003fc8b29c        0x4 esp-idf/freertos/libfreertos.a(port_systick.c.obj)
 .sbss.pxCurrentTCB
                0x000000003fc8b2a0        0x4 esp-idf/freertos/libfreertos.a(tasks.c.obj)
                0x000000003fc8b2a0                pxCurrentTCB
 .sbss.pxDelayedTaskList
                0x000000003fc8b2a4        0x4 esp-idf/freertos/libfreertos.a(tasks.c.obj)
 .sbss.pxOverflowDelayedTaskList
                0x000000003fc8b2a8        0x4 esp-idf/freertos/libfreertos.a(tasks.c.obj)
 .sbss.uxCurrentNumberOfTasks
                0x000000003fc8b2ac        0x4 esp-idf/freertos/libfreertos.a(tasks.c.obj)
 .sbss.uxDeletedTasksWaitingCleanUp
                0x000000003fc8b2b0        0x4 esp-idf/freertos/libfreertos.a(tasks.c.obj)
 .sbss.uxSchedulerSuspended
                0x000000003fc8b2b4        0x4 esp-idf/freertos/libfreertos.a(tasks.c.obj)
 .sbss.uxTaskNumber
                0x000000003fc8b2b8        0x4 esp-idf/freertos/libfreertos.a(tasks.c.obj)
 .sbss.uxTopReadyPriority
                0x000000003fc8b2bc        0x4 esp-idf/freertos/libfreertos.a(tasks.c.obj)
 .sbss.xIdleTaskHandle
                0x000000003fc8b2c0        0x4 esp-idf/freertos/libfreertos.a(tasks.c.obj)
 .sbss.xNextTaskUnblockTime
                0x000000003fc8b2c4        0x4 esp-idf/freertos/libfreertos.a(tasks.c.obj)
 .sbss.xNumOfOverflows
                0x000000003fc8b2c8        0x4 esp-idf/freertos/libfreertos.a(tasks.c.obj)
 .sbss.xPendedTicks
                0x000000003fc8b2cc        0x4 esp-idf/freertos/libfreertos.a(tasks.c.obj)
 .sbss.xSchedulerRunning
                0x000000003fc8b2d0        0x4 esp-idf/freertos/libfreertos.a(tasks.c.obj)
 .sbss.xSwitchingContext
                0x000000003fc8b2d4        0x4 esp-idf/freertos/libfreertos.a(tasks.c.obj)
 .sbss.xTickCount
                0x000000003fc8b2d8        0x4 esp-idf/freertos/libfreertos.a(tasks.c.obj)
 .sbss.xYieldPending
                0x000000003fc8b2dc        0x4 esp-idf/freertos/libfreertos.a(tasks.c.obj)
 .sbss.s_adjtime_start_us
                0x000000003fc8b2e0        0x8 esp-idf/newlib/libnewlib.a(time.c.obj)
 .sbss.s_adjtime_total_correction_us
                0x000000003fc8b2e8        0x8 esp-idf/newlib/libnewlib.a(time.c.obj)
 .sbss.s_time_lock
                0x000000003fc8b2f0        0x4 esp-idf/newlib/libnewlib.a(time.c.obj)
 .sbss.s_boot_time_lock
                0x000000003fc8b2f4        0x4 esp-idf/newlib/libnewlib.a(esp_time_impl.c.obj)
 .sbss.s_microseconds_offset
                0x000000003fc8b2f8        0x8 esp-idf/newlib/libnewlib.a(esp_time_impl.c.obj)
                0x000000003fc8b2f8                s_microseconds_offset
 .sbss.p_uart_obj
                0x000000003fc8b300        0x8 esp-idf/driver/libdriver.a(uart.c.obj)
 .sbss.s_flash_op_cache_state
                0x000000003fc8b308        0x8 esp-idf/spi_flash/libspi_flash.a(cache_utils.c.obj)
 .sbss.s_mmap_entries_head
                0x000000003fc8b310        0x4 esp-idf/spi_flash/libspi_flash.a(flash_mmap.c.obj)
 .sbss.s_mmap_last_handle
                0x000000003fc8b314        0x4 esp-idf/spi_flash/libspi_flash.a(flash_mmap.c.obj)
 .sbss.s_flash_guard_ops
                0x000000003fc8b318        0x4 esp-idf/spi_flash/libspi_flash.a(flash_ops.c.obj)
 .sbss.esp_flash_default_chip
                0x000000003fc8b31c        0x4 esp-idf/spi_flash/libspi_flash.a(esp_flash_spi_init.c.obj)
                0x000000003fc8b31c                esp_flash_default_chip
 .sbss.s_partition_list
                0x000000003fc8b320        0x4 esp-idf/spi_flash/libspi_flash.a(partition.c.obj)
 .sbss.s_partition_list_lock
                0x000000003fc8b324        0x4 esp-idf/spi_flash/libspi_flash.a(partition.c.obj)
 .sbss.reason   0x000000003fc8b328        0x4 esp-idf/esp_system/libesp_system.a(crosscore_int.c.obj)
 .sbss.iwdt_context
                0x000000003fc8b32c        0x8 esp-idf/esp_system/libesp_system.a(int_wdt.c.obj)
 .sbss.twdt_config
                0x000000003fc8b334        0x4 esp-idf/esp_system/libesp_system.a(task_wdt.c.obj)
 .sbss.twdt_context
                0x000000003fc8b338        0x8 esp-idf/esp_system/libesp_system.a(task_wdt.c.obj)
 .sbss.s_burn_counter
                0x000000003fc8b340        0x4 esp-idf/efuse/libefuse.a(esp_efuse_utility.c.obj)
 .sbss.curr_partition.5071
                0x000000003fc8b344        0x4 esp-idf/app_update/libapp_update.a(esp_ota_ops.c.obj)
 .sbss          0x000000003fc8b348        0x4 /home/xy/.espressif/tools/riscv32-esp-elf/esp-2021r1-8.4.0/riscv32-esp-elf/bin/../lib/gcc/riscv32-esp-elf/8.4.0/../../../../riscv32-esp-elf/lib/rv32im/ilp32\libc.a(lib_a-environ.o)
                0x000000003fc8b348                environ
 *(COMMON)
 COMMON         0x000000003fc8b34c        0x4 esp-idf/heap/libheap.a(heap_caps_init.c.obj)
                0x000000003fc8b34c                registered_heaps
                0x000000003fc8b350                _bt_bss_start = ABSOLUTE (.)
 *libbt.a:(.bss .bss.* COMMON)
                0x000000003fc8b350                . = ALIGN (0x4)
                0x000000003fc8b350                _bt_bss_end = ABSOLUTE (.)
                0x000000003fc8b350                _btdm_bss_start = ABSOLUTE (.)
 *libbtdm_app.a:(.bss .bss.* COMMON)
                0x000000003fc8b350                . = ALIGN (0x4)
                0x000000003fc8b350                _btdm_bss_end = ABSOLUTE (.)
                0x000000003fc8b350                _nimble_bss_start = ABSOLUTE (.)
 *libnimble.a:(.bss .bss.* COMMON)
                0x000000003fc8b350                . = ALIGN (0x4)
                0x000000003fc8b350                _nimble_bss_end = ABSOLUTE (.)
 *(.dynsbss)
 *(.sbss)
 *(.sbss.*)
 *(.gnu.linkonce.sb.*)
 *(.scommon)
 *(.sbss2)
 *(.sbss2.*)
 *(.gnu.linkonce.sb2.*)
 *(.dynbss)
 *(.share.mem)
 *(.gnu.linkonce.b.*)
                0x000000003fc8b350                . = ALIGN (0x8)
                0x000000003fc8b350                _bss_end = ABSOLUTE (.)
                0x0000000000000001                ASSERT (((_bss_end - ORIGIN (dram0_0_seg)) <= LENGTH (dram0_0_seg)), DRAM segment data does not fit.)

.flash.text     0x0000000042000020    0x14d04
                0x0000000042000020                _stext = .
                0x0000000042000020                _instruction_reserved_start = ABSOLUTE (.)
                0x0000000042000020                _text_start = ABSOLUTE (.)
 *(EXCLUDE_FILE(*libspi_flash.a:spi_flash_rom_patch.* *libspi_flash.a:spi_flash_chip_winbond.* *libspi_flash.a:spi_flash_chip_mxic.* *libspi_flash.a:spi_flash_chip_issi.* *libspi_flash.a:spi_flash_chip_generic.* *libspi_flash.a:spi_flash_chip_gd.* *libspi_flash.a:spi_flash_chip_boya.* *libspi_flash.a:memspi_host_driver.* *libsoc.a:lldesc.* *libriscv.a:vectors.* *libriscv.a:interrupt.* *libnewlib.a:stdatomic.* *libnewlib.a:heap.* *libnewlib.a:abort.* *liblog.a:log_freertos.* *liblog.a:log.* *libheap.a:multi_heap.* *libheap.a:heap_tlsf.* *libhal.a:wdt_hal_iram.* *libhal.a:systimer_hal.* *libhal.a:spi_slave_hal_iram.* *libhal.a:spi_hal_iram.* *libhal.a:spi_flash_hal_iram.* *libhal.a:spi_flash_hal_gpspi.* *libhal.a:spi_flash_encrypt_hal_iram.* *libhal.a:soc_hal.* *libhal.a:ledc_hal_iram.* *libhal.a:i2c_hal_iram.* *libhal.a:cpu_hal.* *libgcc.a:lib2funcs.* *libgcc.a:_divsf3.* *libesp_system.a:ubsan.* *libesp_system.a:esp_system.* *libesp_system.a:esp_err.* *libesp_hw_support.a:rtc_time.* *libesp_hw_support.a:rtc_sleep.* *libesp_hw_support.a:rtc_pm.* *libesp_hw_support.a:rtc_init.* *libesp_hw_support.a:rtc_clk.* *libesp_hw_support.a:cpu_util.* *libesp_event.a:esp_event.* *libesp_event.a:default_event_loop.* *libapp_trace.a:app_trace_util.* *libapp_trace.a:app_trace.* *librtc.a *libgcov.a *libfreertos.a *libesp_ringbuf.a) .literal EXCLUDE_FILE(*libspi_flash.a:spi_flash_rom_patch.* *libspi_flash.a:spi_flash_chip_winbond.* *libspi_flash.a:spi_flash_chip_mxic.* *libspi_flash.a:spi_flash_chip_issi.* *libspi_flash.a:spi_flash_chip_generic.* *libspi_flash.a:spi_flash_chip_gd.* *libspi_flash.a:spi_flash_chip_boya.* *libspi_flash.a:memspi_host_driver.* *libsoc.a:lldesc.* *libriscv.a:vectors.* *libriscv.a:interrupt.* *libnewlib.a:stdatomic.* *libnewlib.a:heap.* *libnewlib.a:abort.* *liblog.a:log_freertos.* *liblog.a:log.* *libheap.a:multi_heap.* *libheap.a:heap_tlsf.* *libhal.a:wdt_hal_iram.* *libhal.a:systimer_hal.* *libhal.a:spi_slave_hal_iram.* *libhal.a:spi_hal_iram.* *libhal.a:spi_flash_hal_iram.* *libhal.a:spi_flash_hal_gpspi.* *libhal.a:spi_flash_encrypt_hal_iram.* *libhal.a:soc_hal.* *libhal.a:ledc_hal_iram.* *libhal.a:i2c_hal_iram.* *libhal.a:cpu_hal.* *libgcc.a:lib2funcs.* *libgcc.a:_divsf3.* *libesp_system.a:ubsan.* *libesp_system.a:esp_system.* *libesp_system.a:esp_err.* *libesp_hw_support.a:rtc_time.* *libesp_hw_support.a:rtc_sleep.* *libesp_hw_support.a:rtc_pm.* *libesp_hw_support.a:rtc_init.* *libesp_hw_support.a:rtc_clk.* *libesp_hw_support.a:cpu_util.* *libesp_event.a:esp_event.* *libesp_event.a:default_event_loop.* *libapp_trace.a:app_trace_util.* *libapp_trace.a:app_trace.* *librtc.a *libgcov.a *libfreertos.a *libesp_ringbuf.a) .literal.* EXCLUDE_FILE(*libspi_flash.a:spi_flash_rom_patch.* *libspi_flash.a:spi_flash_chip_winbond.* *libspi_flash.a:spi_flash_chip_mxic.* *libspi_flash.a:spi_flash_chip_issi.* *libspi_flash.a:spi_flash_chip_generic.* *libspi_flash.a:spi_flash_chip_gd.* *libspi_flash.a:spi_flash_chip_boya.* *libspi_flash.a:memspi_host_driver.* *libsoc.a:lldesc.* *libriscv.a:vectors.* *libriscv.a:interrupt.* *libnewlib.a:stdatomic.* *libnewlib.a:heap.* *libnewlib.a:abort.* *liblog.a:log_freertos.* *liblog.a:log.* *libheap.a:multi_heap.* *libheap.a:heap_tlsf.* *libhal.a:wdt_hal_iram.* *libhal.a:systimer_hal.* *libhal.a:spi_slave_hal_iram.* *libhal.a:spi_hal_iram.* *libhal.a:spi_flash_hal_iram.* *libhal.a:spi_flash_hal_gpspi.* *libhal.a:spi_flash_encrypt_hal_iram.* *libhal.a:soc_hal.* *libhal.a:ledc_hal_iram.* *libhal.a:i2c_hal_iram.* *libhal.a:cpu_hal.* *libgcc.a:lib2funcs.* *libgcc.a:_divsf3.* *libesp_system.a:ubsan.* *libesp_system.a:esp_system.* *libesp_system.a:esp_err.* *libesp_hw_support.a:rtc_time.* *libesp_hw_support.a:rtc_sleep.* *libesp_hw_support.a:rtc_pm.* *libesp_hw_support.a:rtc_init.* *libesp_hw_support.a:rtc_clk.* *libesp_hw_support.a:cpu_util.* *libesp_event.a:esp_event.* *libesp_event.a:default_event_loop.* *libapp_trace.a:app_trace_util.* *libapp_trace.a:app_trace.* *librtc.a *libgcov.a *libfreertos.a *libesp_ringbuf.a) .text EXCLUDE_FILE(*libspi_flash.a:spi_flash_rom_patch.* *libspi_flash.a:spi_flash_chip_winbond.* *libspi_flash.a:spi_flash_chip_mxic.* *libspi_flash.a:spi_flash_chip_issi.* *libspi_flash.a:spi_flash_chip_generic.* *libspi_flash.a:spi_flash_chip_gd.* *libspi_flash.a:spi_flash_chip_boya.* *libspi_flash.a:memspi_host_driver.* *libsoc.a:lldesc.* *libriscv.a:vectors.* *libriscv.a:interrupt.* *libnewlib.a:stdatomic.* *libnewlib.a:heap.* *libnewlib.a:abort.* *liblog.a:log_freertos.* *liblog.a:log.* *libheap.a:multi_heap.* *libheap.a:heap_tlsf.* *libhal.a:wdt_hal_iram.* *libhal.a:systimer_hal.* *libhal.a:spi_slave_hal_iram.* *libhal.a:spi_hal_iram.* *libhal.a:spi_flash_hal_iram.* *libhal.a:spi_flash_hal_gpspi.* *libhal.a:spi_flash_encrypt_hal_iram.* *libhal.a:soc_hal.* *libhal.a:ledc_hal_iram.* *libhal.a:i2c_hal_iram.* *libhal.a:cpu_hal.* *libgcc.a:lib2funcs.* *libgcc.a:_divsf3.* *libesp_system.a:ubsan.* *libesp_system.a:esp_system.* *libesp_system.a:esp_err.* *libesp_hw_support.a:rtc_time.* *libesp_hw_support.a:rtc_sleep.* *libesp_hw_support.a:rtc_pm.* *libesp_hw_support.a:rtc_init.* *libesp_hw_support.a:rtc_clk.* *libesp_hw_support.a:cpu_util.* *libesp_event.a:esp_event.* *libesp_event.a:default_event_loop.* *libapp_trace.a:app_trace_util.* *libapp_trace.a:app_trace.* *librtc.a *libgcov.a *libfreertos.a *libesp_ringbuf.a) .text.*)
 .text.esp_ota_get_app_description
                0x0000000042000020        0xa esp-idf/app_update/libapp_update.a(esp_app_desc.c.obj)
                0x0000000042000020                esp_ota_get_app_description
 .text.esp_ota_init_app_elf_sha256
                0x000000004200002a       0x16 esp-idf/app_update/libapp_update.a(esp_app_desc.c.obj)
                0x000000004200002a                esp_ota_init_app_elf_sha256
 .text.esp_pthread_cfg_key_destructor
                0x0000000042000040       0x12 esp-idf/pthread/libpthread.a(pthread.c.obj)
 .text.esp_pthread_init
                0x0000000042000052       0x50 esp-idf/pthread/libpthread.a(pthread.c.obj)
                0x0000000042000052                esp_pthread_init
 .text.pthread_include_pthread_impl
                0x00000000420000a2        0x2 esp-idf/pthread/libpthread.a(pthread.c.obj)
                0x00000000420000a2                pthread_include_pthread_impl
 .text.find_key
                0x00000000420000a4       0x3a esp-idf/pthread/libpthread.a(pthread_local_storage.c.obj)
 .text.pthread_key_create
                0x00000000420000de       0x66 esp-idf/pthread/libpthread.a(pthread_local_storage.c.obj)
                0x00000000420000de                pthread_key_create
 .text.pthread_key_delete
                0x0000000042000144       0x50 esp-idf/pthread/libpthread.a(pthread_local_storage.c.obj)
                0x0000000042000144                pthread_key_delete
 .text.pthread_include_pthread_local_storage_impl
                0x0000000042000194        0x2 esp-idf/pthread/libpthread.a(pthread_local_storage.c.obj)
                0x0000000042000194                pthread_include_pthread_local_storage_impl
 .text.s_warn   0x0000000042000196       0x38 esp-idf/esp_system/libesp_system.a(fpga_overrides.c.obj)
 .text.esp_clk_init
                0x00000000420001ce        0xc esp-idf/esp_system/libesp_system.a(fpga_overrides.c.obj)
                0x00000000420001ce                esp_clk_init
 .text.esp_perip_clk_init
                0x00000000420001da        0x2 esp-idf/esp_system/libesp_system.a(fpga_overrides.c.obj)
                0x00000000420001da                esp_perip_clk_init
 .text.esp_common_include_fpga_overrides
                0x00000000420001dc        0x2 esp-idf/esp_system/libesp_system.a(fpga_overrides.c.obj)
                0x00000000420001dc                esp_common_include_fpga_overrides
 .text.intr_matrix_clear
                0x00000000420001de       0x2a esp-idf/esp_system/libesp_system.a(cpu_start.c.obj)
 .text.esp_cache_err_int_init
                0x0000000042000208       0x7c esp-idf/esp_system/libesp_system.a(cache_err_int.c.obj)
                0x0000000042000208                esp_cache_err_int_init
 .text.do_global_ctors
                0x0000000042000284       0x46 esp-idf/esp_system/libesp_system.a(startup.c.obj)
 .text.do_system_init_fn
                0x00000000420002ca       0x32 esp-idf/esp_system/libesp_system.a(startup.c.obj)
 .text.do_secondary_init
                0x00000000420002fc        0xc esp-idf/esp_system/libesp_system.a(startup.c.obj)
 .text.do_core_init
                0x0000000042000308       0xe0 esp-idf/esp_system/libesp_system.a(startup.c.obj)
 .text.start_cpu0_default
                0x00000000420003e8      0x1de esp-idf/esp_system/libesp_system.a(startup.c.obj)
                0x00000000420003e8                start_cpu0
 .text.esp_brownout_init
                0x00000000420005c6       0x26 esp-idf/esp_system/libesp_system.a(brownout.c.obj)
                0x00000000420005c6                esp_brownout_init
 .text.esp_apb_backup_dma_lock_init
                0x00000000420005ec       0x22 esp-idf/esp_system/libesp_system.a(apb_backup_dma.c.obj)
                0x00000000420005ec                esp_apb_backup_dma_lock_init
 .text.panic_print_char
                0x000000004200060e       0x34 esp-idf/esp_system/libesp_system.a(panic.c.obj)
                0x000000004200060e                panic_print_char
 .text.panic_print_str
                0x0000000042000642       0x26 esp-idf/esp_system/libesp_system.a(panic.c.obj)
                0x0000000042000642                panic_print_str
 .text.print_abort_details
                0x0000000042000668       0x14 esp-idf/esp_system/libesp_system.a(panic.c.obj)
 .text.panic_print_hex
                0x000000004200067c       0x3a esp-idf/esp_system/libesp_system.a(panic.c.obj)
                0x000000004200067c                panic_print_hex
 .text.panic_print_dec
                0x00000000420006b6       0x36 esp-idf/esp_system/libesp_system.a(panic.c.obj)
                0x00000000420006b6                panic_print_dec
 .text.esp_panic_handler_reconfigure_wdts
                0x00000000420006ec       0x88 esp-idf/esp_system/libesp_system.a(panic.c.obj)
                0x00000000420006ec                esp_panic_handler_reconfigure_wdts
 .text.panic_abort
                0x0000000042000774       0x18 esp-idf/esp_system/libesp_system.a(panic.c.obj)
                0x0000000042000774                panic_abort
 .text.esp_panic_handler
                0x000000004200078c      0x240 esp-idf/esp_system/libesp_system.a(panic.c.obj)
                0x000000004200078c                esp_panic_handler
 .text.frame_to_panic_info
                0x00000000420009cc       0x44 esp-idf/esp_system/libesp_system.a(panic_handler.c.obj)
 .text.panic_handler
                0x0000000042000a10       0x7a esp-idf/esp_system/libesp_system.a(panic_handler.c.obj)
 .text.print_state_for_core
                0x0000000042000a8a       0x28 esp-idf/esp_system/libesp_system.a(panic_handler.c.obj)
 .text.print_state
                0x0000000042000ab2       0x18 esp-idf/esp_system/libesp_system.a(panic_handler.c.obj)
 .text.panic_restart
                0x0000000042000aca        0xc esp-idf/esp_system/libesp_system.a(panic_handler.c.obj)
                0x0000000042000aca                panic_restart
 .text.panic_print_basic_backtrace
                0x0000000042000ad6       0x86 esp-idf/esp_system/libesp_system.a(panic_arch.c.obj)
 .text.print_memprot_err_details
                0x0000000042000b5c       0xc2 esp-idf/esp_system/libesp_system.a(panic_arch.c.obj)
 .text.print_cache_err_details
                0x0000000042000c1e      0x11e esp-idf/esp_system/libesp_system.a(panic_arch.c.obj)
 .text.panic_print_registers
                0x0000000042000d3c       0xda esp-idf/esp_system/libesp_system.a(panic_arch.c.obj)
                0x0000000042000d3c                panic_print_registers
 .text.panic_soc_fill_info
